{
  "abi": [
    {
      "inputs": [
        {
          "components": [
            {
              "internalType": "address",
              "name": "deployer",
              "type": "address"
            },
            {
              "internalType": "bytes",
              "name": "meta",
              "type": "bytes"
            }
          ],
          "internalType": "struct DeployerDiscoverableMetaV1ConstructionConfig",
          "name": "config_",
          "type": "tuple"
        }
      ],
      "stateMutability": "nonpayable",
      "type": "constructor"
    },
    {
      "inputs": [
        {
          "internalType": "address",
          "name": "receiver",
          "type": "address"
        },
        {
          "internalType": "address",
          "name": "token",
          "type": "address"
        },
        {
          "internalType": "uint256",
          "name": "amount",
          "type": "uint256"
        }
      ],
      "name": "ActiveDebt",
      "type": "error"
    },
    {
      "inputs": [
        {
          "internalType": "bytes32",
          "name": "result",
          "type": "bytes32"
        }
      ],
      "name": "FlashLenderCallbackFailed",
      "type": "error"
    },
    {
      "inputs": [
        {
          "internalType": "uint256",
          "name": "i",
          "type": "uint256"
        }
      ],
      "name": "InvalidSignature",
      "type": "error"
    },
    {
      "inputs": [
        {
          "internalType": "uint256",
          "name": "minimumInput",
          "type": "uint256"
        },
        {
          "internalType": "uint256",
          "name": "input",
          "type": "uint256"
        }
      ],
      "name": "MinimumInput",
      "type": "error"
    },
    {
      "inputs": [
        {
          "internalType": "address",
          "name": "sender",
          "type": "address"
        },
        {
          "internalType": "address",
          "name": "owner",
          "type": "address"
        }
      ],
      "name": "NotOrderOwner",
      "type": "error"
    },
    {
      "inputs": [
        {
          "internalType": "bytes",
          "name": "unmeta",
          "type": "bytes"
        }
      ],
      "name": "NotRainMetaV1",
      "type": "error"
    },
    {
      "inputs": [
        {
          "internalType": "address",
          "name": "owner",
          "type": "address"
        }
      ],
      "name": "SameOwner",
      "type": "error"
    },
    {
      "inputs": [
        {
          "internalType": "address",
          "name": "aliceToken",
          "type": "address"
        },
        {
          "internalType": "address",
          "name": "bobToken",
          "type": "address"
        }
      ],
      "name": "TokenMismatch",
      "type": "error"
    },
    {
      "inputs": [
        {
          "internalType": "bytes32",
          "name": "expectedHash",
          "type": "bytes32"
        },
        {
          "internalType": "bytes32",
          "name": "actualHash",
          "type": "bytes32"
        }
      ],
      "name": "UnexpectedMetaHash",
      "type": "error"
    },
    {
      "inputs": [],
      "name": "ZeroReceiver",
      "type": "error"
    },
    {
      "inputs": [],
      "name": "ZeroToken",
      "type": "error"
    },
    {
      "anonymous": false,
      "inputs": [
        {
          "indexed": false,
          "internalType": "address",
          "name": "sender",
          "type": "address"
        },
        {
          "indexed": false,
          "internalType": "contract IExpressionDeployerV1",
          "name": "expressionDeployer",
          "type": "address"
        },
        {
          "components": [
            {
              "internalType": "address",
              "name": "owner",
              "type": "address"
            },
            {
              "internalType": "bool",
              "name": "handleIO",
              "type": "bool"
            },
            {
              "components": [
                {
                  "internalType": "contract IInterpreterV1",
                  "name": "interpreter",
                  "type": "address"
                },
                {
                  "internalType": "contract IInterpreterStoreV1",
                  "name": "store",
                  "type": "address"
                },
                {
                  "internalType": "address",
                  "name": "expression",
                  "type": "address"
                }
              ],
              "internalType": "struct Evaluable",
              "name": "evaluable",
              "type": "tuple"
            },
            {
              "components": [
                {
                  "internalType": "address",
                  "name": "token",
                  "type": "address"
                },
                {
                  "internalType": "uint8",
                  "name": "decimals",
                  "type": "uint8"
                },
                {
                  "internalType": "uint256",
                  "name": "vaultId",
                  "type": "uint256"
                }
              ],
              "internalType": "struct IO[]",
              "name": "validInputs",
              "type": "tuple[]"
            },
            {
              "components": [
                {
                  "internalType": "address",
                  "name": "token",
                  "type": "address"
                },
                {
                  "internalType": "uint8",
                  "name": "decimals",
                  "type": "uint8"
                },
                {
                  "internalType": "uint256",
                  "name": "vaultId",
                  "type": "uint256"
                }
              ],
              "internalType": "struct IO[]",
              "name": "validOutputs",
              "type": "tuple[]"
            }
          ],
          "indexed": false,
          "internalType": "struct Order",
          "name": "order",
          "type": "tuple"
        },
        {
          "indexed": false,
          "internalType": "uint256",
          "name": "orderHash",
          "type": "uint256"
        }
      ],
      "name": "AddOrder",
      "type": "event"
    },
    {
      "anonymous": false,
      "inputs": [
        {
          "indexed": false,
          "internalType": "address",
          "name": "sender",
          "type": "address"
        },
        {
          "components": [
            {
              "internalType": "uint256",
              "name": "aliceOutput",
              "type": "uint256"
            },
            {
              "internalType": "uint256",
              "name": "bobOutput",
              "type": "uint256"
            },
            {
              "internalType": "uint256",
              "name": "aliceInput",
              "type": "uint256"
            },
            {
              "internalType": "uint256",
              "name": "bobInput",
              "type": "uint256"
            }
          ],
          "indexed": false,
          "internalType": "struct ClearStateChange",
          "name": "clearStateChange",
          "type": "tuple"
        }
      ],
      "name": "AfterClear",
      "type": "event"
    },
    {
      "anonymous": false,
      "inputs": [
        {
          "indexed": false,
          "internalType": "address",
          "name": "sender",
          "type": "address"
        },
        {
          "components": [
            {
              "internalType": "address",
              "name": "owner",
              "type": "address"
            },
            {
              "internalType": "bool",
              "name": "handleIO",
              "type": "bool"
            },
            {
              "components": [
                {
                  "internalType": "contract IInterpreterV1",
                  "name": "interpreter",
                  "type": "address"
                },
                {
                  "internalType": "contract IInterpreterStoreV1",
                  "name": "store",
                  "type": "address"
                },
                {
                  "internalType": "address",
                  "name": "expression",
                  "type": "address"
                }
              ],
              "internalType": "struct Evaluable",
              "name": "evaluable",
              "type": "tuple"
            },
            {
              "components": [
                {
                  "internalType": "address",
                  "name": "token",
                  "type": "address"
                },
                {
                  "internalType": "uint8",
                  "name": "decimals",
                  "type": "uint8"
                },
                {
                  "internalType": "uint256",
                  "name": "vaultId",
                  "type": "uint256"
                }
              ],
              "internalType": "struct IO[]",
              "name": "validInputs",
              "type": "tuple[]"
            },
            {
              "components": [
                {
                  "internalType": "address",
                  "name": "token",
                  "type": "address"
                },
                {
                  "internalType": "uint8",
                  "name": "decimals",
                  "type": "uint8"
                },
                {
                  "internalType": "uint256",
                  "name": "vaultId",
                  "type": "uint256"
                }
              ],
              "internalType": "struct IO[]",
              "name": "validOutputs",
              "type": "tuple[]"
            }
          ],
          "indexed": false,
          "internalType": "struct Order",
          "name": "alice",
          "type": "tuple"
        },
        {
          "components": [
            {
              "internalType": "address",
              "name": "owner",
              "type": "address"
            },
            {
              "internalType": "bool",
              "name": "handleIO",
              "type": "bool"
            },
            {
              "components": [
                {
                  "internalType": "contract IInterpreterV1",
                  "name": "interpreter",
                  "type": "address"
                },
                {
                  "internalType": "contract IInterpreterStoreV1",
                  "name": "store",
                  "type": "address"
                },
                {
                  "internalType": "address",
                  "name": "expression",
                  "type": "address"
                }
              ],
              "internalType": "struct Evaluable",
              "name": "evaluable",
              "type": "tuple"
            },
            {
              "components": [
                {
                  "internalType": "address",
                  "name": "token",
                  "type": "address"
                },
                {
                  "internalType": "uint8",
                  "name": "decimals",
                  "type": "uint8"
                },
                {
                  "internalType": "uint256",
                  "name": "vaultId",
                  "type": "uint256"
                }
              ],
              "internalType": "struct IO[]",
              "name": "validInputs",
              "type": "tuple[]"
            },
            {
              "components": [
                {
                  "internalType": "address",
                  "name": "token",
                  "type": "address"
                },
                {
                  "internalType": "uint8",
                  "name": "decimals",
                  "type": "uint8"
                },
                {
                  "internalType": "uint256",
                  "name": "vaultId",
                  "type": "uint256"
                }
              ],
              "internalType": "struct IO[]",
              "name": "validOutputs",
              "type": "tuple[]"
            }
          ],
          "indexed": false,
          "internalType": "struct Order",
          "name": "bob",
          "type": "tuple"
        },
        {
          "components": [
            {
              "internalType": "uint256",
              "name": "aliceInputIOIndex",
              "type": "uint256"
            },
            {
              "internalType": "uint256",
              "name": "aliceOutputIOIndex",
              "type": "uint256"
            },
            {
              "internalType": "uint256",
              "name": "bobInputIOIndex",
              "type": "uint256"
            },
            {
              "internalType": "uint256",
              "name": "bobOutputIOIndex",
              "type": "uint256"
            },
            {
              "internalType": "uint256",
              "name": "aliceBountyVaultId",
              "type": "uint256"
            },
            {
              "internalType": "uint256",
              "name": "bobBountyVaultId",
              "type": "uint256"
            }
          ],
          "indexed": false,
          "internalType": "struct ClearConfig",
          "name": "clearConfig",
          "type": "tuple"
        }
      ],
      "name": "Clear",
      "type": "event"
    },
    {
      "anonymous": false,
      "inputs": [
        {
          "indexed": false,
          "internalType": "address",
          "name": "sender",
          "type": "address"
        },
        {
          "indexed": false,
          "internalType": "uint256[][]",
          "name": "context",
          "type": "uint256[][]"
        }
      ],
      "name": "Context",
      "type": "event"
    },
    {
      "anonymous": false,
      "inputs": [
        {
          "indexed": false,
          "internalType": "address",
          "name": "sender",
          "type": "address"
        },
        {
          "components": [
            {
              "internalType": "address",
              "name": "token",
              "type": "address"
            },
            {
              "internalType": "uint256",
              "name": "vaultId",
              "type": "uint256"
            },
            {
              "internalType": "uint256",
              "name": "amount",
              "type": "uint256"
            }
          ],
          "indexed": false,
          "internalType": "struct DepositConfig",
          "name": "config",
          "type": "tuple"
        }
      ],
      "name": "Deposit",
      "type": "event"
    },
    {
      "anonymous": false,
      "inputs": [
        {
          "indexed": false,
          "internalType": "address",
          "name": "sender",
          "type": "address"
        },
        {
          "indexed": false,
          "internalType": "uint256",
          "name": "subject",
          "type": "uint256"
        },
        {
          "indexed": false,
          "internalType": "bytes",
          "name": "meta",
          "type": "bytes"
        }
      ],
      "name": "MetaV1",
      "type": "event"
    },
    {
      "anonymous": false,
      "inputs": [
        {
          "indexed": false,
          "internalType": "address",
          "name": "sender",
          "type": "address"
        },
        {
          "indexed": false,
          "internalType": "address",
          "name": "owner",
          "type": "address"
        },
        {
          "indexed": false,
          "internalType": "uint256",
          "name": "orderHash",
          "type": "uint256"
        }
      ],
      "name": "OrderExceedsMaxRatio",
      "type": "event"
    },
    {
      "anonymous": false,
      "inputs": [
        {
          "indexed": false,
          "internalType": "address",
          "name": "sender",
          "type": "address"
        },
        {
          "indexed": false,
          "internalType": "address",
          "name": "owner",
          "type": "address"
        },
        {
          "indexed": false,
          "internalType": "uint256",
          "name": "orderHash",
          "type": "uint256"
        }
      ],
      "name": "OrderNotFound",
      "type": "event"
    },
    {
      "anonymous": false,
      "inputs": [
        {
          "indexed": false,
          "internalType": "address",
          "name": "sender",
          "type": "address"
        },
        {
          "indexed": false,
          "internalType": "address",
          "name": "owner",
          "type": "address"
        },
        {
          "indexed": false,
          "internalType": "uint256",
          "name": "orderHash",
          "type": "uint256"
        }
      ],
      "name": "OrderZeroAmount",
      "type": "event"
    },
    {
      "anonymous": false,
      "inputs": [
        {
          "indexed": false,
          "internalType": "address",
          "name": "sender",
          "type": "address"
        },
        {
          "components": [
            {
              "internalType": "address",
              "name": "owner",
              "type": "address"
            },
            {
              "internalType": "bool",
              "name": "handleIO",
              "type": "bool"
            },
            {
              "components": [
                {
                  "internalType": "contract IInterpreterV1",
                  "name": "interpreter",
                  "type": "address"
                },
                {
                  "internalType": "contract IInterpreterStoreV1",
                  "name": "store",
                  "type": "address"
                },
                {
                  "internalType": "address",
                  "name": "expression",
                  "type": "address"
                }
              ],
              "internalType": "struct Evaluable",
              "name": "evaluable",
              "type": "tuple"
            },
            {
              "components": [
                {
                  "internalType": "address",
                  "name": "token",
                  "type": "address"
                },
                {
                  "internalType": "uint8",
                  "name": "decimals",
                  "type": "uint8"
                },
                {
                  "internalType": "uint256",
                  "name": "vaultId",
                  "type": "uint256"
                }
              ],
              "internalType": "struct IO[]",
              "name": "validInputs",
              "type": "tuple[]"
            },
            {
              "components": [
                {
                  "internalType": "address",
                  "name": "token",
                  "type": "address"
                },
                {
                  "internalType": "uint8",
                  "name": "decimals",
                  "type": "uint8"
                },
                {
                  "internalType": "uint256",
                  "name": "vaultId",
                  "type": "uint256"
                }
              ],
              "internalType": "struct IO[]",
              "name": "validOutputs",
              "type": "tuple[]"
            }
          ],
          "indexed": false,
          "internalType": "struct Order",
          "name": "order",
          "type": "tuple"
        },
        {
          "indexed": false,
          "internalType": "uint256",
          "name": "orderHash",
          "type": "uint256"
        }
      ],
      "name": "RemoveOrder",
      "type": "event"
    },
    {
      "anonymous": false,
      "inputs": [
        {
          "indexed": false,
          "internalType": "address",
          "name": "sender",
          "type": "address"
        },
        {
          "components": [
            {
              "components": [
                {
                  "internalType": "address",
                  "name": "owner",
                  "type": "address"
                },
                {
                  "internalType": "bool",
                  "name": "handleIO",
                  "type": "bool"
                },
                {
                  "components": [
                    {
                      "internalType": "contract IInterpreterV1",
                      "name": "interpreter",
                      "type": "address"
                    },
                    {
                      "internalType": "contract IInterpreterStoreV1",
                      "name": "store",
                      "type": "address"
                    },
                    {
                      "internalType": "address",
                      "name": "expression",
                      "type": "address"
                    }
                  ],
                  "internalType": "struct Evaluable",
                  "name": "evaluable",
                  "type": "tuple"
                },
                {
                  "components": [
                    {
                      "internalType": "address",
                      "name": "token",
                      "type": "address"
                    },
                    {
                      "internalType": "uint8",
                      "name": "decimals",
                      "type": "uint8"
                    },
                    {
                      "internalType": "uint256",
                      "name": "vaultId",
                      "type": "uint256"
                    }
                  ],
                  "internalType": "struct IO[]",
                  "name": "validInputs",
                  "type": "tuple[]"
                },
                {
                  "components": [
                    {
                      "internalType": "address",
                      "name": "token",
                      "type": "address"
                    },
                    {
                      "internalType": "uint8",
                      "name": "decimals",
                      "type": "uint8"
                    },
                    {
                      "internalType": "uint256",
                      "name": "vaultId",
                      "type": "uint256"
                    }
                  ],
                  "internalType": "struct IO[]",
                  "name": "validOutputs",
                  "type": "tuple[]"
                }
              ],
              "internalType": "struct Order",
              "name": "order",
              "type": "tuple"
            },
            {
              "internalType": "uint256",
              "name": "inputIOIndex",
              "type": "uint256"
            },
            {
              "internalType": "uint256",
              "name": "outputIOIndex",
              "type": "uint256"
            },
            {
              "components": [
                {
                  "internalType": "address",
                  "name": "signer",
                  "type": "address"
                },
                {
                  "internalType": "uint256[]",
                  "name": "context",
                  "type": "uint256[]"
                },
                {
                  "internalType": "bytes",
                  "name": "signature",
                  "type": "bytes"
                }
              ],
              "internalType": "struct SignedContextV1[]",
              "name": "signedContext",
              "type": "tuple[]"
            }
          ],
          "indexed": false,
          "internalType": "struct TakeOrderConfig",
          "name": "config",
          "type": "tuple"
        },
        {
          "indexed": false,
          "internalType": "uint256",
          "name": "input",
          "type": "uint256"
        },
        {
          "indexed": false,
          "internalType": "uint256",
          "name": "output",
          "type": "uint256"
        }
      ],
      "name": "TakeOrder",
      "type": "event"
    },
    {
      "anonymous": false,
      "inputs": [
        {
          "indexed": false,
          "internalType": "address",
          "name": "sender",
          "type": "address"
        },
        {
          "components": [
            {
              "internalType": "address",
              "name": "token",
              "type": "address"
            },
            {
              "internalType": "uint256",
              "name": "vaultId",
              "type": "uint256"
            },
            {
              "internalType": "uint256",
              "name": "amount",
              "type": "uint256"
            }
          ],
          "indexed": false,
          "internalType": "struct WithdrawConfig",
          "name": "config",
          "type": "tuple"
        },
        {
          "indexed": false,
          "internalType": "uint256",
          "name": "amount",
          "type": "uint256"
        }
      ],
      "name": "Withdraw",
      "type": "event"
    },
    {
      "inputs": [
        {
          "components": [
            {
              "components": [
                {
                  "internalType": "address",
                  "name": "token",
                  "type": "address"
                },
                {
                  "internalType": "uint8",
                  "name": "decimals",
                  "type": "uint8"
                },
                {
                  "internalType": "uint256",
                  "name": "vaultId",
                  "type": "uint256"
                }
              ],
              "internalType": "struct IO[]",
              "name": "validInputs",
              "type": "tuple[]"
            },
            {
              "components": [
                {
                  "internalType": "address",
                  "name": "token",
                  "type": "address"
                },
                {
                  "internalType": "uint8",
                  "name": "decimals",
                  "type": "uint8"
                },
                {
                  "internalType": "uint256",
                  "name": "vaultId",
                  "type": "uint256"
                }
              ],
              "internalType": "struct IO[]",
              "name": "validOutputs",
              "type": "tuple[]"
            },
            {
              "components": [
                {
                  "internalType": "contract IExpressionDeployerV1",
                  "name": "deployer",
                  "type": "address"
                },
                {
                  "internalType": "bytes[]",
                  "name": "sources",
                  "type": "bytes[]"
                },
                {
                  "internalType": "uint256[]",
                  "name": "constants",
                  "type": "uint256[]"
                }
              ],
              "internalType": "struct EvaluableConfig",
              "name": "evaluableConfig",
              "type": "tuple"
            },
            {
              "internalType": "bytes",
              "name": "meta",
              "type": "bytes"
            }
          ],
          "internalType": "struct OrderConfig",
          "name": "config_",
          "type": "tuple"
        }
      ],
      "name": "addOrder",
      "outputs": [],
      "stateMutability": "nonpayable",
      "type": "function"
    },
    {
      "inputs": [
        {
          "components": [
            {
              "internalType": "address",
              "name": "owner",
              "type": "address"
            },
            {
              "internalType": "bool",
              "name": "handleIO",
              "type": "bool"
            },
            {
              "components": [
                {
                  "internalType": "contract IInterpreterV1",
                  "name": "interpreter",
                  "type": "address"
                },
                {
                  "internalType": "contract IInterpreterStoreV1",
                  "name": "store",
                  "type": "address"
                },
                {
                  "internalType": "address",
                  "name": "expression",
                  "type": "address"
                }
              ],
              "internalType": "struct Evaluable",
              "name": "evaluable",
              "type": "tuple"
            },
            {
              "components": [
                {
                  "internalType": "address",
                  "name": "token",
                  "type": "address"
                },
                {
                  "internalType": "uint8",
                  "name": "decimals",
                  "type": "uint8"
                },
                {
                  "internalType": "uint256",
                  "name": "vaultId",
                  "type": "uint256"
                }
              ],
              "internalType": "struct IO[]",
              "name": "validInputs",
              "type": "tuple[]"
            },
            {
              "components": [
                {
                  "internalType": "address",
                  "name": "token",
                  "type": "address"
                },
                {
                  "internalType": "uint8",
                  "name": "decimals",
                  "type": "uint8"
                },
                {
                  "internalType": "uint256",
                  "name": "vaultId",
                  "type": "uint256"
                }
              ],
              "internalType": "struct IO[]",
              "name": "validOutputs",
              "type": "tuple[]"
            }
          ],
          "internalType": "struct Order",
          "name": "alice_",
          "type": "tuple"
        },
        {
          "components": [
            {
              "internalType": "address",
              "name": "owner",
              "type": "address"
            },
            {
              "internalType": "bool",
              "name": "handleIO",
              "type": "bool"
            },
            {
              "components": [
                {
                  "internalType": "contract IInterpreterV1",
                  "name": "interpreter",
                  "type": "address"
                },
                {
                  "internalType": "contract IInterpreterStoreV1",
                  "name": "store",
                  "type": "address"
                },
                {
                  "internalType": "address",
                  "name": "expression",
                  "type": "address"
                }
              ],
              "internalType": "struct Evaluable",
              "name": "evaluable",
              "type": "tuple"
            },
            {
              "components": [
                {
                  "internalType": "address",
                  "name": "token",
                  "type": "address"
                },
                {
                  "internalType": "uint8",
                  "name": "decimals",
                  "type": "uint8"
                },
                {
                  "internalType": "uint256",
                  "name": "vaultId",
                  "type": "uint256"
                }
              ],
              "internalType": "struct IO[]",
              "name": "validInputs",
              "type": "tuple[]"
            },
            {
              "components": [
                {
                  "internalType": "address",
                  "name": "token",
                  "type": "address"
                },
                {
                  "internalType": "uint8",
                  "name": "decimals",
                  "type": "uint8"
                },
                {
                  "internalType": "uint256",
                  "name": "vaultId",
                  "type": "uint256"
                }
              ],
              "internalType": "struct IO[]",
              "name": "validOutputs",
              "type": "tuple[]"
            }
          ],
          "internalType": "struct Order",
          "name": "bob_",
          "type": "tuple"
        },
        {
          "components": [
            {
              "internalType": "uint256",
              "name": "aliceInputIOIndex",
              "type": "uint256"
            },
            {
              "internalType": "uint256",
              "name": "aliceOutputIOIndex",
              "type": "uint256"
            },
            {
              "internalType": "uint256",
              "name": "bobInputIOIndex",
              "type": "uint256"
            },
            {
              "internalType": "uint256",
              "name": "bobOutputIOIndex",
              "type": "uint256"
            },
            {
              "internalType": "uint256",
              "name": "aliceBountyVaultId",
              "type": "uint256"
            },
            {
              "internalType": "uint256",
              "name": "bobBountyVaultId",
              "type": "uint256"
            }
          ],
          "internalType": "struct ClearConfig",
          "name": "clearConfig_",
          "type": "tuple"
        },
        {
          "components": [
            {
              "internalType": "address",
              "name": "signer",
              "type": "address"
            },
            {
              "internalType": "uint256[]",
              "name": "context",
              "type": "uint256[]"
            },
            {
              "internalType": "bytes",
              "name": "signature",
              "type": "bytes"
            }
          ],
          "internalType": "struct SignedContextV1[]",
          "name": "aliceSignedContext_",
          "type": "tuple[]"
        },
        {
          "components": [
            {
              "internalType": "address",
              "name": "signer",
              "type": "address"
            },
            {
              "internalType": "uint256[]",
              "name": "context",
              "type": "uint256[]"
            },
            {
              "internalType": "bytes",
              "name": "signature",
              "type": "bytes"
            }
          ],
          "internalType": "struct SignedContextV1[]",
          "name": "bobSignedContext_",
          "type": "tuple[]"
        }
      ],
      "name": "clear",
      "outputs": [],
      "stateMutability": "nonpayable",
      "type": "function"
    },
    {
      "inputs": [
        {
          "components": [
            {
              "internalType": "address",
              "name": "token",
              "type": "address"
            },
            {
              "internalType": "uint256",
              "name": "vaultId",
              "type": "uint256"
            },
            {
              "internalType": "uint256",
              "name": "amount",
              "type": "uint256"
            }
          ],
          "internalType": "struct DepositConfig",
          "name": "config_",
          "type": "tuple"
        }
      ],
      "name": "deposit",
      "outputs": [],
      "stateMutability": "nonpayable",
      "type": "function"
    },
    {
      "inputs": [
        {
          "internalType": "address",
          "name": "",
          "type": "address"
        },
        {
          "internalType": "uint256",
          "name": "",
          "type": "uint256"
        }
      ],
      "name": "flashFee",
      "outputs": [
        {
          "internalType": "uint256",
          "name": "",
          "type": "uint256"
        }
      ],
      "stateMutability": "pure",
      "type": "function"
    },
    {
      "inputs": [
        {
          "internalType": "contract IERC3156FlashBorrower",
          "name": "receiver_",
          "type": "address"
        },
        {
          "internalType": "address",
          "name": "token_",
          "type": "address"
        },
        {
          "internalType": "uint256",
          "name": "amount_",
          "type": "uint256"
        },
        {
          "internalType": "bytes",
          "name": "data_",
          "type": "bytes"
        }
      ],
      "name": "flashLoan",
      "outputs": [
        {
          "internalType": "bool",
          "name": "",
          "type": "bool"
        }
      ],
      "stateMutability": "nonpayable",
      "type": "function"
    },
    {
      "inputs": [
        {
          "internalType": "address",
          "name": "token_",
          "type": "address"
        }
      ],
      "name": "maxFlashLoan",
      "outputs": [
        {
          "internalType": "uint256",
          "name": "",
          "type": "uint256"
        }
      ],
      "stateMutability": "view",
      "type": "function"
    },
    {
      "inputs": [
        {
          "internalType": "bytes[]",
          "name": "data",
          "type": "bytes[]"
        }
      ],
      "name": "multicall",
      "outputs": [
        {
          "internalType": "bytes[]",
          "name": "results",
          "type": "bytes[]"
        }
      ],
      "stateMutability": "nonpayable",
      "type": "function"
    },
    {
      "inputs": [
        {
          "components": [
            {
              "internalType": "address",
              "name": "owner",
              "type": "address"
            },
            {
              "internalType": "bool",
              "name": "handleIO",
              "type": "bool"
            },
            {
              "components": [
                {
                  "internalType": "contract IInterpreterV1",
                  "name": "interpreter",
                  "type": "address"
                },
                {
                  "internalType": "contract IInterpreterStoreV1",
                  "name": "store",
                  "type": "address"
                },
                {
                  "internalType": "address",
                  "name": "expression",
                  "type": "address"
                }
              ],
              "internalType": "struct Evaluable",
              "name": "evaluable",
              "type": "tuple"
            },
            {
              "components": [
                {
                  "internalType": "address",
                  "name": "token",
                  "type": "address"
                },
                {
                  "internalType": "uint8",
                  "name": "decimals",
                  "type": "uint8"
                },
                {
                  "internalType": "uint256",
                  "name": "vaultId",
                  "type": "uint256"
                }
              ],
              "internalType": "struct IO[]",
              "name": "validInputs",
              "type": "tuple[]"
            },
            {
              "components": [
                {
                  "internalType": "address",
                  "name": "token",
                  "type": "address"
                },
                {
                  "internalType": "uint8",
                  "name": "decimals",
                  "type": "uint8"
                },
                {
                  "internalType": "uint256",
                  "name": "vaultId",
                  "type": "uint256"
                }
              ],
              "internalType": "struct IO[]",
              "name": "validOutputs",
              "type": "tuple[]"
            }
          ],
          "internalType": "struct Order",
          "name": "order_",
          "type": "tuple"
        }
      ],
      "name": "removeOrder",
      "outputs": [],
      "stateMutability": "nonpayable",
      "type": "function"
    },
    {
      "inputs": [
        {
          "components": [
            {
              "internalType": "address",
              "name": "output",
              "type": "address"
            },
            {
              "internalType": "address",
              "name": "input",
              "type": "address"
            },
            {
              "internalType": "uint256",
              "name": "minimumInput",
              "type": "uint256"
            },
            {
              "internalType": "uint256",
              "name": "maximumInput",
              "type": "uint256"
            },
            {
              "internalType": "uint256",
              "name": "maximumIORatio",
              "type": "uint256"
            },
            {
              "components": [
                {
                  "components": [
                    {
                      "internalType": "address",
                      "name": "owner",
                      "type": "address"
                    },
                    {
                      "internalType": "bool",
                      "name": "handleIO",
                      "type": "bool"
                    },
                    {
                      "components": [
                        {
                          "internalType": "contract IInterpreterV1",
                          "name": "interpreter",
                          "type": "address"
                        },
                        {
                          "internalType": "contract IInterpreterStoreV1",
                          "name": "store",
                          "type": "address"
                        },
                        {
                          "internalType": "address",
                          "name": "expression",
                          "type": "address"
                        }
                      ],
                      "internalType": "struct Evaluable",
                      "name": "evaluable",
                      "type": "tuple"
                    },
                    {
                      "components": [
                        {
                          "internalType": "address",
                          "name": "token",
                          "type": "address"
                        },
                        {
                          "internalType": "uint8",
                          "name": "decimals",
                          "type": "uint8"
                        },
                        {
                          "internalType": "uint256",
                          "name": "vaultId",
                          "type": "uint256"
                        }
                      ],
                      "internalType": "struct IO[]",
                      "name": "validInputs",
                      "type": "tuple[]"
                    },
                    {
                      "components": [
                        {
                          "internalType": "address",
                          "name": "token",
                          "type": "address"
                        },
                        {
                          "internalType": "uint8",
                          "name": "decimals",
                          "type": "uint8"
                        },
                        {
                          "internalType": "uint256",
                          "name": "vaultId",
                          "type": "uint256"
                        }
                      ],
                      "internalType": "struct IO[]",
                      "name": "validOutputs",
                      "type": "tuple[]"
                    }
                  ],
                  "internalType": "struct Order",
                  "name": "order",
                  "type": "tuple"
                },
                {
                  "internalType": "uint256",
                  "name": "inputIOIndex",
                  "type": "uint256"
                },
                {
                  "internalType": "uint256",
                  "name": "outputIOIndex",
                  "type": "uint256"
                },
                {
                  "components": [
                    {
                      "internalType": "address",
                      "name": "signer",
                      "type": "address"
                    },
                    {
                      "internalType": "uint256[]",
                      "name": "context",
                      "type": "uint256[]"
                    },
                    {
                      "internalType": "bytes",
                      "name": "signature",
                      "type": "bytes"
                    }
                  ],
                  "internalType": "struct SignedContextV1[]",
                  "name": "signedContext",
                  "type": "tuple[]"
                }
              ],
              "internalType": "struct TakeOrderConfig[]",
              "name": "orders",
              "type": "tuple[]"
            }
          ],
          "internalType": "struct TakeOrdersConfig",
          "name": "takeOrders_",
          "type": "tuple"
        }
      ],
      "name": "takeOrders",
      "outputs": [
        {
          "internalType": "uint256",
          "name": "totalInput_",
          "type": "uint256"
        },
        {
          "internalType": "uint256",
          "name": "totalOutput_",
          "type": "uint256"
        }
      ],
      "stateMutability": "nonpayable",
      "type": "function"
    },
    {
      "inputs": [
        {
          "internalType": "address",
          "name": "",
          "type": "address"
        },
        {
          "internalType": "address",
          "name": "",
          "type": "address"
        },
        {
          "internalType": "uint256",
          "name": "",
          "type": "uint256"
        }
      ],
      "name": "vaultBalance",
      "outputs": [
        {
          "internalType": "uint256",
          "name": "",
          "type": "uint256"
        }
      ],
      "stateMutability": "view",
      "type": "function"
    },
    {
      "inputs": [
        {
          "components": [
            {
              "internalType": "address",
              "name": "token",
              "type": "address"
            },
            {
              "internalType": "uint256",
              "name": "vaultId",
              "type": "uint256"
            },
            {
              "internalType": "uint256",
              "name": "amount",
              "type": "uint256"
            }
          ],
          "internalType": "struct WithdrawConfig",
          "name": "config_",
          "type": "tuple"
        }
      ],
      "name": "withdraw",
      "outputs": [],
      "stateMutability": "nonpayable",
      "type": "function"
    }
  ],
  "bytecode": {
    "object": "0x6080604052600180546001600160a01b031990811690915560028054909116905560006003553480156200003257600080fd5b50604051620055bc380380620055bc833981016040819052620000559162000323565b7f23f773c3618546fdcc07be06f9424910462a90bd2b919684a4b856afa40f138460001b8160016000819055506200009d8282602001516200010160201b620018661760201c565b60208101516040517fbea766d03fa1efd3f81cc8634d08320bc62bb0ed9234ac59bbaafa5893fb6b1391620000d6913391309162000431565b60405180910390a1620000f881600001516200014860201b620018be1760201c565b505050620005a3565b80516020820120828114620001385760405163074fe10f60e41b815260048101849052602481018290526044015b60405180910390fd5b620001438262000213565b505050565b60408051600080825260208201909252819081906001600160a01b03851690635511cb6790836200018a565b6060815260200190600190039081620001745790505b5060408051600080825260208201908152818301928390526001600160e01b031960e086901b16909252620001c4929160448201620004a0565b6060604051808303816000875af1158015620001e4573d6000803e3d6000fd5b505050506040513d601f19601f820116820180604052508101906200020a919062000533565b50505050505050565b6200021e8162000243565b620002405780604051630c89984b60e31b81526004016200012f919062000587565b50565b60006008825110156200025857506000919050565b50600801516001600160401b031667ff0a89c674ee78741490565b634e487b7160e01b600052604160045260246000fd5b604080519081016001600160401b0381118282101715620002ae57620002ae62000273565b60405290565b604051601f8201601f191681016001600160401b0381118282101715620002df57620002df62000273565b604052919050565b6001600160a01b03811681146200024057600080fd5b60005b838110156200031a57818101518382015260200162000300565b50506000910152565b600060208083850312156200033757600080fd5b82516001600160401b03808211156200034f57600080fd5b90840190604082870312156200036457600080fd5b6200036e62000289565b82516200037b81620002e7565b815282840151828111156200038f57600080fd5b80840193505086601f840112620003a557600080fd5b825182811115620003ba57620003ba62000273565b620003ce601f8201601f19168601620002b4565b92508083528785828601011115620003e557600080fd5b620003f681868501878701620002fd565b5092830152509392505050565b600081518084526200041d816020860160208601620002fd565b601f01601f19169290920160200192915050565b60018060a01b03841681528260208201526060604082015260006200045a606083018462000403565b95945050505050565b600081518084526020808501945080840160005b83811015620004955781518752958201959082019060010162000477565b509495945050505050565b6000606082016060835280865180835260808501915060808160051b8601019250602080890160005b83811015620004fb57607f19888703018552620004e886835162000403565b95509382019390820190600101620004c9565b50508584038187015250505062000513818662000463565b9050828103604084015262000529818562000463565b9695505050505050565b6000806000606084860312156200054957600080fd5b83516200055681620002e7565b60208501519093506200056981620002e7565b60408501519092506200057c81620002e7565b809150509250925092565b6020815260006200059c602083018462000403565b9392505050565b61500980620005b36000396000f3fe608060405234801561001057600080fd5b50600436106100c95760003560e01c80639e18968b11610081578063d9d98ce41161005b578063d9d98ce4146101cb578063e23746a3146101de578063e6b62636146101f157600080fd5b80639e18968b14610167578063ac9650d81461017a578063d97b2e481461019a57600080fd5b8063613255ab116100b2578063613255ab1461010b578063702766781461012c5780637a8048df1461013f57600080fd5b80634f266187146100ce5780635cffe9de146100e3575b600080fd5b6100e16100dc3660046137ef565b610204565b005b6100f66100f136600461382d565b610352565b60405190151581526020015b60405180910390f35b61011e6101193660046138cc565b610601565b604051908152602001610102565b6100e161013a3660046138e9565b6106ab565b61015261014d366004613936565b610a4e565b60408051928352602083019190915201610102565b6100e1610175366004613e3a565b610fb3565b61018d610188366004613efc565b611574565b6040516101029190614034565b61011e6101a8366004614047565b600560209081526000938452604080852082529284528284209052825290205481565b61011e6101d9366004614088565b6106a2565b6100e16101ec3660046140b4565b611669565b6100e16101ff3660046137ef565b61177e565b61020c6119a7565b336000908152600560209081526040822090829061022c908501856138cc565b73ffffffffffffffffffffffffffffffffffffffff168152602080820192909252604090810160009081208584013582529092528082205492506102739084013583611a1a565b905061027f818361411e565b3360009081526005602090815260408220919061029e908701876138cc565b73ffffffffffffffffffffffffffffffffffffffff1673ffffffffffffffffffffffffffffffffffffffff168152602001908152602001600020600085602001358152602001908152602001600020819055507f2538ccc7ad2a119a36f2e65c1e2fc908beef800cd59b5d6680db24de18e7847a33848360405161032493929190614169565b60405180910390a161034361033c60208501856138cc565b3383611a32565b505061034f6001600055565b50565b600061035c611ae0565b73ffffffffffffffffffffffffffffffffffffffff85166103a9576040517fad1991f500000000000000000000000000000000000000000000000000000000815260040160405180910390fd5b73ffffffffffffffffffffffffffffffffffffffff86166103f6576040517f6ba9ecd800000000000000000000000000000000000000000000000000000000815260040160405180910390fd5b6002805473ffffffffffffffffffffffffffffffffffffffff8088167fffffffffffffffffffffffff0000000000000000000000000000000000000000928316179092556001805492891692909116919091179055600384905583156104775761047773ffffffffffffffffffffffffffffffffffffffff86168786611b51565b6040517f23e30c8b00000000000000000000000000000000000000000000000000000000815260009073ffffffffffffffffffffffffffffffffffffffff8816906323e30c8b906104d69033908a908a9087908b908b906004016141ea565b6020604051808303816000875af11580156104f5573d6000803e3d6000fd5b505050506040513d601f19601f820116820180604052508101906105199190614230565b90507f439148f0bbc682ca079e46d6e2c2f0c1e3b820f1a291b069d8882abf8cf18dd9811461057c576040517f5b62c548000000000000000000000000000000000000000000000000000000008152600481018290526024015b60405180910390fd5b600354945084156105b8576001546002546105b29173ffffffffffffffffffffffffffffffffffffffff91821691163088611c25565b60006003555b600180547fffffffffffffffffffffffff00000000000000000000000000000000000000009081169091556002805490911690556105f4611ae0565b5060019695505050505050565b600061060b611c89565b6106a2576040517f70a0823100000000000000000000000000000000000000000000000000000000815230600482015273ffffffffffffffffffffffffffffffffffffffff8316906370a0823190602401602060405180830381865afa158015610679573d6000803e3d6000fd5b505050506040513d601f19601f8201168201806040525081019061069d9190614230565b6106a5565b60005b92915050565b6106b36119a7565b600080806106c46040850185614249565b6106d29060208101906138cc565b73ffffffffffffffffffffffffffffffffffffffff16635511cb676106fa6040870187614249565b610708906020810190614287565b6107156040890189614249565b610723906040810190614287565b6040805160028082526020820152600081830152606081019091526040518663ffffffff1660e01b815260040161075e959493929190614375565b6060604051808303816000875af115801561077d573d6000803e3d6000fd5b505050506040513d601f19601f820116820180604052508101906107a1919061446b565b92509250925060006040518060a001604052803373ffffffffffffffffffffffffffffffffffffffff16815260200160008780604001906107e29190614249565b6107f0906020810190614287565b6001818110610801576108016144b8565b905060200281019061081391906144e7565b919091118252506040805160608101825273ffffffffffffffffffffffffffffffffffffffff8089168252878116602083810191909152908716828401528301520161085f878061454c565b808060200260200160405190810160405280939291908181526020016000905b828210156108ab5761089c606083028601368190038101906145b3565b8152602001906001019061087f565b505050505081526020018680602001906108c5919061454c565b808060200260200160405190810160405280939291908181526020016000905b8282101561091157610902606083028601368190038101906145b3565b815260200190600101906108e5565b50505050508152509050600061092682611cda565b60008181526004602052604090819020600190559091507f73e46afa6205785bdaa1daaf8b6ccc71715ec06b3b4264f5a00fde98671c2fc690339061096d90890189614249565b61097b9060208101906138cc565b848460405161098d94939291906146b1565b60405180910390a160006109a460608801886144e7565b90501115610a3f576109f66109bc60608801886144e7565b8080601f016020809104026020016040519081016040528093929190818152602001838380828437600092019190915250611d2992505050565b7fbea766d03fa1efd3f81cc8634d08320bc62bb0ed9234ac59bbaafa5893fb6b133382610a2660608a018a6144e7565b604051610a3694939291906146fb565b60405180910390a15b505050505061034f6001600055565b600080610a596119a7565b6000610ac0604080516101208101825260006080820181815260a08301829052835160608082018652838252602080830185905282870185905260c086019290925260e0850181905261010085018190529184528301829052928201528181019190915290565b6040805160a08101825260008082526020808301829052835160608082018652838252918101839052808501929092529282015281810182905260808101829052908601355b610b1360a0880188614287565b905084108015610b235750600081115b15610efa57610b3560a0880188614287565b85818110610b4557610b456144b8565b9050602002810190610b579190614731565b610b6090614765565b805190935091506000610b7283611cda565b600081815260046020526040902054909150610be55782516040805133815273ffffffffffffffffffffffffffffffffffffffff909216602083015281018290527fe721f6888210c87666d3888f93b4139a86ab7757999ce54e268cba700d642a3b9060600160405180910390a1610eee565b610bf260208901896138cc565b73ffffffffffffffffffffffffffffffffffffffff168360600151856020015181518110610c2257610c226144b8565b60200260200101516000015173ffffffffffffffffffffffffffffffffffffffff1614610ccf578260600151846020015181518110610c6357610c636144b8565b6020908102919091018101515190610c7d908a018a6138cc565b6040517ff902523f00000000000000000000000000000000000000000000000000000000815273ffffffffffffffffffffffffffffffffffffffff928316600482015291166024820152604401610573565b610cdf6040890160208a016138cc565b73ffffffffffffffffffffffffffffffffffffffff168360800151856040015181518110610d0f57610d0f6144b8565b60200260200101516000015173ffffffffffffffffffffffffffffffffffffffff1614610d6f578260800151846040015181518110610d5057610d506144b8565b602002602001015160000151886020016020810190610c7d91906138cc565b6000610d8a8486602001518760400151338960600151611d6a565b9050886080013581602001511115610dfa5783516040805133815273ffffffffffffffffffffffffffffffffffffffff909216602083015281018390527f460c258f27efac20e56c4607a28003d235168e76997ffb7542637d26d45ea6d8906060015b60405180910390a1610eec565b8051600003610e585783516040805133815273ffffffffffffffffffffffffffffffffffffffff909216602083015281018390527f3ba461a0ffd1b6782d4817ae7be605cfb1bbb4fa503c0dd613b8e50f1dcafacd90606001610ded565b8051600090610e68908590611a1a565b90506000610e86836020015160018461246c9092919063ffffffff16565b9050610e92828661411e565b9450610e9e818a6147ff565b9850610eac8682848661248a565b7f219a030b7ae56e7bea2baab709a4a45dc174a1f85e57730e5cb395bc3296254233888484604051610ee19493929190614812565b60405180910390a150505b505b50600190930192610b06565b610f0881606089013561411e565b95508660400135861015610f5557604080517f45094d8800000000000000000000000000000000000000000000000000000000815290880135600482015260248101879052604401610573565b610f86333087610f6860208c018c6138cc565b73ffffffffffffffffffffffffffffffffffffffff16929190611c25565b610fa0610f996040890160208a016138cc565b3388611a32565b50505050610fae6001600055565b915091565b610fbb6119a7565b8351855173ffffffffffffffffffffffffffffffffffffffff91821691160361102b5784516040517f227e4ce900000000000000000000000000000000000000000000000000000000815273ffffffffffffffffffffffffffffffffffffffff9091166004820152602401610573565b8360600151836040013581518110611045576110456144b8565b60200260200101516000015173ffffffffffffffffffffffffffffffffffffffff168560800151846020013581518110611081576110816144b8565b60200260200101516000015173ffffffffffffffffffffffffffffffffffffffff16146111465784608001518360200135815181106110c2576110c26144b8565b60200260200101516000015184606001518460400135815181106110e8576110e86144b8565b6020908102919091010151516040517ff902523f00000000000000000000000000000000000000000000000000000000815273ffffffffffffffffffffffffffffffffffffffff928316600482015291166024820152604401610573565b60608501518051843590811061115e5761115e6144b8565b60200260200101516000015173ffffffffffffffffffffffffffffffffffffffff16846080015184606001358151811061119a5761119a6144b8565b60200260200101516000015173ffffffffffffffffffffffffffffffffffffffff16146111ff576060850151805184359081106111d9576111d96144b8565b60200260200101516000015184608001518460600135815181106110e8576110e86144b8565b60006004600061120e88611cda565b8152602001908152602001600020540361128d577fe721f6888210c87666d3888f93b4139a86ab7757999ce54e268cba700d642a3b33866000015161125288611cda565b6040805173ffffffffffffffffffffffffffffffffffffffff94851681529390921660208401529082015260600160405180910390a1611563565b60006004600061129c87611cda565b815260200190815260200160002054036112e0577fe721f6888210c87666d3888f93b4139a86ab7757999ce54e268cba700d642a3b33856000015161125287611cda565b7fd153812deb929a6e4378f6f8cf61d010470840bf2e736f43fb2275803958bfa2338686866040516113159493929190614942565b60405180910390a160006113388685600001358660200135886000015186611d6a565b9050600061135586866040013587606001358a6000015188611d6a565b905060006113638383612932565b905061137988826040015183600001518661248a565b61138d87826060015183602001518561248a565b606081015181516000916113a09161411e565b90506000826040015183602001516113b8919061411e565b9050811561145e57336000908152600560209081526040822060808d01518051869492938d01359081106113ee576113ee6144b8565b60200260200101516000015173ffffffffffffffffffffffffffffffffffffffff1673ffffffffffffffffffffffffffffffffffffffff16815260200190815260200160002060008a608001358152602001908152602001600020600082825461145891906147ff565b90915550505b80156115025733600090815260056020526040812060808b015180518493919060608d0135908110611492576114926144b8565b60200260200101516000015173ffffffffffffffffffffffffffffffffffffffff1673ffffffffffffffffffffffffffffffffffffffff16815260200190815260200160002060008a60a00135815260200190815260200160002060008282546114fc91906147ff565b90915550505b5050604080513381528251602080830191909152830151818301529082015160608083019190915282015160808201527f3f20e55919cca701abb2a40ab72542b25ea7eed63a50f979dd2cd3231e5f488d9060a00160405180910390a15050505b61156d6001600055565b5050505050565b60608167ffffffffffffffff81111561158f5761158f61396b565b6040519080825280602002602001820160405280156115c257816020015b60608152602001906001900390816115ad5790505b50905060005b8281101561166257611632308585848181106115e6576115e66144b8565b90506020028101906115f891906144e7565b8080601f016020809104026020016040519081016040528093929190818152602001838380828437600092019190915250612a0792505050565b828281518110611644576116446144b8565b6020026020010181905250808061165a906149cc565b9150506115c8565b5092915050565b6116716119a7565b61167e60208201826138cc565b73ffffffffffffffffffffffffffffffffffffffff163373ffffffffffffffffffffffffffffffffffffffff161461171057336116be60208301836138cc565b6040517f4702b91400000000000000000000000000000000000000000000000000000000815273ffffffffffffffffffffffffffffffffffffffff928316600482015291166024820152604401610573565b600061172361171e83614a04565b611cda565b60008181526004602052604080822091909155519091507fe2dd87ac53228b6f23feabcc7301fe64145f23cc3c3ed75e6cd07341ae7f22829061176b90339085908590614ae0565b60405180910390a15061034f6001600055565b6117866119a7565b7fadc7bd964a04a8a02261d33d2d09c6a7d9f539bc5eab77008e85fc6661ef123133826040516117b7929190614be5565b60405180910390a16117d633306040840135610f6860208601866138cc565b336000908152600560209081526040808320908401359290916117fb908501856138cc565b73ffffffffffffffffffffffffffffffffffffffff1673ffffffffffffffffffffffffffffffffffffffff168152602001908152602001600020600083602001358152602001908152602001600020600082825461185991906147ff565b9091555050600160005550565b805160208201208281146118b0576040517f74fe10f00000000000000000000000000000000000000000000000000000000081526004810184905260248101829052604401610573565b6118b982611d29565b505050565b604080516000808252602082019092528190819073ffffffffffffffffffffffffffffffffffffffff851690635511cb67908361190b565b60608152602001906001900390816118f65790505b5060408051600080825260208201908152818301928390527fffffffff0000000000000000000000000000000000000000000000000000000060e086901b1690925261195b929160448201614c0f565b6060604051808303816000875af115801561197a573d6000803e3d6000fd5b505050506040513d601f19601f8201168201806040525081019061199e919061446b565b50505050505050565b600260005403611a13576040517f08c379a000000000000000000000000000000000000000000000000000000000815260206004820152601f60248201527f5265656e7472616e637947756172643a207265656e7472616e742063616c6c006044820152606401610573565b6002600055565b6000818310611a295781611a2b565b825b9392505050565b60025473ffffffffffffffffffffffffffffffffffffffff8481169116148015611a76575060015473ffffffffffffffffffffffffffffffffffffffff8381169116145b15611ab9576000611a9260035483611a1a90919063ffffffff16565b9050611a9e818361411e565b91508060036000828254611ab2919061411e565b9091555050505b80156118b9576118b973ffffffffffffffffffffffffffffffffffffffff84168383611b51565b611ae8611c89565b15611b4f576001546002546003546040517f60817cfa00000000000000000000000000000000000000000000000000000000815273ffffffffffffffffffffffffffffffffffffffff93841660048201529290911660248301526044820152606401610573565b565b60405173ffffffffffffffffffffffffffffffffffffffff83166024820152604481018290526118b99084907fa9059cbb00000000000000000000000000000000000000000000000000000000906064015b604080517fffffffffffffffffffffffffffffffffffffffffffffffffffffffffffffffe08184030181529190526020810180517bffffffffffffffffffffffffffffffffffffffffffffffffffffffff167fffffffff0000000000000000000000000000000000000000000000000000000090931692909217909152612a2c565b60405173ffffffffffffffffffffffffffffffffffffffff80851660248301528316604482015260648101829052611c839085907f23b872dd0000000000000000000000000000000000000000000000000000000090608401611ba3565b50505050565b60015460009073ffffffffffffffffffffffffffffffffffffffff16151580611cc9575060025473ffffffffffffffffffffffffffffffffffffffff1615155b80611cd5575060035415155b905090565b600081604051602001611ced9190614c48565b604080517fffffffffffffffffffffffffffffffffffffffffffffffffffffffffffffffe0818403018152919052805160209091012092915050565b611d3281612b38565b61034f57806040517f644cc2580000000000000000000000000000000000000000000000000000000081526004016105739190614c5b565b611d9c6040518060a0016040528060008152602001600081526020016060815260200160008152602001606081525090565b6000611da787611cda565b60408051600480825260a08201909252919250606091600091816020015b6060815260200190600190039081611dc557905050895160408051600381526020810187905273ffffffffffffffffffffffffffffffffffffffff928316818301529189166060830152608082019052909150816001800381518110611e2d57611e2d6144b8565b6020026020010181905250611fc289606001518981518110611e5157611e516144b8565b60200260200101516000015173ffffffffffffffffffffffffffffffffffffffff168a606001518a81518110611e8957611e896144b8565b60200260200101516020015160ff168b606001518b81518110611eae57611eae6144b8565b602002602001015160400151600560008e6000015173ffffffffffffffffffffffffffffffffffffffff1673ffffffffffffffffffffffffffffffffffffffff16815260200190815260200160002060008e606001518e81518110611f1557611f156144b8565b60200260200101516000015173ffffffffffffffffffffffffffffffffffffffff1673ffffffffffffffffffffffffffffffffffffffff16815260200190815260200160002060008e606001518e81518110611f7357611f736144b8565b602002602001015160400151815260200190815260200160002054600060408051600581526020810196909652858101949094526060850192909252608084015260a083015260c08201905290565b81600160030381518110611fd857611fd86144b8565b602002602001018190525061211e89608001518881518110611ffc57611ffc6144b8565b60200260200101516000015173ffffffffffffffffffffffffffffffffffffffff168a608001518981518110612034576120346144b8565b60200260200101516020015160ff168b608001518a81518110612059576120596144b8565b602002602001015160400151600560008e6000015173ffffffffffffffffffffffffffffffffffffffff1673ffffffffffffffffffffffffffffffffffffffff16815260200190815260200160002060008e608001518d815181106120c0576120c06144b8565b60200260200101516000015173ffffffffffffffffffffffffffffffffffffffff1673ffffffffffffffffffffffffffffffffffffffff16815260200190815260200160002060008e608001518d81518110611f7357611f736144b8565b81600160040381518110612134576121346144b8565b60200260200101819052506121498186612b68565b9150506000886000015173ffffffffffffffffffffffffffffffffffffffff1690506000808a604001516000015173ffffffffffffffffffffffffffffffffffffffff16636715f8258c6040015160200151856121ad8f6040015160400151612e98565b886040518563ffffffff1660e01b81526004016121cd9493929190614cb6565b600060405180830381865afa1580156121ea573d6000803e3d6000fd5b505050506040513d6000823e601f3d9081017fffffffffffffffffffffffffffffffffffffffffffffffffffffffffffffffe01682016040526122309190810190614d4c565b9150915060008260028451038151811061224c5761224c6144b8565b6020026020010151905060008360018551038151811061226e5761226e6144b8565b602002602001015190506122b28d608001518c81518110612291576122916144b8565b60200260200101516020015160ff16600284612ec19092919063ffffffff16565b915061230e8d608001518c815181106122cd576122cd6144b8565b6020026020010151602001518e606001518e815181106122ef576122ef6144b8565b602002602001015160200151600184612f46909392919063ffffffff16565b90506123f6600560008f6000015173ffffffffffffffffffffffffffffffffffffffff1673ffffffffffffffffffffffffffffffffffffffff16815260200190815260200160002060008f608001518e8151811061236e5761236e6144b8565b60200260200101516000015173ffffffffffffffffffffffffffffffffffffffff1673ffffffffffffffffffffffffffffffffffffffff16815260200190815260200160002060008f608001518e815181106123cc576123cc6144b8565b60200260200101516040015181526020019081526020016000205483611a1a90919063ffffffff16565b6040805160028152602081018390528082018490526060810190915290925086600281518110612428576124286144b8565b60200260200101819052506040518060a001604052808381526020018281526020018781526020018681526020018481525097505050505050505095945050505050565b60006124828484670de0b6b3a764000085612fc1565b949350505050565b8281604001516003815181106124a2576124a26144b8565b60200260200101516004815181106124bc576124bc6144b8565b6020026020010181815250508181604001516004815181106124e0576124e06144b8565b60200260200101516004815181106124fa576124fa6144b8565b6020908102919091010152821561260757835173ffffffffffffffffffffffffffffffffffffffff1660009081526005602052604080822090830151805186939190600390811061254d5761254d6144b8565b6020026020010151600081518110612567576125676144b8565b602002602001015173ffffffffffffffffffffffffffffffffffffffff1673ffffffffffffffffffffffffffffffffffffffff168152602001908152602001600020600083604001516003815181106125c2576125c26144b8565b60200260200101516002815181106125dc576125dc6144b8565b60200260200101518152602001908152602001600020600082825461260191906147ff565b90915550505b811561270957835173ffffffffffffffffffffffffffffffffffffffff1660009081526005602052604080822090830151805185939190600490811061264f5761264f6144b8565b6020026020010151600081518110612669576126696144b8565b602002602001015173ffffffffffffffffffffffffffffffffffffffff1673ffffffffffffffffffffffffffffffffffffffff168152602001908152602001600020600083604001516004815181106126c4576126c46144b8565b60200260200101516002815181106126de576126de6144b8565b602002602001015181526020019081526020016000206000828254612703919061411e565b90915550505b7f17a5c0f3785132a57703932032f6863e7920434150aa1dc940e567b440fdce1f33826040015160405161273e929190614db0565b60405180910390a1608081015151156127cf5783604001516020015173ffffffffffffffffffffffffffffffffffffffff1663946aadc6826060015183608001516040518363ffffffff1660e01b815260040161279c929190614ddf565b600060405180830381600087803b1580156127b657600080fd5b505af11580156127ca573d6000803e3d6000fd5b505050505b836020015115611c8357600084604001516000015173ffffffffffffffffffffffffffffffffffffffff16636715f825866040015160200151846060015161281e89604001516040015161301e565b86604001516040518563ffffffff1660e01b81526004016128429493929190614cb6565b600060405180830381865afa15801561285f573d6000803e3d6000fd5b505050506040513d6000823e601f3d9081017fffffffffffffffffffffffffffffffffffffffffffffffffffffffffffffffe01682016040526128a59190810190614d4c565b91505060008151111561156d5784604001516020015173ffffffffffffffffffffffffffffffffffffffff1663946aadc68360600151836040518363ffffffff1660e01b81526004016128f9929190614ddf565b600060405180830381600087803b15801561291357600080fd5b505af1158015612927573d6000803e3d6000fd5b505050505050505050565b61295d6040518060800160405280600081526020016000815260200160008152602001600081525090565b6129886040518060800160405280600081526020016000815260200160008152602001600081525090565b602083015183516129a79161299f9190600161246c565b855190611a1a565b8152602084015184516129c8916129c09190600161246c565b845190611a1a565b60208083019190915284015181516129e191600161246c565b6040820152602080840151908201516129fb91600161246c565b60608201529392505050565b6060611a2b8383604051806060016040528060278152602001614fe260279139613049565b6000612a8e826040518060400160405280602081526020017f5361666545524332303a206c6f772d6c6576656c2063616c6c206661696c65648152508573ffffffffffffffffffffffffffffffffffffffff166130ce9092919063ffffffff16565b8051909150156118b95780806020019051810190612aac9190614df8565b6118b9576040517f08c379a000000000000000000000000000000000000000000000000000000000815260206004820152602a60248201527f5361666545524332303a204552433230206f7065726174696f6e20646964206e60448201527f6f742073756363656564000000000000000000000000000000000000000000006064820152608401610573565b6000600882511015612b4c57506000919050565b506008015167ffffffffffffffff1667ff0a89c674ee78741490565b60606000825167ffffffffffffffff811115612b8657612b8661396b565b604051908082528060200260200182016040528015612baf578160200160208202803683370190505b509050600080845111612bc3576000612bc9565b83516001015b855160010101905060008167ffffffffffffffff811115612bec57612bec61396b565b604051908082528060200260200182016040528015612c1f57816020015b6060815260200190600190039081612c0a5790505b5090506000612c44604080516002815233602082015230818301526060810190915290565b828281518110612c5657612c566144b8565b602002602001018190525060005b8751811015612cb4578180600101925050878181518110612c8757612c876144b8565b6020026020010151838381518110612ca157612ca16144b8565b6020908102919091010152600101612c64565b50855115612e8e57808060010191505083828281518110612cd757612cd76144b8565b602002602001018190525060005b8651811015612e8c57612db6878281518110612d0357612d036144b8565b602002602001015160000151612d93612d408a8581518110612d2757612d276144b8565b6020026020010151602001518051602090810291012090565b6040517f19457468657265756d205369676e6564204d6573736167653a0a3332000000006020820152603c8101829052600090605c01604051602081830303815290604052805190602001209050919050565b898481518110612da557612da56144b8565b6020026020010151604001516130dd565b612def576040517f52bf984800000000000000000000000000000000000000000000000000000000815260048101829052602401610573565b868181518110612e0157612e016144b8565b60200260200101516000015173ffffffffffffffffffffffffffffffffffffffff16858281518110612e3557612e356144b8565b6020026020010181815250508180600101925050868181518110612e5b57612e5b6144b8565b602002602001015160200151838381518110612e7957612e796144b8565b6020908102919091010152600101612ce5565b505b5095945050505050565b6000602082901b77ffffffffffffffffffffffffffffffffffffffff00000000166002176106a5565b60008260121115612ef65760128390036001831615612eec57612ee485826132aa565b915050611a2b565b612ee485826132f8565b6012831115612f3f577fffffffffffffffffffffffffffffffffffffffffffffffffffffffffffffffee83016002831615612f3557612ee48582613324565b612ee485826133aa565b5082611a2b565b60008360ff168360ff161115612f84578383036002831615612f7757612f6f868260ff16613324565b915050612482565b612f6f868260ff166133aa565b8260ff168460ff161115612fb8578284036001831615612fab57612f6f868260ff166132aa565b612f6f868260ff166132f8565b50929392505050565b600080612fcf8686866133d9565b90506001836002811115612fe557612fe5614e15565b148015613002575060008480612ffd57612ffd614e44565b868809115b15613015576130126001826147ff565b90505b95945050505050565b600062010000602083901b77ffffffffffffffffffffffffffffffffffffffff0000000016176106a5565b60606000808573ffffffffffffffffffffffffffffffffffffffff16856040516130739190614e73565b600060405180830381855af49150503d80600081146130ae576040519150601f19603f3d011682016040523d82523d6000602084013e6130b3565b606091505b50915091506130c4868383876134a6565b9695505050505050565b60606124828484600085613546565b60008060006130ec858561365f565b9092509050600081600481111561310557613105614e15565b14801561313d57508573ffffffffffffffffffffffffffffffffffffffff168273ffffffffffffffffffffffffffffffffffffffff16145b1561314d57600192505050611a2b565b6000808773ffffffffffffffffffffffffffffffffffffffff16631626ba7e60e01b8888604051602401613182929190614e85565b604080517fffffffffffffffffffffffffffffffffffffffffffffffffffffffffffffffe08184030181529181526020820180517bffffffffffffffffffffffffffffffffffffffffffffffffffffffff167fffffffff0000000000000000000000000000000000000000000000000000000090941693909317909252905161320b9190614e73565b600060405180830381855afa9150503d8060008114613246576040519150601f19603f3d011682016040523d82523d6000602084013e61324b565b606091505b509150915081801561325e575080516020145b801561329e575080517f1626ba7e000000000000000000000000000000000000000000000000000000009061329c9083016020908101908401614230565b145b98975050505050505050565b6000604e82106132ce5782156132c15760016132c4565b60005b60ff1690506106a5565b600a82900a8084816132e2576132e2614e44565b0491508082028414611662575060010192915050565b6000604e82101561331b5781600a0a838161331557613315614e44565b04611a2b565b50600092915050565b6000604e821061336457821561335a577fffffffffffffffffffffffffffffffffffffffffffffffffffffffffffffffff61335d565b60005b90506106a5565b50600a81900a828102908381838161337e5761337e614e44565b0414611662577fffffffffffffffffffffffffffffffffffffffffffffffffffffffffffffffff612482565b600a81900a6133b98184614e9e565b9050604e82106106a557821561331b576133d482600a614fd5565b611a2b565b600080807fffffffffffffffffffffffffffffffffffffffffffffffffffffffffffffffff858709858702925082811083820303915050806000036134315783828161342757613427614e44565b0492505050611a2b565b80841161343d57600080fd5b60008486880960026001871981018816978890046003810283188082028403028082028403028082028403028082028403028082028403029081029092039091026000889003889004909101858311909403939093029303949094049190911702949350505050565b6060831561353c5782516000036135355773ffffffffffffffffffffffffffffffffffffffff85163b613535576040517f08c379a000000000000000000000000000000000000000000000000000000000815260206004820152601d60248201527f416464726573733a2063616c6c20746f206e6f6e2d636f6e74726163740000006044820152606401610573565b5081612482565b61248283836136a4565b6060824710156135d8576040517f08c379a000000000000000000000000000000000000000000000000000000000815260206004820152602660248201527f416464726573733a20696e73756666696369656e742062616c616e636520666f60448201527f722063616c6c00000000000000000000000000000000000000000000000000006064820152608401610573565b6000808673ffffffffffffffffffffffffffffffffffffffff1685876040516136019190614e73565b60006040518083038185875af1925050503d806000811461363e576040519150601f19603f3d011682016040523d82523d6000602084013e613643565b606091505b5091509150613654878383876134a6565b979650505050505050565b60008082516041036136955760208301516040840151606085015160001a613689878285856136e8565b9450945050505061369d565b506000905060025b9250929050565b8151156136b45781518083602001fd5b806040517f08c379a00000000000000000000000000000000000000000000000000000000081526004016105739190614c5b565b6000807f7fffffffffffffffffffffffffffffff5d576e7357a4501ddfe92f46681b20a083111561371f57506000905060036137ce565b6040805160008082526020820180845289905260ff881692820192909252606081018690526080810185905260019060a0016020604051602081039080840390855afa158015613773573d6000803e3d6000fd5b50506040517fffffffffffffffffffffffffffffffffffffffffffffffffffffffffffffffe0015191505073ffffffffffffffffffffffffffffffffffffffff81166137c7576000600192509250506137ce565b9150600090505b94509492505050565b6000606082840312156137e957600080fd5b50919050565b60006060828403121561380157600080fd5b611a2b83836137d7565b73ffffffffffffffffffffffffffffffffffffffff8116811461034f57600080fd5b60008060008060006080868803121561384557600080fd5b85356138508161380b565b945060208601356138608161380b565b935060408601359250606086013567ffffffffffffffff8082111561388457600080fd5b818801915088601f83011261389857600080fd5b8135818111156138a757600080fd5b8960208285010111156138b957600080fd5b9699959850939650602001949392505050565b6000602082840312156138de57600080fd5b8135611a2b8161380b565b6000602082840312156138fb57600080fd5b813567ffffffffffffffff81111561391257600080fd5b820160808185031215611a2b57600080fd5b600060c082840312156137e957600080fd5b60006020828403121561394857600080fd5b813567ffffffffffffffff81111561395f57600080fd5b61248284828501613924565b7f4e487b7100000000000000000000000000000000000000000000000000000000600052604160045260246000fd5b6040516060810167ffffffffffffffff811182821017156139bd576139bd61396b565b60405290565b604051601f82017fffffffffffffffffffffffffffffffffffffffffffffffffffffffffffffffe016810167ffffffffffffffff81118282101715613a0a57613a0a61396b565b604052919050565b801515811461034f57600080fd5b8035613a2b81613a12565b919050565b600060608284031215613a4257600080fd5b613a4a61399a565b90508135613a578161380b565b81526020820135613a678161380b565b60208201526040820135613a7a8161380b565b604082015292915050565b600067ffffffffffffffff821115613a9f57613a9f61396b565b5060051b60200190565b803560ff81168114613a2b57600080fd5b600060608284031215613acc57600080fd5b613ad461399a565b90508135613ae18161380b565b8152613aef60208301613aa9565b60208201526040820135604082015292915050565b600082601f830112613b1557600080fd5b81356020613b2a613b2583613a85565b6139c3565b82815260609283028501820192828201919087851115613b4957600080fd5b8387015b85811015613b6c57613b5f8982613aba565b8452928401928101613b4d565b5090979650505050505050565b600060e08284031215613b8b57600080fd5b60405160a0810167ffffffffffffffff8282108183111715613baf57613baf61396b565b8160405282935084359150613bc38261380b565b818352613bd260208601613a20565b6020840152613be48660408701613a30565b604084015260a0850135915080821115613bfd57600080fd5b613c0986838701613b04565b606084015260c0850135915080821115613c2257600080fd5b50613c2f85828601613b04565b6080830152505092915050565b600082601f830112613c4d57600080fd5b813567ffffffffffffffff811115613c6757613c6761396b565b613c9860207fffffffffffffffffffffffffffffffffffffffffffffffffffffffffffffffe0601f840116016139c3565b818152846020838601011115613cad57600080fd5b816020850160208301376000918101602001919091529392505050565b600082601f830112613cdb57600080fd5b81356020613ceb613b2583613a85565b82815260059290921b84018101918181019086841115613d0a57600080fd5b8286015b84811015613e2f57803567ffffffffffffffff80821115613d2e57600080fd5b908801906060828b037fffffffffffffffffffffffffffffffffffffffffffffffffffffffffffffffe0011215613d655760008081fd5b613d6d61399a565b86830135613d7a8161380b565b815260408381013583811115613d905760008081fd5b8401603f81018d13613da25760008081fd5b88810135613db2613b2582613a85565b81815260059190911b82018301908a8101908f831115613dd25760008081fd5b928401925b82841015613df05783358252928b0192908b0190613dd7565b858c0152505050606084013583811115613e0a5760008081fd5b613e188d8a83880101613c3c565b918301919091525085525050918301918301613d0e565b509695505050505050565b60008060008060006101408688031215613e5357600080fd5b853567ffffffffffffffff80821115613e6b57600080fd5b613e7789838a01613b79565b96506020880135915080821115613e8d57600080fd5b613e9989838a01613b79565b9550613ea88960408a01613924565b9450610100880135915080821115613ebf57600080fd5b613ecb89838a01613cca565b9350610120880135915080821115613ee257600080fd5b50613eef88828901613cca565b9150509295509295909350565b60008060208385031215613f0f57600080fd5b823567ffffffffffffffff80821115613f2757600080fd5b818501915085601f830112613f3b57600080fd5b813581811115613f4a57600080fd5b8660208260051b8501011115613f5f57600080fd5b60209290920196919550909350505050565b60005b83811015613f8c578181015183820152602001613f74565b50506000910152565b60008151808452613fad816020860160208601613f71565b601f017fffffffffffffffffffffffffffffffffffffffffffffffffffffffffffffffe0169290920160200192915050565b600081518084526020808501808196508360051b8101915082860160005b85811015614027578284038952614015848351613f95565b98850198935090840190600101613ffd565b5091979650505050505050565b602081526000611a2b6020830184613fdf565b60008060006060848603121561405c57600080fd5b83356140678161380b565b925060208401356140778161380b565b929592945050506040919091013590565b6000806040838503121561409b57600080fd5b82356140a68161380b565b946020939093013593505050565b6000602082840312156140c657600080fd5b813567ffffffffffffffff8111156140dd57600080fd5b820160e08185031215611a2b57600080fd5b7f4e487b7100000000000000000000000000000000000000000000000000000000600052601160045260246000fd5b818103818111156106a5576106a56140ef565b803561413c8161380b565b73ffffffffffffffffffffffffffffffffffffffff16825260208181013590830152604090810135910152565b73ffffffffffffffffffffffffffffffffffffffff8416815260a081016141936020830185614131565b826080830152949350505050565b8183528181602085013750600060208284010152600060207fffffffffffffffffffffffffffffffffffffffffffffffffffffffffffffffe0601f840116840101905092915050565b600073ffffffffffffffffffffffffffffffffffffffff808916835280881660208401525085604083015284606083015260a0608083015261329e60a0830184866141a1565b60006020828403121561424257600080fd5b5051919050565b600082357fffffffffffffffffffffffffffffffffffffffffffffffffffffffffffffffa183360301811261427d57600080fd5b9190910192915050565b60008083357fffffffffffffffffffffffffffffffffffffffffffffffffffffffffffffffe18436030181126142bc57600080fd5b83018035915067ffffffffffffffff8211156142d757600080fd5b6020019150600581901b360382131561369d57600080fd5b81835260007f07ffffffffffffffffffffffffffffffffffffffffffffffffffffffffffffff83111561432157600080fd5b8260051b80836020870137939093016020019392505050565b600081518084526020808501945080840160005b8381101561436a5781518752958201959082019060010161434e565b509495945050505050565b6060808252810185905260006080600587901b8301810190830188835b89811015614441577fffffffffffffffffffffffffffffffffffffffffffffffffffffffffffffff8086850301835281357fffffffffffffffffffffffffffffffffffffffffffffffffffffffffffffffe18c36030181126143f357600080fd5b8b01602081810191359067ffffffffffffffff82111561441257600080fd5b81360383131561442157600080fd5b61442c8783856141a1565b96509485019493909301925050600101614392565b50505082810360208401526144578186886142ef565b9050828103604084015261329e818561433a565b60008060006060848603121561448057600080fd5b835161448b8161380b565b602085015190935061449c8161380b565b60408501519092506144ad8161380b565b809150509250925092565b7f4e487b7100000000000000000000000000000000000000000000000000000000600052603260045260246000fd5b60008083357fffffffffffffffffffffffffffffffffffffffffffffffffffffffffffffffe184360301811261451c57600080fd5b83018035915067ffffffffffffffff82111561453757600080fd5b60200191503681900382131561369d57600080fd5b60008083357fffffffffffffffffffffffffffffffffffffffffffffffffffffffffffffffe184360301811261458157600080fd5b83018035915067ffffffffffffffff82111561459c57600080fd5b602001915060608102360382131561369d57600080fd5b6000606082840312156145c557600080fd5b611a2b8383613aba565b600081518084526020808501945080840160005b8381101561436a578151805173ffffffffffffffffffffffffffffffffffffffff1688528381015160ff168489015260409081015190880152606090960195908201906001016145e3565b600073ffffffffffffffffffffffffffffffffffffffff80835116845260208301511515602085015260408301518181511660408601528160208201511660608601528160408201511660808601525050606082015160e060a085015261469860e08501826145cf565b9050608083015184820360c086015261301582826145cf565b600073ffffffffffffffffffffffffffffffffffffffff8087168352808616602084015250608060408301526146ea608083018561462e565b905082606083015295945050505050565b73ffffffffffffffffffffffffffffffffffffffff851681528360208201526060604082015260006130c46060830184866141a1565b600082357fffffffffffffffffffffffffffffffffffffffffffffffffffffffffffffff8183360301811261427d57600080fd5b60006080823603121561477757600080fd5b6040516080810167ffffffffffffffff828210818311171561479b5761479b61396b565b8160405284359150808211156147b057600080fd5b6147bc36838701613b79565b8352602085013560208401526040850135604084015260608501359150808211156147e657600080fd5b506147f336828601613cca565b60608301525092915050565b808201808211156106a5576106a56140ef565b600073ffffffffffffffffffffffffffffffffffffffff80871683526020608081850152865160808086015261484c61010086018261462e565b90508188015160a086015260408089015160c08701526060808a01517fffffffffffffffffffffffffffffffffffffffffffffffffffffffffffffff808885030160e08901528381518086528686019150868160051b870101878401935060005b82811015614925577fffffffffffffffffffffffffffffffffffffffffffffffffffffffffffffffe088830301845284518a815116835289810151878b8501526148f98885018261433a565b91890151848303858b01529190506149118183613f95565b968b0196958b0195935050506001016148ad565b50948a019b909b5250509095019590955250919695505050505050565b600061012073ffffffffffffffffffffffffffffffffffffffff871683528060208401526149728184018761462e565b90508281036040840152614986818661462e565b9150508235606083015260208301356080830152604083013560a0830152606083013560c0830152608083013560e083015260a083013561010083015295945050505050565b60007fffffffffffffffffffffffffffffffffffffffffffffffffffffffffffffffff82036149fd576149fd6140ef565b5060010190565b60006106a53683613b79565b60008083357fffffffffffffffffffffffffffffffffffffffffffffffffffffffffffffffe1843603018112614a4557600080fd5b830160208101925035905067ffffffffffffffff811115614a6557600080fd5b60608102360382131561369d57600080fd5b8183526000602080850194508260005b8581101561436a578135614a9a8161380b565b73ffffffffffffffffffffffffffffffffffffffff16875260ff614abf838501613aa9565b16878401526040828101359088015260609687019690910190600101614a87565b600073ffffffffffffffffffffffffffffffffffffffff8086168352606060208401528435614b0e8161380b565b811660608401526020850135614b2381613a12565b151560808401526040850135614b388161380b565b811660a08401526060850135614b4d8161380b565b811660c08401526080850135614b628161380b565b1660e0830152614b7560a0850185614a10565b60e0610100850152614b8c61014085018284614a77565b915050614b9c60c0860186614a10565b7fffffffffffffffffffffffffffffffffffffffffffffffffffffffffffffffa085840301610120860152614bd2838284614a77565b9350505050826040830152949350505050565b73ffffffffffffffffffffffffffffffffffffffff8316815260808101611a2b6020830184614131565b606081526000614c226060830186613fdf565b8281036020840152614c34818661433a565b905082810360408401526130c4818561433a565b602081526000611a2b602083018461462e565b602081526000611a2b6020830184613f95565b600081518084526020808501808196508360051b8101915082860160005b85811015614027578284038952614ca484835161433a565b98850198935090840190600101614c8c565b73ffffffffffffffffffffffffffffffffffffffff851681528360208201528260408201526080606082015260006130c46080830184614c6e565b600082601f830112614d0257600080fd5b81516020614d12613b2583613a85565b82815260059290921b84018101918181019086841115614d3157600080fd5b8286015b84811015613e2f5780518352918301918301614d35565b60008060408385031215614d5f57600080fd5b825167ffffffffffffffff80821115614d7757600080fd5b614d8386838701614cf1565b93506020850151915080821115614d9957600080fd5b50614da685828601614cf1565b9150509250929050565b73ffffffffffffffffffffffffffffffffffffffff831681526040602082015260006124826040830184614c6e565b828152604060208201526000612482604083018461433a565b600060208284031215614e0a57600080fd5b8151611a2b81613a12565b7f4e487b7100000000000000000000000000000000000000000000000000000000600052602160045260246000fd5b7f4e487b7100000000000000000000000000000000000000000000000000000000600052601260045260246000fd5b6000825161427d818460208701613f71565b8281526040602082015260006124826040830184613f95565b80820281158282048414176106a5576106a56140ef565b600181815b80851115614f0e57817fffffffffffffffffffffffffffffffffffffffffffffffffffffffffffffffff04821115614ef457614ef46140ef565b80851615614f0157918102915b93841c9390800290614eba565b509250929050565b600082614f25575060016106a5565b81614f32575060006106a5565b8160018114614f485760028114614f5257614f6e565b60019150506106a5565b60ff841115614f6357614f636140ef565b50506001821b6106a5565b5060208310610133831016604e8410600b8410161715614f91575081810a6106a5565b614f9b8383614eb5565b807fffffffffffffffffffffffffffffffffffffffffffffffffffffffffffffffff04821115614fcd57614fcd6140ef565b029392505050565b6000611a2b8383614f1656fe416464726573733a206c6f772d6c6576656c2064656c65676174652063616c6c206661696c6564",
    "linkReferences": {}
  },
  "methodIdentifiers": {
    "addOrder(((address,uint8,uint256)[],(address,uint8,uint256)[],(address,bytes[],uint256[]),bytes))": "70276678",
    "clear((address,bool,(address,address,address),(address,uint8,uint256)[],(address,uint8,uint256)[]),(address,bool,(address,address,address),(address,uint8,uint256)[],(address,uint8,uint256)[]),(uint256,uint256,uint256,uint256,uint256,uint256),(address,uint256[],bytes)[],(address,uint256[],bytes)[])": "9e18968b",
    "deposit((address,uint256,uint256))": "e6b62636",
    "flashFee(address,uint256)": "d9d98ce4",
    "flashLoan(address,address,uint256,bytes)": "5cffe9de",
    "maxFlashLoan(address)": "613255ab",
    "multicall(bytes[])": "ac9650d8",
    "removeOrder((address,bool,(address,address,address),(address,uint8,uint256)[],(address,uint8,uint256)[]))": "e23746a3",
    "takeOrders((address,address,uint256,uint256,uint256,((address,bool,(address,address,address),(address,uint8,uint256)[],(address,uint8,uint256)[]),uint256,uint256,(address,uint256[],bytes)[])[]))": "7a8048df",
    "vaultBalance(address,address,uint256)": "d97b2e48",
    "withdraw((address,uint256,uint256))": "4f266187"
  },
  "id": 44
}