{
  "abi": [
    {
      "inputs": [
        {
          "components": [
            {
              "internalType": "address",
              "name": "deployer",
              "type": "address"
            },
            {
              "internalType": "bytes",
              "name": "meta",
              "type": "bytes"
            }
          ],
          "internalType": "struct DeployerDiscoverableMetaV2ConstructionConfig",
          "name": "config",
          "type": "tuple"
        }
      ],
      "stateMutability": "nonpayable",
      "type": "constructor"
    },
    {
      "inputs": [
        {
          "internalType": "address",
          "name": "receiver",
          "type": "address"
        },
        {
          "internalType": "address",
          "name": "token",
          "type": "address"
        },
        {
          "internalType": "uint256",
          "name": "amount",
          "type": "uint256"
        }
      ],
      "name": "ActiveDebt",
      "type": "error"
    },
    {
      "inputs": [
        {
          "internalType": "bytes32",
          "name": "result",
          "type": "bytes32"
        }
      ],
      "name": "FlashLenderCallbackFailed",
      "type": "error"
    },
    {
      "inputs": [
        {
          "internalType": "uint256",
          "name": "i",
          "type": "uint256"
        }
      ],
      "name": "InvalidSignature",
      "type": "error"
    },
    {
      "inputs": [
        {
          "internalType": "uint256",
          "name": "minimumInput",
          "type": "uint256"
        },
        {
          "internalType": "uint256",
          "name": "input",
          "type": "uint256"
        }
      ],
      "name": "MinimumInput",
      "type": "error"
    },
    {
      "inputs": [],
      "name": "NoOrders",
      "type": "error"
    },
    {
      "inputs": [
        {
          "internalType": "address",
          "name": "sender",
          "type": "address"
        },
        {
          "internalType": "address",
          "name": "owner",
          "type": "address"
        }
      ],
      "name": "NotOrderOwner",
      "type": "error"
    },
    {
      "inputs": [
        {
          "internalType": "bytes",
          "name": "unmeta",
          "type": "bytes"
        }
      ],
      "name": "NotRainMetaV1",
      "type": "error"
    },
    {
      "inputs": [
        {
          "internalType": "address",
          "name": "sender",
          "type": "address"
        }
      ],
      "name": "OrderNoHandleIO",
      "type": "error"
    },
    {
      "inputs": [
        {
          "internalType": "address",
          "name": "sender",
          "type": "address"
        }
      ],
      "name": "OrderNoInputs",
      "type": "error"
    },
    {
      "inputs": [
        {
          "internalType": "address",
          "name": "sender",
          "type": "address"
        }
      ],
      "name": "OrderNoOutputs",
      "type": "error"
    },
    {
      "inputs": [
        {
          "internalType": "address",
          "name": "sender",
          "type": "address"
        }
      ],
      "name": "OrderNoSources",
      "type": "error"
    },
    {
      "inputs": [],
      "name": "ReentrancyGuardReentrantCall",
      "type": "error"
    },
    {
      "inputs": [
        {
          "internalType": "address",
          "name": "owner",
          "type": "address"
        }
      ],
      "name": "SameOwner",
      "type": "error"
    },
    {
      "inputs": [
        {
          "internalType": "bytes",
          "name": "bytecode",
          "type": "bytes"
        },
        {
          "internalType": "uint256",
          "name": "sourceIndex",
          "type": "uint256"
        }
      ],
      "name": "SourceOffsetOutOfBounds",
      "type": "error"
    },
    {
      "inputs": [
        {
          "internalType": "uint8",
          "name": "aliceTokenDecimals",
          "type": "uint8"
        },
        {
          "internalType": "uint8",
          "name": "bobTokenDecimals",
          "type": "uint8"
        }
      ],
      "name": "TokenDecimalsMismatch",
      "type": "error"
    },
    {
      "inputs": [
        {
          "internalType": "address",
          "name": "aliceToken",
          "type": "address"
        },
        {
          "internalType": "address",
          "name": "bobToken",
          "type": "address"
        }
      ],
      "name": "TokenMismatch",
      "type": "error"
    },
    {
      "inputs": [
        {
          "internalType": "bytes32",
          "name": "expectedHash",
          "type": "bytes32"
        },
        {
          "internalType": "bytes32",
          "name": "actualHash",
          "type": "bytes32"
        }
      ],
      "name": "UnexpectedMetaHash",
      "type": "error"
    },
    {
      "inputs": [],
      "name": "ZeroAmount",
      "type": "error"
    },
    {
      "inputs": [
        {
          "internalType": "address",
          "name": "sender",
          "type": "address"
        },
        {
          "internalType": "address",
          "name": "token",
          "type": "address"
        },
        {
          "internalType": "uint256",
          "name": "vaultId",
          "type": "uint256"
        }
      ],
      "name": "ZeroDepositAmount",
      "type": "error"
    },
    {
      "inputs": [],
      "name": "ZeroReceiver",
      "type": "error"
    },
    {
      "inputs": [],
      "name": "ZeroToken",
      "type": "error"
    },
    {
      "inputs": [
        {
          "internalType": "address",
          "name": "sender",
          "type": "address"
        },
        {
          "internalType": "address",
          "name": "token",
          "type": "address"
        },
        {
          "internalType": "uint256",
          "name": "vaultId",
          "type": "uint256"
        }
      ],
      "name": "ZeroWithdrawTargetAmount",
      "type": "error"
    },
    {
      "anonymous": false,
      "inputs": [
        {
          "indexed": false,
          "internalType": "address",
          "name": "sender",
          "type": "address"
        },
        {
          "indexed": false,
          "internalType": "contract IExpressionDeployerV2",
          "name": "expressionDeployer",
          "type": "address"
        },
        {
          "components": [
            {
              "internalType": "address",
              "name": "owner",
              "type": "address"
            },
            {
              "internalType": "bool",
              "name": "handleIO",
              "type": "bool"
            },
            {
              "components": [
                {
                  "internalType": "contract IInterpreterV1",
                  "name": "interpreter",
                  "type": "address"
                },
                {
                  "internalType": "contract IInterpreterStoreV1",
                  "name": "store",
                  "type": "address"
                },
                {
                  "internalType": "address",
                  "name": "expression",
                  "type": "address"
                }
              ],
              "internalType": "struct Evaluable",
              "name": "evaluable",
              "type": "tuple"
            },
            {
              "components": [
                {
                  "internalType": "address",
                  "name": "token",
                  "type": "address"
                },
                {
                  "internalType": "uint8",
                  "name": "decimals",
                  "type": "uint8"
                },
                {
                  "internalType": "uint256",
                  "name": "vaultId",
                  "type": "uint256"
                }
              ],
              "internalType": "struct IO[]",
              "name": "validInputs",
              "type": "tuple[]"
            },
            {
              "components": [
                {
                  "internalType": "address",
                  "name": "token",
                  "type": "address"
                },
                {
                  "internalType": "uint8",
                  "name": "decimals",
                  "type": "uint8"
                },
                {
                  "internalType": "uint256",
                  "name": "vaultId",
                  "type": "uint256"
                }
              ],
              "internalType": "struct IO[]",
              "name": "validOutputs",
              "type": "tuple[]"
            }
          ],
          "indexed": false,
          "internalType": "struct Order",
          "name": "order",
          "type": "tuple"
        },
        {
          "indexed": false,
          "internalType": "bytes32",
          "name": "orderHash",
          "type": "bytes32"
        }
      ],
      "name": "AddOrder",
      "type": "event"
    },
    {
      "anonymous": false,
      "inputs": [
        {
          "indexed": false,
          "internalType": "address",
          "name": "sender",
          "type": "address"
        },
        {
          "components": [
            {
              "internalType": "uint256",
              "name": "aliceOutput",
              "type": "uint256"
            },
            {
              "internalType": "uint256",
              "name": "bobOutput",
              "type": "uint256"
            },
            {
              "internalType": "uint256",
              "name": "aliceInput",
              "type": "uint256"
            },
            {
              "internalType": "uint256",
              "name": "bobInput",
              "type": "uint256"
            }
          ],
          "indexed": false,
          "internalType": "struct ClearStateChange",
          "name": "clearStateChange",
          "type": "tuple"
        }
      ],
      "name": "AfterClear",
      "type": "event"
    },
    {
      "anonymous": false,
      "inputs": [
        {
          "indexed": false,
          "internalType": "address",
          "name": "sender",
          "type": "address"
        },
        {
          "components": [
            {
              "internalType": "address",
              "name": "owner",
              "type": "address"
            },
            {
              "internalType": "bool",
              "name": "handleIO",
              "type": "bool"
            },
            {
              "components": [
                {
                  "internalType": "contract IInterpreterV1",
                  "name": "interpreter",
                  "type": "address"
                },
                {
                  "internalType": "contract IInterpreterStoreV1",
                  "name": "store",
                  "type": "address"
                },
                {
                  "internalType": "address",
                  "name": "expression",
                  "type": "address"
                }
              ],
              "internalType": "struct Evaluable",
              "name": "evaluable",
              "type": "tuple"
            },
            {
              "components": [
                {
                  "internalType": "address",
                  "name": "token",
                  "type": "address"
                },
                {
                  "internalType": "uint8",
                  "name": "decimals",
                  "type": "uint8"
                },
                {
                  "internalType": "uint256",
                  "name": "vaultId",
                  "type": "uint256"
                }
              ],
              "internalType": "struct IO[]",
              "name": "validInputs",
              "type": "tuple[]"
            },
            {
              "components": [
                {
                  "internalType": "address",
                  "name": "token",
                  "type": "address"
                },
                {
                  "internalType": "uint8",
                  "name": "decimals",
                  "type": "uint8"
                },
                {
                  "internalType": "uint256",
                  "name": "vaultId",
                  "type": "uint256"
                }
              ],
              "internalType": "struct IO[]",
              "name": "validOutputs",
              "type": "tuple[]"
            }
          ],
          "indexed": false,
          "internalType": "struct Order",
          "name": "alice",
          "type": "tuple"
        },
        {
          "components": [
            {
              "internalType": "address",
              "name": "owner",
              "type": "address"
            },
            {
              "internalType": "bool",
              "name": "handleIO",
              "type": "bool"
            },
            {
              "components": [
                {
                  "internalType": "contract IInterpreterV1",
                  "name": "interpreter",
                  "type": "address"
                },
                {
                  "internalType": "contract IInterpreterStoreV1",
                  "name": "store",
                  "type": "address"
                },
                {
                  "internalType": "address",
                  "name": "expression",
                  "type": "address"
                }
              ],
              "internalType": "struct Evaluable",
              "name": "evaluable",
              "type": "tuple"
            },
            {
              "components": [
                {
                  "internalType": "address",
                  "name": "token",
                  "type": "address"
                },
                {
                  "internalType": "uint8",
                  "name": "decimals",
                  "type": "uint8"
                },
                {
                  "internalType": "uint256",
                  "name": "vaultId",
                  "type": "uint256"
                }
              ],
              "internalType": "struct IO[]",
              "name": "validInputs",
              "type": "tuple[]"
            },
            {
              "components": [
                {
                  "internalType": "address",
                  "name": "token",
                  "type": "address"
                },
                {
                  "internalType": "uint8",
                  "name": "decimals",
                  "type": "uint8"
                },
                {
                  "internalType": "uint256",
                  "name": "vaultId",
                  "type": "uint256"
                }
              ],
              "internalType": "struct IO[]",
              "name": "validOutputs",
              "type": "tuple[]"
            }
          ],
          "indexed": false,
          "internalType": "struct Order",
          "name": "bob",
          "type": "tuple"
        },
        {
          "components": [
            {
              "internalType": "uint256",
              "name": "aliceInputIOIndex",
              "type": "uint256"
            },
            {
              "internalType": "uint256",
              "name": "aliceOutputIOIndex",
              "type": "uint256"
            },
            {
              "internalType": "uint256",
              "name": "bobInputIOIndex",
              "type": "uint256"
            },
            {
              "internalType": "uint256",
              "name": "bobOutputIOIndex",
              "type": "uint256"
            },
            {
              "internalType": "uint256",
              "name": "aliceBountyVaultId",
              "type": "uint256"
            },
            {
              "internalType": "uint256",
              "name": "bobBountyVaultId",
              "type": "uint256"
            }
          ],
          "indexed": false,
          "internalType": "struct ClearConfig",
          "name": "clearConfig",
          "type": "tuple"
        }
      ],
      "name": "Clear",
      "type": "event"
    },
    {
      "anonymous": false,
      "inputs": [
        {
          "indexed": false,
          "internalType": "address",
          "name": "sender",
          "type": "address"
        },
        {
          "indexed": false,
          "internalType": "uint256[][]",
          "name": "context",
          "type": "uint256[][]"
        }
      ],
      "name": "Context",
      "type": "event"
    },
    {
      "anonymous": false,
      "inputs": [
        {
          "indexed": false,
          "internalType": "address",
          "name": "sender",
          "type": "address"
        },
        {
          "indexed": false,
          "internalType": "address",
          "name": "token",
          "type": "address"
        },
        {
          "indexed": false,
          "internalType": "uint256",
          "name": "vaultId",
          "type": "uint256"
        },
        {
          "indexed": false,
          "internalType": "uint256",
          "name": "amount",
          "type": "uint256"
        }
      ],
      "name": "Deposit",
      "type": "event"
    },
    {
      "anonymous": false,
      "inputs": [
        {
          "indexed": false,
          "internalType": "address",
          "name": "sender",
          "type": "address"
        },
        {
          "indexed": false,
          "internalType": "uint256",
          "name": "subject",
          "type": "uint256"
        },
        {
          "indexed": false,
          "internalType": "bytes",
          "name": "meta",
          "type": "bytes"
        }
      ],
      "name": "MetaV1",
      "type": "event"
    },
    {
      "anonymous": false,
      "inputs": [
        {
          "indexed": false,
          "internalType": "address",
          "name": "sender",
          "type": "address"
        },
        {
          "indexed": false,
          "internalType": "address",
          "name": "owner",
          "type": "address"
        },
        {
          "indexed": false,
          "internalType": "bytes32",
          "name": "orderHash",
          "type": "bytes32"
        }
      ],
      "name": "OrderExceedsMaxRatio",
      "type": "event"
    },
    {
      "anonymous": false,
      "inputs": [
        {
          "indexed": false,
          "internalType": "address",
          "name": "sender",
          "type": "address"
        },
        {
          "indexed": false,
          "internalType": "address",
          "name": "owner",
          "type": "address"
        },
        {
          "indexed": false,
          "internalType": "bytes32",
          "name": "orderHash",
          "type": "bytes32"
        }
      ],
      "name": "OrderNotFound",
      "type": "event"
    },
    {
      "anonymous": false,
      "inputs": [
        {
          "indexed": false,
          "internalType": "address",
          "name": "sender",
          "type": "address"
        },
        {
          "indexed": false,
          "internalType": "address",
          "name": "owner",
          "type": "address"
        },
        {
          "indexed": false,
          "internalType": "bytes32",
          "name": "orderHash",
          "type": "bytes32"
        }
      ],
      "name": "OrderZeroAmount",
      "type": "event"
    },
    {
      "anonymous": false,
      "inputs": [
        {
          "indexed": false,
          "internalType": "address",
          "name": "sender",
          "type": "address"
        },
        {
          "components": [
            {
              "internalType": "address",
              "name": "owner",
              "type": "address"
            },
            {
              "internalType": "bool",
              "name": "handleIO",
              "type": "bool"
            },
            {
              "components": [
                {
                  "internalType": "contract IInterpreterV1",
                  "name": "interpreter",
                  "type": "address"
                },
                {
                  "internalType": "contract IInterpreterStoreV1",
                  "name": "store",
                  "type": "address"
                },
                {
                  "internalType": "address",
                  "name": "expression",
                  "type": "address"
                }
              ],
              "internalType": "struct Evaluable",
              "name": "evaluable",
              "type": "tuple"
            },
            {
              "components": [
                {
                  "internalType": "address",
                  "name": "token",
                  "type": "address"
                },
                {
                  "internalType": "uint8",
                  "name": "decimals",
                  "type": "uint8"
                },
                {
                  "internalType": "uint256",
                  "name": "vaultId",
                  "type": "uint256"
                }
              ],
              "internalType": "struct IO[]",
              "name": "validInputs",
              "type": "tuple[]"
            },
            {
              "components": [
                {
                  "internalType": "address",
                  "name": "token",
                  "type": "address"
                },
                {
                  "internalType": "uint8",
                  "name": "decimals",
                  "type": "uint8"
                },
                {
                  "internalType": "uint256",
                  "name": "vaultId",
                  "type": "uint256"
                }
              ],
              "internalType": "struct IO[]",
              "name": "validOutputs",
              "type": "tuple[]"
            }
          ],
          "indexed": false,
          "internalType": "struct Order",
          "name": "order",
          "type": "tuple"
        },
        {
          "indexed": false,
          "internalType": "bytes32",
          "name": "orderHash",
          "type": "bytes32"
        }
      ],
      "name": "RemoveOrder",
      "type": "event"
    },
    {
      "anonymous": false,
      "inputs": [
        {
          "indexed": false,
          "internalType": "address",
          "name": "sender",
          "type": "address"
        },
        {
          "components": [
            {
              "components": [
                {
                  "internalType": "address",
                  "name": "owner",
                  "type": "address"
                },
                {
                  "internalType": "bool",
                  "name": "handleIO",
                  "type": "bool"
                },
                {
                  "components": [
                    {
                      "internalType": "contract IInterpreterV1",
                      "name": "interpreter",
                      "type": "address"
                    },
                    {
                      "internalType": "contract IInterpreterStoreV1",
                      "name": "store",
                      "type": "address"
                    },
                    {
                      "internalType": "address",
                      "name": "expression",
                      "type": "address"
                    }
                  ],
                  "internalType": "struct Evaluable",
                  "name": "evaluable",
                  "type": "tuple"
                },
                {
                  "components": [
                    {
                      "internalType": "address",
                      "name": "token",
                      "type": "address"
                    },
                    {
                      "internalType": "uint8",
                      "name": "decimals",
                      "type": "uint8"
                    },
                    {
                      "internalType": "uint256",
                      "name": "vaultId",
                      "type": "uint256"
                    }
                  ],
                  "internalType": "struct IO[]",
                  "name": "validInputs",
                  "type": "tuple[]"
                },
                {
                  "components": [
                    {
                      "internalType": "address",
                      "name": "token",
                      "type": "address"
                    },
                    {
                      "internalType": "uint8",
                      "name": "decimals",
                      "type": "uint8"
                    },
                    {
                      "internalType": "uint256",
                      "name": "vaultId",
                      "type": "uint256"
                    }
                  ],
                  "internalType": "struct IO[]",
                  "name": "validOutputs",
                  "type": "tuple[]"
                }
              ],
              "internalType": "struct Order",
              "name": "order",
              "type": "tuple"
            },
            {
              "internalType": "uint256",
              "name": "inputIOIndex",
              "type": "uint256"
            },
            {
              "internalType": "uint256",
              "name": "outputIOIndex",
              "type": "uint256"
            },
            {
              "components": [
                {
                  "internalType": "address",
                  "name": "signer",
                  "type": "address"
                },
                {
                  "internalType": "uint256[]",
                  "name": "context",
                  "type": "uint256[]"
                },
                {
                  "internalType": "bytes",
                  "name": "signature",
                  "type": "bytes"
                }
              ],
              "internalType": "struct SignedContextV1[]",
              "name": "signedContext",
              "type": "tuple[]"
            }
          ],
          "indexed": false,
          "internalType": "struct TakeOrderConfig",
          "name": "config",
          "type": "tuple"
        },
        {
          "indexed": false,
          "internalType": "uint256",
          "name": "input",
          "type": "uint256"
        },
        {
          "indexed": false,
          "internalType": "uint256",
          "name": "output",
          "type": "uint256"
        }
      ],
      "name": "TakeOrder",
      "type": "event"
    },
    {
      "anonymous": false,
      "inputs": [
        {
          "indexed": false,
          "internalType": "address",
          "name": "sender",
          "type": "address"
        },
        {
          "indexed": false,
          "internalType": "address",
          "name": "token",
          "type": "address"
        },
        {
          "indexed": false,
          "internalType": "uint256",
          "name": "vaultId",
          "type": "uint256"
        },
        {
          "indexed": false,
          "internalType": "uint256",
          "name": "targetAmount",
          "type": "uint256"
        },
        {
          "indexed": false,
          "internalType": "uint256",
          "name": "amount",
          "type": "uint256"
        }
      ],
      "name": "Withdraw",
      "type": "event"
    },
    {
      "inputs": [
        {
          "components": [
            {
              "components": [
                {
                  "internalType": "address",
                  "name": "token",
                  "type": "address"
                },
                {
                  "internalType": "uint8",
                  "name": "decimals",
                  "type": "uint8"
                },
                {
                  "internalType": "uint256",
                  "name": "vaultId",
                  "type": "uint256"
                }
              ],
              "internalType": "struct IO[]",
              "name": "validInputs",
              "type": "tuple[]"
            },
            {
              "components": [
                {
                  "internalType": "address",
                  "name": "token",
                  "type": "address"
                },
                {
                  "internalType": "uint8",
                  "name": "decimals",
                  "type": "uint8"
                },
                {
                  "internalType": "uint256",
                  "name": "vaultId",
                  "type": "uint256"
                }
              ],
              "internalType": "struct IO[]",
              "name": "validOutputs",
              "type": "tuple[]"
            },
            {
              "components": [
                {
                  "internalType": "contract IExpressionDeployerV2",
                  "name": "deployer",
                  "type": "address"
                },
                {
                  "internalType": "bytes",
                  "name": "bytecode",
                  "type": "bytes"
                },
                {
                  "internalType": "uint256[]",
                  "name": "constants",
                  "type": "uint256[]"
                }
              ],
              "internalType": "struct EvaluableConfigV2",
              "name": "evaluableConfig",
              "type": "tuple"
            },
            {
              "internalType": "bytes",
              "name": "meta",
              "type": "bytes"
            }
          ],
          "internalType": "struct OrderConfigV2",
          "name": "config",
          "type": "tuple"
        }
      ],
      "name": "addOrder",
      "outputs": [
        {
          "internalType": "bool",
          "name": "stateChanged",
          "type": "bool"
        }
      ],
      "stateMutability": "nonpayable",
      "type": "function"
    },
    {
      "inputs": [
        {
          "components": [
            {
              "internalType": "address",
              "name": "owner",
              "type": "address"
            },
            {
              "internalType": "bool",
              "name": "handleIO",
              "type": "bool"
            },
            {
              "components": [
                {
                  "internalType": "contract IInterpreterV1",
                  "name": "interpreter",
                  "type": "address"
                },
                {
                  "internalType": "contract IInterpreterStoreV1",
                  "name": "store",
                  "type": "address"
                },
                {
                  "internalType": "address",
                  "name": "expression",
                  "type": "address"
                }
              ],
              "internalType": "struct Evaluable",
              "name": "evaluable",
              "type": "tuple"
            },
            {
              "components": [
                {
                  "internalType": "address",
                  "name": "token",
                  "type": "address"
                },
                {
                  "internalType": "uint8",
                  "name": "decimals",
                  "type": "uint8"
                },
                {
                  "internalType": "uint256",
                  "name": "vaultId",
                  "type": "uint256"
                }
              ],
              "internalType": "struct IO[]",
              "name": "validInputs",
              "type": "tuple[]"
            },
            {
              "components": [
                {
                  "internalType": "address",
                  "name": "token",
                  "type": "address"
                },
                {
                  "internalType": "uint8",
                  "name": "decimals",
                  "type": "uint8"
                },
                {
                  "internalType": "uint256",
                  "name": "vaultId",
                  "type": "uint256"
                }
              ],
              "internalType": "struct IO[]",
              "name": "validOutputs",
              "type": "tuple[]"
            }
          ],
          "internalType": "struct Order",
          "name": "alice",
          "type": "tuple"
        },
        {
          "components": [
            {
              "internalType": "address",
              "name": "owner",
              "type": "address"
            },
            {
              "internalType": "bool",
              "name": "handleIO",
              "type": "bool"
            },
            {
              "components": [
                {
                  "internalType": "contract IInterpreterV1",
                  "name": "interpreter",
                  "type": "address"
                },
                {
                  "internalType": "contract IInterpreterStoreV1",
                  "name": "store",
                  "type": "address"
                },
                {
                  "internalType": "address",
                  "name": "expression",
                  "type": "address"
                }
              ],
              "internalType": "struct Evaluable",
              "name": "evaluable",
              "type": "tuple"
            },
            {
              "components": [
                {
                  "internalType": "address",
                  "name": "token",
                  "type": "address"
                },
                {
                  "internalType": "uint8",
                  "name": "decimals",
                  "type": "uint8"
                },
                {
                  "internalType": "uint256",
                  "name": "vaultId",
                  "type": "uint256"
                }
              ],
              "internalType": "struct IO[]",
              "name": "validInputs",
              "type": "tuple[]"
            },
            {
              "components": [
                {
                  "internalType": "address",
                  "name": "token",
                  "type": "address"
                },
                {
                  "internalType": "uint8",
                  "name": "decimals",
                  "type": "uint8"
                },
                {
                  "internalType": "uint256",
                  "name": "vaultId",
                  "type": "uint256"
                }
              ],
              "internalType": "struct IO[]",
              "name": "validOutputs",
              "type": "tuple[]"
            }
          ],
          "internalType": "struct Order",
          "name": "bob",
          "type": "tuple"
        },
        {
          "components": [
            {
              "internalType": "uint256",
              "name": "aliceInputIOIndex",
              "type": "uint256"
            },
            {
              "internalType": "uint256",
              "name": "aliceOutputIOIndex",
              "type": "uint256"
            },
            {
              "internalType": "uint256",
              "name": "bobInputIOIndex",
              "type": "uint256"
            },
            {
              "internalType": "uint256",
              "name": "bobOutputIOIndex",
              "type": "uint256"
            },
            {
              "internalType": "uint256",
              "name": "aliceBountyVaultId",
              "type": "uint256"
            },
            {
              "internalType": "uint256",
              "name": "bobBountyVaultId",
              "type": "uint256"
            }
          ],
          "internalType": "struct ClearConfig",
          "name": "clearConfig",
          "type": "tuple"
        },
        {
          "components": [
            {
              "internalType": "address",
              "name": "signer",
              "type": "address"
            },
            {
              "internalType": "uint256[]",
              "name": "context",
              "type": "uint256[]"
            },
            {
              "internalType": "bytes",
              "name": "signature",
              "type": "bytes"
            }
          ],
          "internalType": "struct SignedContextV1[]",
          "name": "aliceSignedContext",
          "type": "tuple[]"
        },
        {
          "components": [
            {
              "internalType": "address",
              "name": "signer",
              "type": "address"
            },
            {
              "internalType": "uint256[]",
              "name": "context",
              "type": "uint256[]"
            },
            {
              "internalType": "bytes",
              "name": "signature",
              "type": "bytes"
            }
          ],
          "internalType": "struct SignedContextV1[]",
          "name": "bobSignedContext",
          "type": "tuple[]"
        }
      ],
      "name": "clear",
      "outputs": [],
      "stateMutability": "nonpayable",
      "type": "function"
    },
    {
      "inputs": [
        {
          "internalType": "address",
          "name": "token",
          "type": "address"
        },
        {
          "internalType": "uint256",
          "name": "vaultId",
          "type": "uint256"
        },
        {
          "internalType": "uint256",
          "name": "amount",
          "type": "uint256"
        }
      ],
      "name": "deposit",
      "outputs": [],
      "stateMutability": "nonpayable",
      "type": "function"
    },
    {
      "inputs": [
        {
          "internalType": "address",
          "name": "",
          "type": "address"
        },
        {
          "internalType": "uint256",
          "name": "",
          "type": "uint256"
        }
      ],
      "name": "flashFee",
      "outputs": [
        {
          "internalType": "uint256",
          "name": "",
          "type": "uint256"
        }
      ],
      "stateMutability": "pure",
      "type": "function"
    },
    {
      "inputs": [
        {
          "internalType": "contract IERC3156FlashBorrower",
          "name": "receiver",
          "type": "address"
        },
        {
          "internalType": "address",
          "name": "token",
          "type": "address"
        },
        {
          "internalType": "uint256",
          "name": "amount",
          "type": "uint256"
        },
        {
          "internalType": "bytes",
          "name": "data",
          "type": "bytes"
        }
      ],
      "name": "flashLoan",
      "outputs": [
        {
          "internalType": "bool",
          "name": "",
          "type": "bool"
        }
      ],
      "stateMutability": "nonpayable",
      "type": "function"
    },
    {
      "inputs": [
        {
          "internalType": "address",
          "name": "token",
          "type": "address"
        }
      ],
      "name": "maxFlashLoan",
      "outputs": [
        {
          "internalType": "uint256",
          "name": "",
          "type": "uint256"
        }
      ],
      "stateMutability": "view",
      "type": "function"
    },
    {
      "inputs": [
        {
          "internalType": "bytes[]",
          "name": "data",
          "type": "bytes[]"
        }
      ],
      "name": "multicall",
      "outputs": [
        {
          "internalType": "bytes[]",
          "name": "results",
          "type": "bytes[]"
        }
      ],
      "stateMutability": "nonpayable",
      "type": "function"
    },
    {
      "inputs": [
        {
          "internalType": "bytes32",
          "name": "orderHash",
          "type": "bytes32"
        }
      ],
      "name": "orderExists",
      "outputs": [
        {
          "internalType": "bool",
          "name": "",
          "type": "bool"
        }
      ],
      "stateMutability": "view",
      "type": "function"
    },
    {
      "inputs": [
        {
          "components": [
            {
              "internalType": "address",
              "name": "owner",
              "type": "address"
            },
            {
              "internalType": "bool",
              "name": "handleIO",
              "type": "bool"
            },
            {
              "components": [
                {
                  "internalType": "contract IInterpreterV1",
                  "name": "interpreter",
                  "type": "address"
                },
                {
                  "internalType": "contract IInterpreterStoreV1",
                  "name": "store",
                  "type": "address"
                },
                {
                  "internalType": "address",
                  "name": "expression",
                  "type": "address"
                }
              ],
              "internalType": "struct Evaluable",
              "name": "evaluable",
              "type": "tuple"
            },
            {
              "components": [
                {
                  "internalType": "address",
                  "name": "token",
                  "type": "address"
                },
                {
                  "internalType": "uint8",
                  "name": "decimals",
                  "type": "uint8"
                },
                {
                  "internalType": "uint256",
                  "name": "vaultId",
                  "type": "uint256"
                }
              ],
              "internalType": "struct IO[]",
              "name": "validInputs",
              "type": "tuple[]"
            },
            {
              "components": [
                {
                  "internalType": "address",
                  "name": "token",
                  "type": "address"
                },
                {
                  "internalType": "uint8",
                  "name": "decimals",
                  "type": "uint8"
                },
                {
                  "internalType": "uint256",
                  "name": "vaultId",
                  "type": "uint256"
                }
              ],
              "internalType": "struct IO[]",
              "name": "validOutputs",
              "type": "tuple[]"
            }
          ],
          "internalType": "struct Order",
          "name": "order",
          "type": "tuple"
        }
      ],
      "name": "removeOrder",
      "outputs": [
        {
          "internalType": "bool",
          "name": "stateChanged",
          "type": "bool"
        }
      ],
      "stateMutability": "nonpayable",
      "type": "function"
    },
    {
      "inputs": [
        {
          "components": [
            {
              "internalType": "uint256",
              "name": "minimumInput",
              "type": "uint256"
            },
            {
              "internalType": "uint256",
              "name": "maximumInput",
              "type": "uint256"
            },
            {
              "internalType": "uint256",
              "name": "maximumIORatio",
              "type": "uint256"
            },
            {
              "components": [
                {
                  "components": [
                    {
                      "internalType": "address",
                      "name": "owner",
                      "type": "address"
                    },
                    {
                      "internalType": "bool",
                      "name": "handleIO",
                      "type": "bool"
                    },
                    {
                      "components": [
                        {
                          "internalType": "contract IInterpreterV1",
                          "name": "interpreter",
                          "type": "address"
                        },
                        {
                          "internalType": "contract IInterpreterStoreV1",
                          "name": "store",
                          "type": "address"
                        },
                        {
                          "internalType": "address",
                          "name": "expression",
                          "type": "address"
                        }
                      ],
                      "internalType": "struct Evaluable",
                      "name": "evaluable",
                      "type": "tuple"
                    },
                    {
                      "components": [
                        {
                          "internalType": "address",
                          "name": "token",
                          "type": "address"
                        },
                        {
                          "internalType": "uint8",
                          "name": "decimals",
                          "type": "uint8"
                        },
                        {
                          "internalType": "uint256",
                          "name": "vaultId",
                          "type": "uint256"
                        }
                      ],
                      "internalType": "struct IO[]",
                      "name": "validInputs",
                      "type": "tuple[]"
                    },
                    {
                      "components": [
                        {
                          "internalType": "address",
                          "name": "token",
                          "type": "address"
                        },
                        {
                          "internalType": "uint8",
                          "name": "decimals",
                          "type": "uint8"
                        },
                        {
                          "internalType": "uint256",
                          "name": "vaultId",
                          "type": "uint256"
                        }
                      ],
                      "internalType": "struct IO[]",
                      "name": "validOutputs",
                      "type": "tuple[]"
                    }
                  ],
                  "internalType": "struct Order",
                  "name": "order",
                  "type": "tuple"
                },
                {
                  "internalType": "uint256",
                  "name": "inputIOIndex",
                  "type": "uint256"
                },
                {
                  "internalType": "uint256",
                  "name": "outputIOIndex",
                  "type": "uint256"
                },
                {
                  "components": [
                    {
                      "internalType": "address",
                      "name": "signer",
                      "type": "address"
                    },
                    {
                      "internalType": "uint256[]",
                      "name": "context",
                      "type": "uint256[]"
                    },
                    {
                      "internalType": "bytes",
                      "name": "signature",
                      "type": "bytes"
                    }
                  ],
                  "internalType": "struct SignedContextV1[]",
                  "name": "signedContext",
                  "type": "tuple[]"
                }
              ],
              "internalType": "struct TakeOrderConfig[]",
              "name": "orders",
              "type": "tuple[]"
            },
            {
              "internalType": "bytes",
              "name": "data",
              "type": "bytes"
            }
          ],
          "internalType": "struct TakeOrdersConfigV2",
          "name": "config",
          "type": "tuple"
        }
      ],
      "name": "takeOrders",
      "outputs": [
        {
          "internalType": "uint256",
          "name": "totalTakerInput",
          "type": "uint256"
        },
        {
          "internalType": "uint256",
          "name": "totalTakerOutput",
          "type": "uint256"
        }
      ],
      "stateMutability": "nonpayable",
      "type": "function"
    },
    {
      "inputs": [
        {
          "internalType": "address",
          "name": "owner",
          "type": "address"
        },
        {
          "internalType": "address",
          "name": "token",
          "type": "address"
        },
        {
          "internalType": "uint256",
          "name": "vaultId",
          "type": "uint256"
        }
      ],
      "name": "vaultBalance",
      "outputs": [
        {
          "internalType": "uint256",
          "name": "",
          "type": "uint256"
        }
      ],
      "stateMutability": "view",
      "type": "function"
    },
    {
      "inputs": [
        {
          "internalType": "address",
          "name": "token",
          "type": "address"
        },
        {
          "internalType": "uint256",
          "name": "vaultId",
          "type": "uint256"
        },
        {
          "internalType": "uint256",
          "name": "targetAmount",
          "type": "uint256"
        }
      ],
      "name": "withdraw",
      "outputs": [],
      "stateMutability": "nonpayable",
      "type": "function"
    }
  ],
  "bytecode": {
    "object": "0x6080604052600180546001600160a01b031990811690915560028054909116905560006003553480156200003257600080fd5b506040516200621d3803806200621d8339810160408190526200005591620002d5565b600160005560208101517f71fe2f4f68f17dfe6ae7aba2bbd6cbfe5a2a48a93ebbc8b1f1900887b978eeee90829062000090908390620000e7565b60208101516040517fbea766d03fa1efd3f81cc8634d08320bc62bb0ed9234ac59bbaafa5893fb6b1391620000c99133913091620003e3565b60405180910390a18051620000de906200012e565b505050620004f9565b805160208201208281146200011e5760405163074fe10f60e41b815260048101849052602481018290526044015b60405180910390fd5b6200012982620001c5565b505050565b60408051600080825260208201818152828401938490526331a66b6560e01b90935291829182916001600160a01b038616916331a66b65916200017691906044820162000452565b6060604051808303816000875af115801562000196573d6000803e3d6000fd5b505050506040513d601f19601f82011682018060405250810190620001bc919062000489565b50505050505050565b620001d081620001f5565b620001f25780604051630c89984b60e31b8152600401620001159190620004dd565b50565b60006008825110156200020a57506000919050565b50600801516001600160401b031667ff0a89c674ee78741490565b634e487b7160e01b600052604160045260246000fd5b604080519081016001600160401b038111828210171562000260576200026062000225565b60405290565b604051601f8201601f191681016001600160401b038111828210171562000291576200029162000225565b604052919050565b6001600160a01b0381168114620001f257600080fd5b60005b83811015620002cc578181015183820152602001620002b2565b50506000910152565b60006020808385031215620002e957600080fd5b82516001600160401b03808211156200030157600080fd5b90840190604082870312156200031657600080fd5b620003206200023b565b82516200032d8162000299565b815282840151828111156200034157600080fd5b80840193505086601f8401126200035757600080fd5b8251828111156200036c576200036c62000225565b62000380601f8201601f1916860162000266565b925080835287858286010111156200039757600080fd5b620003a881868501878701620002af565b5092830152509392505050565b60008151808452620003cf816020860160208601620002af565b601f01601f19169290920160200192915050565b60018060a01b03841681528260208201526060604082015260006200040c6060830184620003b5565b95945050505050565b600081518084526020808501945080840160005b83811015620004475781518752958201959082019060010162000429565b509495945050505050565b606081526000606082015260806020820152600062000475608083018562000415565b82810360408401526200040c818562000415565b6000806000606084860312156200049f57600080fd5b8351620004ac8162000299565b6020850151909350620004bf8162000299565b6040850151909250620004d28162000299565b809150509250925092565b602081526000620004f26020830184620003b5565b9392505050565b615d1480620005096000396000f3fe608060405234801561001057600080fd5b50600436106100d45760003560e01c80639e18968b11610081578063d97b2e481161005b578063d97b2e48146101cb578063d9d98ce4146101de578063e23746a3146101f157600080fd5b80639e18968b14610185578063ac9650d814610198578063b5c5f672146101b857600080fd5b8063613255ab116100b2578063613255ab14610129578063847a1bc91461014a5780638a44689c1461015d57600080fd5b80630efe6a8b146100d95780632cb77e9f146100ee5780635cffe9de14610116575b600080fd5b6100ec6100e73660046145e3565b610204565b005b6101016100fc366004614618565b61034b565b60405190151581526020015b60405180910390f35b610101610124366004614631565b6103a1565b61013c6101373660046146d0565b61067f565b60405190815260200161010d565b6101016101583660046146ed565b610729565b61017061016b366004614728565b610c64565b6040805192835260208301919091520161010d565b6100ec610193366004614c2d565b611b31565b6101ab6101a6366004614d18565b61226b565b60405161010d9190614dfb565b6100ec6101c63660046145e3565b612360565b61013c6101d9366004614e7b565b6124be565b61013c6101ec366004614ebc565b610720565b6101016101ff366004614ee8565b61253f565b61020c612690565b80600003610270576040517f40e97a5e00000000000000000000000000000000000000000000000000000000815233600482015273ffffffffffffffffffffffffffffffffffffffff84166024820152604481018390526064015b60405180910390fd5b6040805133815273ffffffffffffffffffffffffffffffffffffffff85166020820152908101839052606081018290527fdcbc1c05240f31ff3ad067ef1ee35ce4997762752e3a095284754544f4c709d79060800160405180910390a16102ef73ffffffffffffffffffffffffffffffffffffffff8416333084612703565b33600090815260056020908152604080832073ffffffffffffffffffffffffffffffffffffffff87168452825280832085845290915281208054839290610337908490614f52565b90915550506001600055505050565b505050565b60008054600203610388576040517f3ee5aeb500000000000000000000000000000000000000000000000000000000815260040160405180910390fd5b506000818152600460205260409020546001145b919050565b600073ffffffffffffffffffffffffffffffffffffffff86166103f0576040517f6ba9ecd800000000000000000000000000000000000000000000000000000000815260040160405180910390fd5b73ffffffffffffffffffffffffffffffffffffffff851661043d576040517fad1991f500000000000000000000000000000000000000000000000000000000815260040160405180910390fd5b83600003610477576040517f1f2a200500000000000000000000000000000000000000000000000000000000815260040160405180910390fd5b61047f6127e5565b6002805473ffffffffffffffffffffffffffffffffffffffff8088167fffffffffffffffffffffffff00000000000000000000000000000000000000009283161790925560018054928916929091169190911790556104df600085614f52565b60035561050373ffffffffffffffffffffffffffffffffffffffff86168786612856565b6040517f23e30c8b00000000000000000000000000000000000000000000000000000000815260009073ffffffffffffffffffffffffffffffffffffffff8816906323e30c8b906105629033908a908a9087908b908b90600401614fae565b6020604051808303816000875af1158015610581573d6000803e3d6000fd5b505050506040513d601f19601f820116820180604052508101906105a59190615000565b90507f439148f0bbc682ca079e46d6e2c2f0c1e3b820f1a291b069d8882abf8cf18dd98114610603576040517f5b62c54800000000000000000000000000000000000000000000000000000000815260048101829052602401610267565b600354945084156106365761063073ffffffffffffffffffffffffffffffffffffffff8716883088612703565b60006003555b600180547fffffffffffffffffffffffff00000000000000000000000000000000000000009081169091556002805490911690556106726127e5565b5060019695505050505050565b60006106896128ac565b610720576040517f70a0823100000000000000000000000000000000000000000000000000000000815230600482015273ffffffffffffffffffffffffffffffffffffffff8316906370a0823190602401602060405180830381865afa1580156106f7573d6000803e3d6000fd5b505050506040513d601f19601f8201168201806040525081019061071b9190615000565b610723565b60005b92915050565b6000610733612690565b600061078d6107456040850185615019565b610753906020810190615057565b8080601f0160208091040260200160405190810160405280939291908181526020018383808284376000920191909152506128fd92505050565b9050806000036107cb576040517f1914441e000000000000000000000000000000000000000000000000000000008152336004820152602401610267565b80600103610807576040517f7e47fcba000000000000000000000000000000000000000000000000000000008152336004820152602401610267565b61081183806150bc565b905060000361084e576040517f32586a92000000000000000000000000000000000000000000000000000000008152336004820152602401610267565b61085b60208401846150bc565b9050600003610898576040517f08d7d498000000000000000000000000000000000000000000000000000000008152336004820152602401610267565b600080806108a96040870187615019565b6108b79060208101906146d0565b73ffffffffffffffffffffffffffffffffffffffff166331a66b656108df6040890189615019565b6108ed906020810190615057565b6108fa60408b018b615019565b610908906040810190615123565b6040805160028082526020820152600081830152606081019091526040518663ffffffff1660e01b81526004016109439594939291906151c6565b6060604051808303816000875af1158015610962573d6000803e3d6000fd5b505050506040513d601f19601f820116820180604052508101906109869190615237565b92509250925060006040518060a001604052803373ffffffffffffffffffffffffffffffffffffffff1681526020016000610a158a80604001906109ca9190615019565b6109d8906020810190615057565b8080601f0160208091040260200160405190810160405280939291908181526020018383808284376000920191909152506001925061291b915050565b1181526040805160608101825273ffffffffffffffffffffffffffffffffffffffff80891682528781166020838101919091529087168284015283015201610a5d89806150bc565b808060200260200160405190810160405280939291908181526020016000905b82821015610aa957610a9a60608302860136819003810190615284565b81526020019060010190610a7d565b50505050508152602001888060200190610ac391906150bc565b808060200260200160405190810160405280939291908181526020016000905b82821015610b0f57610b0060608302860136819003810190615284565b81526020019060010190610ae3565b505050505081525090506000610b2482612934565b600081815260046020526040902054909150610c54576000818152600460205260409081902060019081905597507f6fa57e1a7a1fbbf3623af2b2025fcd9a5e7e4e31a2a6ec7523445f18e9c50ebf903390610b82908b018b615019565b610b909060208101906146d0565b8484604051610ba29493929190615382565b60405180910390a16000610bb960608a018a615057565b90501115610c5457610c0b610bd160608a018a615057565b8080601f01602080910402602001604051908101604052809392919081815260200183838082843760009201919091525061296492505050565b7fbea766d03fa1efd3f81cc8634d08320bc62bb0ed9234ac59bbaafa5893fb6b133382610c3b60608c018c615057565b604051610c4b94939291906153cc565b60405180910390a15b50505050505061039c6001600055565b600080610c6f612690565b610c7c6060840184615123565b9050600003610cb7576040517f9c95219f00000000000000000000000000000000000000000000000000000000815260040160405180910390fd5b6000610d1e604080516101208101825260006080820181815260a08301829052835160608082018652838252602080830185905282870185905260c086019290925260e0850181905261010085018190529184528301829052928201528181019190915290565b6040805160a081018252600080825260208083018290528351606080820186528382529181018390528085019290925292820152818101829052608081019190915260208601355b610d736060880188615123565b905084108015610d835750600081115b1561178c57610d956060880188615123565b85818110610da557610da5615402565b9050602002810190610db79190615431565b610dc090615465565b80519093509150610dd46060880188615123565b6000818110610de557610de5615402565b9050602002810190610df79190615431565b610e0190806154ff565b610e0f9060a08101906150bc565b610e1c60608a018a615123565b6000818110610e2d57610e2d615402565b9050602002810190610e3f9190615431565b60200135818110610e5257610e52615402565b610e6892602060609092020190810191506146d0565b73ffffffffffffffffffffffffffffffffffffffff168260600151846020015181518110610e9857610e98615402565b60200260200101516000015173ffffffffffffffffffffffffffffffffffffffff1614610fd8578160600151836020015181518110610ed957610ed9615402565b602090810291909101015151610ef26060890189615123565b6000818110610f0357610f03615402565b9050602002810190610f159190615431565b610f1f90806154ff565b610f2d9060a08101906150bc565b610f3a60608b018b615123565b6000818110610f4b57610f4b615402565b9050602002810190610f5d9190615431565b60200135818110610f7057610f70615402565b610f8692602060609092020190810191506146d0565b6040517ff902523f00000000000000000000000000000000000000000000000000000000815273ffffffffffffffffffffffffffffffffffffffff928316600482015291166024820152604401610267565b610fe56060880188615123565b6000818110610ff657610ff6615402565b90506020028101906110089190615431565b61101290806154ff565b6110209060c08101906150bc565b61102d60608a018a615123565b600081811061103e5761103e615402565b90506020028101906110509190615431565b6040013581811061106357611063615402565b61107992602060609092020190810191506146d0565b73ffffffffffffffffffffffffffffffffffffffff1682608001518460400151815181106110a9576110a9615402565b60200260200101516000015173ffffffffffffffffffffffffffffffffffffffff16146111815781608001518360400151815181106110ea576110ea615402565b6020908102919091010151516111036060890189615123565b600081811061111457611114615402565b90506020028101906111269190615431565b61113090806154ff565b61113e9060c08101906150bc565b61114b60608b018b615123565b600081811061115c5761115c615402565b905060200281019061116e9190615431565b60400135818110610f7057610f70615402565b61118e6060880188615123565b600081811061119f5761119f615402565b90506020028101906111b19190615431565b6111bb90806154ff565b6111c99060a08101906150bc565b6111d660608a018a615123565b60008181106111e7576111e7615402565b90506020028101906111f99190615431565b6020013581811061120c5761120c615402565b90506060020160200160208101906112249190615533565b60ff16826060015184602001518151811061124157611241615402565b60200260200101516020015160ff161461136057816060015183602001518151811061126f5761126f615402565b60200260200101516020015187806060019061128b9190615123565b600081811061129c5761129c615402565b90506020028101906112ae9190615431565b6112b890806154ff565b6112c69060a08101906150bc565b6112d360608b018b615123565b60008181106112e4576112e4615402565b90506020028101906112f69190615431565b6020013581811061130957611309615402565b90506060020160200160208101906113219190615533565b6040517f0f6ce47700000000000000000000000000000000000000000000000000000000815260ff928316600482015291166024820152604401610267565b61136d6060880188615123565b600081811061137e5761137e615402565b90506020028101906113909190615431565b61139a90806154ff565b6113a89060c08101906150bc565b6113b560608a018a615123565b60008181106113c6576113c6615402565b90506020028101906113d89190615431565b604001358181106113eb576113eb615402565b90506060020160200160208101906114039190615533565b60ff16826080015184604001518151811061142057611420615402565b60200260200101516020015160ff16146114e857816080015183604001518151811061144e5761144e615402565b60200260200101516020015187806060019061146a9190615123565b600081811061147b5761147b615402565b905060200281019061148d9190615431565b61149790806154ff565b6114a59060c08101906150bc565b6114b260608b018b615123565b60008181106114c3576114c3615402565b90506020028101906114d59190615431565b6040013581811061130957611309615402565b60006114f383612934565b6000818152600460205260409020549091506115665782516040805133815273ffffffffffffffffffffffffffffffffffffffff909216602083015281018290527fb70c12fa453793fa6818ec07c91e74363a47aa6a6829dcd9533937fdf30314f39060600160405180910390a1611780565b600061158184866020015187604001513389606001516129a8565b90508860400135816060015111156115f15783516040805133815273ffffffffffffffffffffffffffffffffffffffff909216602083015281018390527fe3151dc8cb7a54ffc4baabd28c1f241c94d510b5e5b502491ac3cad6c16316d5906060015b60405180910390a161177e565b80604001516000036116525783516040805133815273ffffffffffffffffffffffffffffffffffffffff909216602083015281018390527f500b713857325f9e6dcb52ae832eca9109d107ed1aae9cb4928b4c1e13f051aa906060016115e4565b6000846080015186604001518151811061166e5761166e615402565b6020908102919091018101510151604083015190915060006116958660ff85166002613098565b9050808211156116a3578091505b506000806116c1856060015160018561311d9092919063ffffffff16565b905061170188606001518a60200151815181106116e0576116e0615402565b60200260200101516020015160ff1660018361313b9092919063ffffffff16565b9150600090506117168360ff8616600261313b565b9050611722818861554e565b965061172e828c614f52565b9a5061173c8883838861319d565b7f219a030b7ae56e7bea2baab709a4a45dc174a1f85e57730e5cb395bc32962542338a83856040516117719493929190615561565b60405180910390a1505050505b505b50600190930192610d66565b61179a81602089013561554e565b955086358610156117e1576040517f45094d880000000000000000000000000000000000000000000000000000000081528735600482015260248101879052604401610267565b600061188e6117f360608a018a615123565b600081811061180457611804615402565b90506020028101906118169190615431565b61182090806154ff565b61182e9060c08101906150bc565b61183b60608c018c615123565b600081811061184c5761184c615402565b905060200281019061185e9190615431565b6040013581811061187157611871615402565b61188792602060609092020190810191506146d0565b3389613647565b9050600061189f60808a018a615057565b90501115611a52573363059bebe66118ba60608b018b615123565b60008181106118cb576118cb615402565b90506020028101906118dd9190615431565b6118e790806154ff565b6118f59060c08101906150bc565b61190260608d018d615123565b600081811061191357611913615402565b90506020028101906119259190615431565b6040013581811061193857611938615402565b61194e92602060609092020190810191506146d0565b61195b60608c018c615123565b600081811061196c5761196c615402565b905060200281019061197e9190615431565b61198890806154ff565b6119969060a08101906150bc565b6119a360608e018e615123565b60008181106119b4576119b4615402565b90506020028101906119c69190615431565b602001358181106119d9576119d9615402565b6119ef92602060609092020190810191506146d0565b848a6119fe60808f018f615057565b6040518763ffffffff1660e01b8152600401611a1f96959493929190614fae565b600060405180830381600087803b158015611a3957600080fd5b505af1158015611a4d573d6000803e3d6000fd5b505050505b8515611b1d57611b1d333088611a6b60608d018d615123565b6000818110611a7c57611a7c615402565b9050602002810190611a8e9190615431565b611a9890806154ff565b611aa69060a08101906150bc565b611ab360608f018f615123565b6000818110611ac457611ac4615402565b9050602002810190611ad69190615431565b60200135818110611ae957611ae9615402565b611aff92602060609092020190810191506146d0565b73ffffffffffffffffffffffffffffffffffffffff16929190612703565b5050505050611b2c6001600055565b915091565b611b39612690565b8351855173ffffffffffffffffffffffffffffffffffffffff918216911603611ba95784516040517f227e4ce900000000000000000000000000000000000000000000000000000000815273ffffffffffffffffffffffffffffffffffffffff9091166004820152602401610267565b8360600151836040013581518110611bc357611bc3615402565b60200260200101516000015173ffffffffffffffffffffffffffffffffffffffff168560800151846020013581518110611bff57611bff615402565b60200260200101516000015173ffffffffffffffffffffffffffffffffffffffff1614611cc4578460800151836020013581518110611c4057611c40615402565b6020026020010151600001518460600151846040013581518110611c6657611c66615402565b6020908102919091010151516040517ff902523f00000000000000000000000000000000000000000000000000000000815273ffffffffffffffffffffffffffffffffffffffff928316600482015291166024820152604401610267565b8360600151836040013581518110611cde57611cde615402565b60200260200101516020015160ff168560800151846020013581518110611d0757611d07615402565b60200260200101516020015160ff1614611daa578460800151836020013581518110611d3557611d35615402565b6020026020010151602001518460600151846040013581518110611d5b57611d5b615402565b6020026020010151602001516040517f0f6ce47700000000000000000000000000000000000000000000000000000000815260040161026792919060ff92831681529116602082015260400190565b606085015180518435908110611dc257611dc2615402565b60200260200101516000015173ffffffffffffffffffffffffffffffffffffffff168460800151846060013581518110611dfe57611dfe615402565b60200260200101516000015173ffffffffffffffffffffffffffffffffffffffff1614611e6357606085015180518435908110611e3d57611e3d615402565b6020026020010151600001518460800151846060013581518110611c6657611c66615402565b606085015180518435908110611e7b57611e7b615402565b60200260200101516020015160ff168460800151846060013581518110611ea457611ea4615402565b60200260200101516020015160ff1614611ef657606085015180518435908110611ed057611ed0615402565b6020026020010151602001518460800151846060013581518110611d5b57611d5b615402565b600060046000611f0588612934565b81526020019081526020016000205403611f84577fb70c12fa453793fa6818ec07c91e74363a47aa6a6829dcd9533937fdf30314f3338660000151611f4988612934565b6040805173ffffffffffffffffffffffffffffffffffffffff94851681529390921660208401529082015260600160405180910390a161225a565b600060046000611f9387612934565b81526020019081526020016000205403611fd7577fb70c12fa453793fa6818ec07c91e74363a47aa6a6829dcd9533937fdf30314f3338560000151611f4987612934565b7fd153812deb929a6e4378f6f8cf61d010470840bf2e736f43fb2275803958bfa23386868660405161200c9493929190615691565b60405180910390a1600061202f86856000013586602001358860000151866129a8565b9050600061204c86866040013587606001358a60000151886129a8565b9050600061205a83836136f8565b905061207088826040015183600001518661319d565b61208487826060015183602001518561319d565b606081015181516000916120979161554e565b90506000826040015183602001516120af919061554e565b9050811561215557336000908152600560209081526040822060808d01518051869492938d01359081106120e5576120e5615402565b60200260200101516000015173ffffffffffffffffffffffffffffffffffffffff1673ffffffffffffffffffffffffffffffffffffffff16815260200190815260200160002060008a608001358152602001908152602001600020600082825461214f9190614f52565b90915550505b80156121f95733600090815260056020526040812060808b015180518493919060608d013590811061218957612189615402565b60200260200101516000015173ffffffffffffffffffffffffffffffffffffffff1673ffffffffffffffffffffffffffffffffffffffff16815260200190815260200160002060008a60a00135815260200190815260200160002060008282546121f39190614f52565b90915550505b5050604080513381528251602080830191909152830151818301529082015160608083019190915282015160808201527f3f20e55919cca701abb2a40ab72542b25ea7eed63a50f979dd2cd3231e5f488d9060a00160405180910390a15050505b6122646001600055565b5050505050565b60608167ffffffffffffffff81111561228657612286614763565b6040519080825280602002602001820160405280156122b957816020015b60608152602001906001900390816122a45790505b50905060005b8281101561235957612329308585848181106122dd576122dd615402565b90506020028101906122ef9190615057565b8080601f01602080910402602001604051908101604052809392919081815260200183838082843760009201919091525061373992505050565b82828151811061233b5761233b615402565b602002602001018190525080806123519061571b565b9150506122bf565b5092915050565b612368612690565b806000036123c7576040517ff7a898f600000000000000000000000000000000000000000000000000000000815233600482015273ffffffffffffffffffffffffffffffffffffffff8416602482015260448101839052606401610267565b33600090815260056020908152604080832073ffffffffffffffffffffffffffffffffffffffff8716845282528083208584529091528120549061240b838361375e565b905080156124b25761241d818361554e565b33600081815260056020908152604080832073ffffffffffffffffffffffffffffffffffffffff8b168085529083528184208a855283529281902094909455835192835282015290810185905260608101849052608081018290527febff2602b3f468259e1e99f613fed6691f3a6526effe6ef3e768ba7ae7a36c4f9060a00160405180910390a16124b0853383613647565b505b50506103466001600055565b600080546002036124fb576040517f3ee5aeb500000000000000000000000000000000000000000000000000000000815260040160405180910390fd5b5073ffffffffffffffffffffffffffffffffffffffff80841660009081526005602090815260408083209386168352928152828220848352905220545b9392505050565b6000612549612690565b61255660208301836146d0565b73ffffffffffffffffffffffffffffffffffffffff163373ffffffffffffffffffffffffffffffffffffffff16146125e8573361259660208401846146d0565b6040517f4702b91400000000000000000000000000000000000000000000000000000000815273ffffffffffffffffffffffffffffffffffffffff928316600482015291166024820152604401610267565b60006125fb6125f684615753565b612934565b6000818152600460205260409020549091507fffffffffffffffffffffffffffffffffffffffffffffffffffffffffffffffff01612685576000818152600460205260408082209190915551600192507f74037e398a4a92c9c1c49ac01c1dabd7f71165fbb4810b72c068f08edd1924489061267c9033908690859061582f565b60405180910390a15b5061039c6001600055565b6002600054036126fc576040517f08c379a000000000000000000000000000000000000000000000000000000000815260206004820152601f60248201527f5265656e7472616e637947756172643a207265656e7472616e742063616c6c006044820152606401610267565b6002600055565b60405173ffffffffffffffffffffffffffffffffffffffff808516602483015283166044820152606481018290526127df9085907f23b872dd00000000000000000000000000000000000000000000000000000000906084015b604080517fffffffffffffffffffffffffffffffffffffffffffffffffffffffffffffffe08184030181529190526020810180517bffffffffffffffffffffffffffffffffffffffffffffffffffffffff167fffffffff0000000000000000000000000000000000000000000000000000000090931692909217909152613774565b50505050565b6127ed6128ac565b15612854576001546002546003546040517f60817cfa00000000000000000000000000000000000000000000000000000000815273ffffffffffffffffffffffffffffffffffffffff93841660048201529290911660248301526044820152606401610267565b565b60405173ffffffffffffffffffffffffffffffffffffffff83166024820152604481018290526103469084907fa9059cbb000000000000000000000000000000000000000000000000000000009060640161275d565b60015460009073ffffffffffffffffffffffffffffffffffffffff161515806128ec575060025473ffffffffffffffffffffffffffffffffffffffff1615155b806128f8575060035415155b905090565b6000815160000361291057506000919050565b506020015160001a90565b6000806129288484613883565b5160001a949350505050565b6000816040516020016129479190615934565b604051602081830303815290604052805190602001209050919050565b61296d816138b4565b6129a557806040517f644cc2580000000000000000000000000000000000000000000000000000000081526004016102679190615947565b50565b6040805161018081018252600060e08201818152610100830182905283516060808201865283825260208083018590528287018590526101208601929092526101408501819052610160850181905291845283018290529282018190528282018190526080820183905260a082015260c08101919091526000612a2a87612934565b60408051600480825260a08201909252919250606091600091816020015b6060815260200190600190039081612a4857905050895160408051600381526020810187905273ffffffffffffffffffffffffffffffffffffffff928316818301529189166060830152608082019052909150816001800381518110612ab057612ab0615402565b6020026020010181905250612c4589606001518981518110612ad457612ad4615402565b60200260200101516000015173ffffffffffffffffffffffffffffffffffffffff168a606001518a81518110612b0c57612b0c615402565b60200260200101516020015160ff168b606001518b81518110612b3157612b31615402565b602002602001015160400151600560008e6000015173ffffffffffffffffffffffffffffffffffffffff1673ffffffffffffffffffffffffffffffffffffffff16815260200190815260200160002060008e606001518e81518110612b9857612b98615402565b60200260200101516000015173ffffffffffffffffffffffffffffffffffffffff1673ffffffffffffffffffffffffffffffffffffffff16815260200190815260200160002060008e606001518e81518110612bf657612bf6615402565b602002602001015160400151815260200190815260200160002054600060408051600581526020810196909652858101949094526060850192909252608084015260a083015260c08201905290565b81600160030381518110612c5b57612c5b615402565b6020026020010181905250612da189608001518881518110612c7f57612c7f615402565b60200260200101516000015173ffffffffffffffffffffffffffffffffffffffff168a608001518981518110612cb757612cb7615402565b60200260200101516020015160ff168b608001518a81518110612cdc57612cdc615402565b602002602001015160400151600560008e6000015173ffffffffffffffffffffffffffffffffffffffff1673ffffffffffffffffffffffffffffffffffffffff16815260200190815260200160002060008e608001518d81518110612d4357612d43615402565b60200260200101516000015173ffffffffffffffffffffffffffffffffffffffff1673ffffffffffffffffffffffffffffffffffffffff16815260200190815260200160002060008e608001518d81518110612bf657612bf6615402565b81600160040381518110612db757612db7615402565b6020026020010181905250612dcc81866138e4565b9150506000886000015173ffffffffffffffffffffffffffffffffffffffff1690506000808a604001516000015173ffffffffffffffffffffffffffffffffffffffff16636715f8258c604001516020015185612e308f6040015160400151613bf4565b886040518563ffffffff1660e01b8152600401612e50949392919061599f565b600060405180830381865afa158015612e6d573d6000803e3d6000fd5b505050506040513d6000823e601f3d9081017fffffffffffffffffffffffffffffffffffffffffffffffffffffffffffffffe0168201604052612eb39190810190615a35565b91509150600082600284510381518110612ecf57612ecf615402565b60200260200101519050600083600185510381518110612ef157612ef1615402565b602002602001015190506000600560008f6000015173ffffffffffffffffffffffffffffffffffffffff1673ffffffffffffffffffffffffffffffffffffffff16815260200190815260200160002060008f608001518e81518110612f5857612f58615402565b60200260200101516000015173ffffffffffffffffffffffffffffffffffffffff1673ffffffffffffffffffffffffffffffffffffffff16815260200190815260200160002060008f608001518e81518110612fb657612fb6615402565b6020026020010151604001518152602001908152602001600020549050600061300f8f608001518e81518110612fee57612fee615402565b60200260200101516020015160ff166000846130989092919063ffffffff16565b90508084111561301d578093505b5050604080516002815260208101849052808201839052606081019091528660028151811061304e5761304e615402565b6020908102919091018101919091526040805160e0810182529e8f52908e019b909b52998c015260608b019890985250608089019190915260a08801525050505060c08301525090565b600082601211156130cd57601283900360028316156130c3576130bb8582613c1d565b915050612538565b6130bb8582613ca3565b6012831115613116577fffffffffffffffffffffffffffffffffffffffffffffffffffffffffffffffee8301600183161561310c576130bb8582613cdb565b6130bb8582613d29565b5082612538565b60006131338484670de0b6b3a764000085613d4c565b949350505050565b6000826012111561315e576012839003600183161561310c576130bb8582613cdb565b6012831115613116577fffffffffffffffffffffffffffffffffffffffffffffffffffffffffffffffee830160028316156130c3576130bb8582613c1d565b8281608001516003815181106131b5576131b5615402565b60200260200101516004815181106131cf576131cf615402565b6020026020010181815250508181608001516004815181106131f3576131f3615402565b602002602001015160048151811061320d5761320d615402565b6020908102919091010152821561331a57835173ffffffffffffffffffffffffffffffffffffffff1660009081526005602052604081206080830151805186939190600390811061326057613260615402565b602002602001015160008151811061327a5761327a615402565b602002602001015173ffffffffffffffffffffffffffffffffffffffff1673ffffffffffffffffffffffffffffffffffffffff168152602001908152602001600020600083608001516003815181106132d5576132d5615402565b60200260200101516002815181106132ef576132ef615402565b6020026020010151815260200190815260200160002060008282546133149190614f52565b90915550505b811561341c57835173ffffffffffffffffffffffffffffffffffffffff1660009081526005602052604081206080830151805185939190600490811061336257613362615402565b602002602001015160008151811061337c5761337c615402565b602002602001015173ffffffffffffffffffffffffffffffffffffffff1673ffffffffffffffffffffffffffffffffffffffff168152602001908152602001600020600083608001516004815181106133d7576133d7615402565b60200260200101516002815181106133f1576133f1615402565b602002602001015181526020019081526020016000206000828254613416919061554e565b90915550505b7f17a5c0f3785132a57703932032f6863e7920434150aa1dc940e567b440fdce1f338260800151604051613451929190615a99565b60405180910390a160c081015151156134e25783604001516020015173ffffffffffffffffffffffffffffffffffffffff1663946aadc68260a001518360c001516040518363ffffffff1660e01b81526004016134af929190615ac8565b600060405180830381600087803b1580156134c957600080fd5b505af11580156134dd573d6000803e3d6000fd5b505050505b8360200151156127df5760008085604001516000015173ffffffffffffffffffffffffffffffffffffffff16636715f8258760400151602001518560a001516135328a6040015160400151613da9565b87608001516040518563ffffffff1660e01b8152600401613556949392919061599f565b600060405180830381865afa158015613573573d6000803e3d6000fd5b505050506040513d6000823e601f3d9081017fffffffffffffffffffffffffffffffffffffffffffffffffffffffffffffffe01682016040526135b99190810190615a35565b805191935091501561363f5785604001516020015173ffffffffffffffffffffffffffffffffffffffff1663946aadc68460a00151836040518363ffffffff1660e01b815260040161360c929190615ac8565b600060405180830381600087803b15801561362657600080fd5b505af115801561363a573d6000803e3d6000fd5b505050505b505050505050565b60025460009073ffffffffffffffffffffffffffffffffffffffff858116911614801561368e575060015473ffffffffffffffffffffffffffffffffffffffff8481169116145b156136d15760006136aa6003548461375e90919063ffffffff16565b90506136b6818461554e565b925080600360008282546136ca919061554e565b9091555050505b81156123595761235973ffffffffffffffffffffffffffffffffffffffff85168484612856565b6137236040518060800160405280600081526020016000815260200160008152602001600081525090565b61372e818484613dd4565b610723818385613dd4565b60606125388383604051806060016040528060278152602001615ced60279139613e8c565b600081831061376d5781612538565b5090919050565b60006137d6826040518060400160405280602081526020017f5361666545524332303a206c6f772d6c6576656c2063616c6c206661696c65648152508573ffffffffffffffffffffffffffffffffffffffff16613f119092919063ffffffff16565b90508051600014806137f75750808060200190518101906137f79190615ae1565b610346576040517f08c379a000000000000000000000000000000000000000000000000000000000815260206004820152602a60248201527f5361666545524332303a204552433230206f7065726174696f6e20646964206e60448201527f6f742073756363656564000000000000000000000000000000000000000000006064820152608401610267565b60008061388f846128fd565b600202600101905060006138a38585613f20565b949091019093016020019392505050565b60006008825110156138c857506000919050565b506008015167ffffffffffffffff1667ff0a89c674ee78741490565b60606000825167ffffffffffffffff81111561390257613902614763565b60405190808252806020026020018201604052801561392b578160200160208202803683370190505b50905060008084511161393f576000613945565b83516001015b855160010101905060008167ffffffffffffffff81111561396857613968614763565b60405190808252806020026020018201604052801561399b57816020015b60608152602001906001900390816139865790505b50905060006139c0604080516002815233602082015230818301526060810190915290565b8282815181106139d2576139d2615402565b602002602001018190525060005b8751811015613a30578180600101925050878181518110613a0357613a03615402565b6020026020010151838381518110613a1d57613a1d615402565b60209081029190910101526001016139e0565b50855115613bea57808060010191505083828281518110613a5357613a53615402565b602002602001018190525060005b8651811015613be857613b12878281518110613a7f57613a7f615402565b602002602001015160000151613aef613abc8a8581518110613aa357613aa3615402565b6020026020010151602001518051602090810291012090565b7f19457468657265756d205369676e6564204d6573736167653a0a3332000000006000908152601c91909152603c902090565b898481518110613b0157613b01615402565b602002602001015160400151613f98565b613b4b576040517f52bf984800000000000000000000000000000000000000000000000000000000815260048101829052602401610267565b868181518110613b5d57613b5d615402565b60200260200101516000015173ffffffffffffffffffffffffffffffffffffffff16858281518110613b9157613b91615402565b6020026020010181815250508180600101925050868181518110613bb757613bb7615402565b602002602001015160200151838381518110613bd557613bd5615402565b6020908102919091010152600101613a61565b505b5095945050505050565b6000602082901b77ffffffffffffffffffffffffffffffffffffffff0000000016600217610723565b6000604e8210613c5d578215613c53577fffffffffffffffffffffffffffffffffffffffffffffffffffffffffffffffff613c56565b60005b9050610723565b50600a81900a8281029083818381613c7757613c77615afe565b0414612359577fffffffffffffffffffffffffffffffffffffffffffffffffffffffffffffffff613133565b600a81900a613cb28184615b2d565b9050604e8210610723578215613cd257613ccd82600a615c64565b612538565b50600092915050565b6000604e8210613cff578215613cf2576001613cf5565b60005b60ff169050610723565b600a82900a808481613d1357613d13615afe565b0491508082028414612359575060010192915050565b6000604e821015613cd25781600a0a8381613d4657613d46615afe565b04612538565b600080613d5a868686614009565b90506001836002811115613d7057613d70615c70565b148015613d8d575060008480613d8857613d88615afe565b868809115b15613da057613d9d600182614f52565b90505b95945050505050565b600062010000602083901b77ffffffffffffffffffffffffffffffffffffffff000000001617610723565b60608101516040820151600091613ded9190600161311d565b604084015190915081811115613e005750805b613e42846000015160800151856020015181518110613e2157613e21615402565b60200260200101516020015160ff1660008361313b9092919063ffffffff16565b85526060840151600090613e59908390600161311d565b9050613e7c8460000151608001518560200151815181106116e0576116e0615402565b6040909601959095525050505050565b60606000808573ffffffffffffffffffffffffffffffffffffffff1685604051613eb69190615c9f565b600060405180830381855af49150503d8060008114613ef1576040519150601f19603f3d011682016040523d82523d6000602084013e613ef6565b606091505b5091509150613f0786838387614133565b9695505050505050565b606061313384846000856141d3565b6002810282016003015161ffff166000613f39846128fd565b845190915060056002830284010190811180613f555750818410155b15613f905784846040517fd3fc97bd000000000000000000000000000000000000000000000000000000008152600401610267929190615cb1565b505092915050565b6000806000613fa785856142ec565b90925090506000816004811115613fc057613fc0615c70565b148015613ff857508573ffffffffffffffffffffffffffffffffffffffff168273ffffffffffffffffffffffffffffffffffffffff16145b80613f075750613f07868686614331565b600080807fffffffffffffffffffffffffffffffffffffffffffffffffffffffffffffffff858709858702925082811083820303915050806000036140615783828161405757614057615afe565b0492505050612538565b8084116140ca576040517f08c379a000000000000000000000000000000000000000000000000000000000815260206004820152601560248201527f4d6174683a206d756c446976206f766572666c6f7700000000000000000000006044820152606401610267565b60008486880960026001871981018816978890046003810283188082028403028082028403028082028403028082028403028082028403029081029092039091026000889003889004909101858311909403939093029303949094049190911702949350505050565b606083156141c95782516000036141c25773ffffffffffffffffffffffffffffffffffffffff85163b6141c2576040517f08c379a000000000000000000000000000000000000000000000000000000000815260206004820152601d60248201527f416464726573733a2063616c6c20746f206e6f6e2d636f6e74726163740000006044820152606401610267565b5081613133565b613133838361448e565b606082471015614265576040517f08c379a000000000000000000000000000000000000000000000000000000000815260206004820152602660248201527f416464726573733a20696e73756666696369656e742062616c616e636520666f60448201527f722063616c6c00000000000000000000000000000000000000000000000000006064820152608401610267565b6000808673ffffffffffffffffffffffffffffffffffffffff16858760405161428e9190615c9f565b60006040518083038185875af1925050503d80600081146142cb576040519150601f19603f3d011682016040523d82523d6000602084013e6142d0565b606091505b50915091506142e187838387614133565b979650505050505050565b60008082516041036143225760208301516040840151606085015160001a614316878285856144d2565b9450945050505061432a565b506000905060025b9250929050565b60008060008573ffffffffffffffffffffffffffffffffffffffff16631626ba7e60e01b8686604051602401614368929190615cd3565b604080517fffffffffffffffffffffffffffffffffffffffffffffffffffffffffffffffe08184030181529181526020820180517bffffffffffffffffffffffffffffffffffffffffffffffffffffffff167fffffffff000000000000000000000000000000000000000000000000000000009094169390931790925290516143f19190615c9f565b600060405180830381855afa9150503d806000811461442c576040519150601f19603f3d011682016040523d82523d6000602084013e614431565b606091505b509150915081801561444557506020815110155b8015613f07575080517f1626ba7e00000000000000000000000000000000000000000000000000000000906144839083016020908101908401615000565b149695505050505050565b81511561449e5781518083602001fd5b806040517f08c379a00000000000000000000000000000000000000000000000000000000081526004016102679190615947565b6000807f7fffffffffffffffffffffffffffffff5d576e7357a4501ddfe92f46681b20a083111561450957506000905060036145b8565b6040805160008082526020820180845289905260ff881692820192909252606081018690526080810185905260019060a0016020604051602081039080840390855afa15801561455d573d6000803e3d6000fd5b50506040517fffffffffffffffffffffffffffffffffffffffffffffffffffffffffffffffe0015191505073ffffffffffffffffffffffffffffffffffffffff81166145b1576000600192509250506145b8565b9150600090505b94509492505050565b73ffffffffffffffffffffffffffffffffffffffff811681146129a557600080fd5b6000806000606084860312156145f857600080fd5b8335614603816145c1565b95602085013595506040909401359392505050565b60006020828403121561462a57600080fd5b5035919050565b60008060008060006080868803121561464957600080fd5b8535614654816145c1565b94506020860135614664816145c1565b935060408601359250606086013567ffffffffffffffff8082111561468857600080fd5b818801915088601f83011261469c57600080fd5b8135818111156146ab57600080fd5b8960208285010111156146bd57600080fd5b9699959850939650602001949392505050565b6000602082840312156146e257600080fd5b8135612538816145c1565b6000602082840312156146ff57600080fd5b813567ffffffffffffffff81111561471657600080fd5b82016080818503121561253857600080fd5b60006020828403121561473a57600080fd5b813567ffffffffffffffff81111561475157600080fd5b820160a0818503121561253857600080fd5b7f4e487b7100000000000000000000000000000000000000000000000000000000600052604160045260246000fd5b6040516060810167ffffffffffffffff811182821017156147b5576147b5614763565b60405290565b604051601f82017fffffffffffffffffffffffffffffffffffffffffffffffffffffffffffffffe016810167ffffffffffffffff8111828210171561480257614802614763565b604052919050565b80151581146129a557600080fd5b803561039c8161480a565b60006060828403121561483557600080fd5b61483d614792565b9050813561484a816145c1565b8152602082013561485a816145c1565b6020820152604082013561486d816145c1565b604082015292915050565b600067ffffffffffffffff82111561489257614892614763565b5060051b60200190565b803560ff8116811461039c57600080fd5b6000606082840312156148bf57600080fd5b6148c7614792565b905081356148d4816145c1565b81526148e26020830161489c565b60208201526040820135604082015292915050565b600082601f83011261490857600080fd5b8135602061491d61491883614878565b6147bb565b8281526060928302850182019282820191908785111561493c57600080fd5b8387015b8581101561495f5761495289826148ad565b8452928401928101614940565b5090979650505050505050565b600060e0828403121561497e57600080fd5b60405160a0810167ffffffffffffffff82821081831117156149a2576149a2614763565b81604052829350843591506149b6826145c1565b8183526149c560208601614818565b60208401526149d78660408701614823565b604084015260a08501359150808211156149f057600080fd5b6149fc868387016148f7565b606084015260c0850135915080821115614a1557600080fd5b50614a22858286016148f7565b6080830152505092915050565b600082601f830112614a4057600080fd5b813567ffffffffffffffff811115614a5a57614a5a614763565b614a8b60207fffffffffffffffffffffffffffffffffffffffffffffffffffffffffffffffe0601f840116016147bb565b818152846020838601011115614aa057600080fd5b816020850160208301376000918101602001919091529392505050565b600082601f830112614ace57600080fd5b81356020614ade61491883614878565b82815260059290921b84018101918181019086841115614afd57600080fd5b8286015b84811015614c2257803567ffffffffffffffff80821115614b2157600080fd5b908801906060828b037fffffffffffffffffffffffffffffffffffffffffffffffffffffffffffffffe0011215614b585760008081fd5b614b60614792565b86830135614b6d816145c1565b815260408381013583811115614b835760008081fd5b8401603f81018d13614b955760008081fd5b88810135614ba561491882614878565b81815260059190911b82018301908a8101908f831115614bc55760008081fd5b928401925b82841015614be35783358252928b0192908b0190614bca565b858c0152505050606084013583811115614bfd5760008081fd5b614c0b8d8a83880101614a2f565b918301919091525085525050918301918301614b01565b509695505050505050565b6000806000806000858703610140811215614c4757600080fd5b863567ffffffffffffffff80821115614c5f57600080fd5b614c6b8a838b0161496c565b97506020890135915080821115614c8157600080fd5b614c8d8a838b0161496c565b965060c07fffffffffffffffffffffffffffffffffffffffffffffffffffffffffffffffc084011215614cbf57600080fd5b604089019550610100890135925080831115614cda57600080fd5b614ce68a848b01614abd565b9450610120890135925080831115614cfd57600080fd5b5050614d0b88828901614abd565b9150509295509295909350565b60008060208385031215614d2b57600080fd5b823567ffffffffffffffff80821115614d4357600080fd5b818501915085601f830112614d5757600080fd5b813581811115614d6657600080fd5b8660208260051b8501011115614d7b57600080fd5b60209290920196919550909350505050565b60005b83811015614da8578181015183820152602001614d90565b50506000910152565b60008151808452614dc9816020860160208601614d8d565b601f017fffffffffffffffffffffffffffffffffffffffffffffffffffffffffffffffe0169290920160200192915050565b6000602080830181845280855180835260408601915060408160051b870101925083870160005b82811015614e6e577fffffffffffffffffffffffffffffffffffffffffffffffffffffffffffffffc0888603018452614e5c858351614db1565b94509285019290850190600101614e22565b5092979650505050505050565b600080600060608486031215614e9057600080fd5b8335614e9b816145c1565b92506020840135614eab816145c1565b929592945050506040919091013590565b60008060408385031215614ecf57600080fd5b8235614eda816145c1565b946020939093013593505050565b600060208284031215614efa57600080fd5b813567ffffffffffffffff811115614f1157600080fd5b820160e0818503121561253857600080fd5b7f4e487b7100000000000000000000000000000000000000000000000000000000600052601160045260246000fd5b8082018082111561072357610723614f23565b8183528181602085013750600060208284010152600060207fffffffffffffffffffffffffffffffffffffffffffffffffffffffffffffffe0601f840116840101905092915050565b600073ffffffffffffffffffffffffffffffffffffffff808916835280881660208401525085604083015284606083015260a06080830152614ff460a083018486614f65565b98975050505050505050565b60006020828403121561501257600080fd5b5051919050565b600082357fffffffffffffffffffffffffffffffffffffffffffffffffffffffffffffffa183360301811261504d57600080fd5b9190910192915050565b60008083357fffffffffffffffffffffffffffffffffffffffffffffffffffffffffffffffe184360301811261508c57600080fd5b83018035915067ffffffffffffffff8211156150a757600080fd5b60200191503681900382131561432a57600080fd5b60008083357fffffffffffffffffffffffffffffffffffffffffffffffffffffffffffffffe18436030181126150f157600080fd5b83018035915067ffffffffffffffff82111561510c57600080fd5b602001915060608102360382131561432a57600080fd5b60008083357fffffffffffffffffffffffffffffffffffffffffffffffffffffffffffffffe184360301811261515857600080fd5b83018035915067ffffffffffffffff82111561517357600080fd5b6020019150600581901b360382131561432a57600080fd5b600081518084526020808501945080840160005b838110156151bb5781518752958201959082019060010161519f565b509495945050505050565b6060815260006151da606083018789614f65565b82810360208401528481527f07ffffffffffffffffffffffffffffffffffffffffffffffffffffffffffffff85111561521257600080fd5b8460051b808760208401370182810360209081016040850152614ff49082018561518b565b60008060006060848603121561524c57600080fd5b8351615257816145c1565b6020850151909350615268816145c1565b6040850151909250615279816145c1565b809150509250925092565b60006060828403121561529657600080fd5b61253883836148ad565b600081518084526020808501945080840160005b838110156151bb578151805173ffffffffffffffffffffffffffffffffffffffff1688528381015160ff168489015260409081015190880152606090960195908201906001016152b4565b600073ffffffffffffffffffffffffffffffffffffffff80835116845260208301511515602085015260408301518181511660408601528160208201511660608601528160408201511660808601525050606082015160e060a085015261536960e08501826152a0565b9050608083015184820360c0860152613da082826152a0565b600073ffffffffffffffffffffffffffffffffffffffff8087168352808616602084015250608060408301526153bb60808301856152ff565b905082606083015295945050505050565b73ffffffffffffffffffffffffffffffffffffffff85168152836020820152606060408201526000613f07606083018486614f65565b7f4e487b7100000000000000000000000000000000000000000000000000000000600052603260045260246000fd5b600082357fffffffffffffffffffffffffffffffffffffffffffffffffffffffffffffff8183360301811261504d57600080fd5b60006080823603121561547757600080fd5b6040516080810167ffffffffffffffff828210818311171561549b5761549b614763565b8160405284359150808211156154b057600080fd5b6154bc3683870161496c565b8352602085013560208401526040850135604084015260608501359150808211156154e657600080fd5b506154f336828601614abd565b60608301525092915050565b600082357fffffffffffffffffffffffffffffffffffffffffffffffffffffffffffffff2183360301811261504d57600080fd5b60006020828403121561554557600080fd5b6125388261489c565b8181038181111561072357610723614f23565b600073ffffffffffffffffffffffffffffffffffffffff80871683526020608081850152865160808086015261559b6101008601826152ff565b90508188015160a086015260408089015160c08701526060808a01517fffffffffffffffffffffffffffffffffffffffffffffffffffffffffffffff808885030160e08901528381518086528686019150868160051b870101878401935060005b82811015615674577fffffffffffffffffffffffffffffffffffffffffffffffffffffffffffffffe088830301845284518a815116835289810151878b8501526156488885018261518b565b91890151848303858b01529190506156608183614db1565b968b0196958b0195935050506001016155fc565b50948a019b909b5250509095019590955250919695505050505050565b600061012073ffffffffffffffffffffffffffffffffffffffff871683528060208401526156c1818401876152ff565b905082810360408401526156d581866152ff565b9150508235606083015260208301356080830152604083013560a0830152606083013560c0830152608083013560e083015260a083013561010083015295945050505050565b60007fffffffffffffffffffffffffffffffffffffffffffffffffffffffffffffffff820361574c5761574c614f23565b5060010190565b6000610723368361496c565b60008083357fffffffffffffffffffffffffffffffffffffffffffffffffffffffffffffffe184360301811261579457600080fd5b830160208101925035905067ffffffffffffffff8111156157b457600080fd5b60608102360382131561432a57600080fd5b8183526000602080850194508260005b858110156151bb5781356157e9816145c1565b73ffffffffffffffffffffffffffffffffffffffff16875260ff61580e83850161489c565b168784015260408281013590880152606096870196909101906001016157d6565b600073ffffffffffffffffffffffffffffffffffffffff808616835260606020840152843561585d816145c1565b8116606084015260208501356158728161480a565b151560808401526040850135615887816145c1565b811660a0840152606085013561589c816145c1565b811660c084015260808501356158b1816145c1565b1660e08301526158c460a085018561575f565b60e06101008501526158db610140850182846157c6565b9150506158eb60c086018661575f565b7fffffffffffffffffffffffffffffffffffffffffffffffffffffffffffffffa0858403016101208601526159218382846157c6565b9350505050826040830152949350505050565b60208152600061253860208301846152ff565b6020815260006125386020830184614db1565b6000815180845260208085019450848260051b860182860160005b8581101561495f57838303895261598d83835161518b565b98850198925090840190600101615975565b73ffffffffffffffffffffffffffffffffffffffff85168152836020820152826040820152608060608201526000613f07608083018461595a565b600082601f8301126159eb57600080fd5b815160206159fb61491883614878565b82815260059290921b84018101918181019086841115615a1a57600080fd5b8286015b84811015614c225780518352918301918301615a1e565b60008060408385031215615a4857600080fd5b825167ffffffffffffffff80821115615a6057600080fd5b615a6c868387016159da565b93506020850151915080821115615a8257600080fd5b50615a8f858286016159da565b9150509250929050565b73ffffffffffffffffffffffffffffffffffffffff83168152604060208201526000613133604083018461595a565b828152604060208201526000613133604083018461518b565b600060208284031215615af357600080fd5b81516125388161480a565b7f4e487b7100000000000000000000000000000000000000000000000000000000600052601260045260246000fd5b808202811582820484141761072357610723614f23565b600181815b80851115615b9d57817fffffffffffffffffffffffffffffffffffffffffffffffffffffffffffffffff04821115615b8357615b83614f23565b80851615615b9057918102915b93841c9390800290615b49565b509250929050565b600082615bb457506001610723565b81615bc157506000610723565b8160018114615bd75760028114615be157615bfd565b6001915050610723565b60ff841115615bf257615bf2614f23565b50506001821b610723565b5060208310610133831016604e8410600b8410161715615c20575081810a610723565b615c2a8383615b44565b807fffffffffffffffffffffffffffffffffffffffffffffffffffffffffffffffff04821115615c5c57615c5c614f23565b029392505050565b60006125388383615ba5565b7f4e487b7100000000000000000000000000000000000000000000000000000000600052602160045260246000fd5b6000825161504d818460208701614d8d565b604081526000615cc46040830185614db1565b90508260208301529392505050565b8281526040602082015260006131336040830184614db156fe416464726573733a206c6f772d6c6576656c2064656c65676174652063616c6c206661696c6564",
    "linkReferences": {}
  },
  "methodIdentifiers": {
    "addOrder(((address,uint8,uint256)[],(address,uint8,uint256)[],(address,bytes,uint256[]),bytes))": "847a1bc9",
    "clear((address,bool,(address,address,address),(address,uint8,uint256)[],(address,uint8,uint256)[]),(address,bool,(address,address,address),(address,uint8,uint256)[],(address,uint8,uint256)[]),(uint256,uint256,uint256,uint256,uint256,uint256),(address,uint256[],bytes)[],(address,uint256[],bytes)[])": "9e18968b",
    "deposit(address,uint256,uint256)": "0efe6a8b",
    "flashFee(address,uint256)": "d9d98ce4",
    "flashLoan(address,address,uint256,bytes)": "5cffe9de",
    "maxFlashLoan(address)": "613255ab",
    "multicall(bytes[])": "ac9650d8",
    "orderExists(bytes32)": "2cb77e9f",
    "removeOrder((address,bool,(address,address,address),(address,uint8,uint256)[],(address,uint8,uint256)[]))": "e23746a3",
    "takeOrders((uint256,uint256,uint256,((address,bool,(address,address,address),(address,uint8,uint256)[],(address,uint8,uint256)[]),uint256,uint256,(address,uint256[],bytes)[])[],bytes))": "8a44689c",
    "vaultBalance(address,address,uint256)": "d97b2e48",
    "withdraw(address,uint256,uint256)": "b5c5f672"
  },
  "id": 172
}