{
  "abi": [
    {
      "inputs": [
        {
          "components": [
            {
              "internalType": "address",
              "name": "interpreter",
              "type": "address"
            },
            {
              "internalType": "address",
              "name": "store",
              "type": "address"
            },
            {
              "internalType": "bytes",
              "name": "meta",
              "type": "bytes"
            }
          ],
          "internalType": "struct RainterpreterExpressionDeployerConstructionConfig",
          "name": "config_",
          "type": "tuple"
        }
      ],
      "stateMutability": "nonpayable",
      "type": "constructor"
    },
    {
      "inputs": [
        {
          "internalType": "uint256",
          "name": "dynamicLength",
          "type": "uint256"
        },
        {
          "internalType": "uint256",
          "name": "standardOpsLength",
          "type": "uint256"
        }
      ],
      "name": "BadDynamicLength",
      "type": "error"
    },
    {
      "inputs": [
        {
          "internalType": "uint256",
          "name": "inputs",
          "type": "uint256"
        }
      ],
      "name": "DoWhileMaxInputs",
      "type": "error"
    },
    {
      "inputs": [
        {
          "internalType": "uint256",
          "name": "inputs",
          "type": "uint256"
        },
        {
          "internalType": "uint256",
          "name": "outputs",
          "type": "uint256"
        }
      ],
      "name": "InsufficientLoopOutputs",
      "type": "error"
    },
    {
      "inputs": [
        {
          "internalType": "uint256",
          "name": "minStackOutputs",
          "type": "uint256"
        },
        {
          "internalType": "uint256",
          "name": "actualStackOutputs",
          "type": "uint256"
        }
      ],
      "name": "MinFinalStack",
      "type": "error"
    },
    {
      "inputs": [],
      "name": "MinStackBottom",
      "type": "error"
    },
    {
      "inputs": [
        {
          "internalType": "uint256",
          "name": "expectedEntrypoints",
          "type": "uint256"
        },
        {
          "internalType": "uint256",
          "name": "actualEntrypoints",
          "type": "uint256"
        }
      ],
      "name": "MissingEntrypoint",
      "type": "error"
    },
    {
      "inputs": [
        {
          "internalType": "int256",
          "name": "price",
          "type": "int256"
        }
      ],
      "name": "NotPosIntPrice",
      "type": "error"
    },
    {
      "inputs": [
        {
          "internalType": "uint256",
          "name": "constantsLength",
          "type": "uint256"
        },
        {
          "internalType": "uint256",
          "name": "constantsRead",
          "type": "uint256"
        }
      ],
      "name": "OutOfBoundsConstantsRead",
      "type": "error"
    },
    {
      "inputs": [
        {
          "internalType": "uint256",
          "name": "stackTopIndex",
          "type": "uint256"
        },
        {
          "internalType": "uint256",
          "name": "stackRead",
          "type": "uint256"
        }
      ],
      "name": "OutOfBoundsStackRead",
      "type": "error"
    },
    {
      "inputs": [
        {
          "internalType": "uint256",
          "name": "x",
          "type": "uint256"
        },
        {
          "internalType": "uint256",
          "name": "y",
          "type": "uint256"
        }
      ],
      "name": "PRBMath_MulDiv18_Overflow",
      "type": "error"
    },
    {
      "inputs": [
        {
          "internalType": "uint256",
          "name": "x",
          "type": "uint256"
        },
        {
          "internalType": "uint256",
          "name": "y",
          "type": "uint256"
        },
        {
          "internalType": "uint256",
          "name": "denominator",
          "type": "uint256"
        }
      ],
      "name": "PRBMath_MulDiv_Overflow",
      "type": "error"
    },
    {
      "inputs": [
        {
          "internalType": "UD60x18",
          "name": "x",
          "type": "uint256"
        }
      ],
      "name": "PRBMath_UD60x18_Ceil_Overflow",
      "type": "error"
    },
    {
      "inputs": [
        {
          "internalType": "UD60x18",
          "name": "x",
          "type": "uint256"
        }
      ],
      "name": "PRBMath_UD60x18_Exp2_InputTooBig",
      "type": "error"
    },
    {
      "inputs": [
        {
          "internalType": "UD60x18",
          "name": "x",
          "type": "uint256"
        }
      ],
      "name": "PRBMath_UD60x18_Exp_InputTooBig",
      "type": "error"
    },
    {
      "inputs": [
        {
          "internalType": "UD60x18",
          "name": "x",
          "type": "uint256"
        },
        {
          "internalType": "UD60x18",
          "name": "y",
          "type": "uint256"
        }
      ],
      "name": "PRBMath_UD60x18_Gm_Overflow",
      "type": "error"
    },
    {
      "inputs": [
        {
          "internalType": "UD60x18",
          "name": "x",
          "type": "uint256"
        }
      ],
      "name": "PRBMath_UD60x18_Log_InputTooSmall",
      "type": "error"
    },
    {
      "inputs": [
        {
          "internalType": "UD60x18",
          "name": "x",
          "type": "uint256"
        }
      ],
      "name": "PRBMath_UD60x18_Sqrt_Overflow",
      "type": "error"
    },
    {
      "inputs": [
        {
          "internalType": "uint256",
          "name": "stackHighwaterIndex",
          "type": "uint256"
        },
        {
          "internalType": "uint256",
          "name": "stackTopIndex",
          "type": "uint256"
        }
      ],
      "name": "StackPopUnderflow",
      "type": "error"
    },
    {
      "inputs": [
        {
          "internalType": "uint256",
          "name": "updatedAt",
          "type": "uint256"
        },
        {
          "internalType": "uint256",
          "name": "staleAfter",
          "type": "uint256"
        }
      ],
      "name": "StalePrice",
      "type": "error"
    },
    {
      "inputs": [
        {
          "internalType": "uint256",
          "name": "startBit",
          "type": "uint256"
        },
        {
          "internalType": "uint256",
          "name": "length",
          "type": "uint256"
        }
      ],
      "name": "TruncatedEncoding",
      "type": "error"
    },
    {
      "inputs": [
        {
          "internalType": "bytes32",
          "name": "actualBytecodeHash",
          "type": "bytes32"
        }
      ],
      "name": "UnexpectedInterpreterBytecodeHash",
      "type": "error"
    },
    {
      "inputs": [
        {
          "internalType": "bytes32",
          "name": "actualOpMeta",
          "type": "bytes32"
        }
      ],
      "name": "UnexpectedOpMetaHash",
      "type": "error"
    },
    {
      "inputs": [
        {
          "internalType": "bytes",
          "name": "actualPointers",
          "type": "bytes"
        }
      ],
      "name": "UnexpectedPointers",
      "type": "error"
    },
    {
      "inputs": [
        {
          "internalType": "bytes32",
          "name": "actualBytecodeHash",
          "type": "bytes32"
        }
      ],
      "name": "UnexpectedStoreBytecodeHash",
      "type": "error"
    },
    {
      "inputs": [],
      "name": "WriteError",
      "type": "error"
    },
    {
      "inputs": [],
      "name": "ZeroInputs",
      "type": "error"
    },
    {
      "anonymous": false,
      "inputs": [
        {
          "indexed": false,
          "internalType": "address",
          "name": "sender",
          "type": "address"
        },
        {
          "indexed": false,
          "internalType": "address",
          "name": "deployer",
          "type": "address"
        },
        {
          "indexed": false,
          "internalType": "address",
          "name": "interpreter",
          "type": "address"
        },
        {
          "indexed": false,
          "internalType": "address",
          "name": "store",
          "type": "address"
        },
        {
          "indexed": false,
          "internalType": "bytes",
          "name": "opMeta",
          "type": "bytes"
        }
      ],
      "name": "DISpair",
      "type": "event"
    },
    {
      "anonymous": false,
      "inputs": [
        {
          "indexed": false,
          "internalType": "address",
          "name": "sender",
          "type": "address"
        },
        {
          "indexed": false,
          "internalType": "address",
          "name": "expression",
          "type": "address"
        }
      ],
      "name": "ExpressionAddress",
      "type": "event"
    },
    {
      "anonymous": false,
      "inputs": [
        {
          "indexed": false,
          "internalType": "address",
          "name": "sender",
          "type": "address"
        },
        {
          "indexed": false,
          "internalType": "bytes[]",
          "name": "sources",
          "type": "bytes[]"
        },
        {
          "indexed": false,
          "internalType": "uint256[]",
          "name": "constants",
          "type": "uint256[]"
        },
        {
          "indexed": false,
          "internalType": "uint256[]",
          "name": "minOutputs",
          "type": "uint256[]"
        }
      ],
      "name": "NewExpression",
      "type": "event"
    },
    {
      "inputs": [
        {
          "internalType": "bytes[]",
          "name": "sources_",
          "type": "bytes[]"
        },
        {
          "internalType": "uint256[]",
          "name": "constants_",
          "type": "uint256[]"
        },
        {
          "internalType": "uint256[]",
          "name": "minOutputs_",
          "type": "uint256[]"
        }
      ],
      "name": "deployExpression",
      "outputs": [
        {
          "internalType": "contract IInterpreterV1",
          "name": "",
          "type": "address"
        },
        {
          "internalType": "contract IInterpreterStoreV1",
          "name": "",
          "type": "address"
        },
        {
          "internalType": "address",
          "name": "",
          "type": "address"
        }
      ],
      "stateMutability": "nonpayable",
      "type": "function"
    },
    {
      "inputs": [],
      "name": "interpreter",
      "outputs": [
        {
          "internalType": "contract IInterpreterV1",
          "name": "",
          "type": "address"
        }
      ],
      "stateMutability": "view",
      "type": "function"
    },
    {
      "inputs": [],
      "name": "store",
      "outputs": [
        {
          "internalType": "contract IInterpreterStoreV1",
          "name": "",
          "type": "address"
        }
      ],
      "stateMutability": "view",
      "type": "function"
    },
    {
      "inputs": [
        {
          "internalType": "bytes4",
          "name": "interfaceId_",
          "type": "bytes4"
        }
      ],
      "name": "supportsInterface",
      "outputs": [
        {
          "internalType": "bool",
          "name": "",
          "type": "bool"
        }
      ],
      "stateMutability": "view",
      "type": "function"
    }
  ],
  "bytecode": {
    "object": "0x60c06040523480156200001157600080fd5b5060405162004c5338038062004c53833981016040819052620000349162000453565b6000816000015190506000816001600160a01b031663f933c72f6040518163ffffffff1660e01b8152600401600060405180830381865afa1580156200007e573d6000803e3d6000fd5b505050506040513d6000823e601f3d908101601f19168201604052620000a8919081019062000504565b90506040518060e0016040528060a2815260200162004bb160a2913980519060200120818051906020012014620000ff5780604051634c1af20160e11b8152600401620000f6919062000572565b60405180910390fd5b813f7f4f30b99af2f89c83d17ebf25b57e63148560d35bbe92414ecfae8ff0e1c9585581146200014657604051630eec293f60e11b815260048101829052602401620000f6565b6020840151803f7f4f8d49bb4a5da0b67865017e2eff6618b39cd0ecf65c631b9b2a793df2afc7508114620001925760405163cc0415fd60e01b815260048101829052602401620000f6565b604086015180516020909101207fc633bd425d2c692ef398442774a5c7c81427e04268c7169fcd1670f93ada07318114620001e4576040516343d0fe5760e11b815260048101829052602401620000f6565b6001600160a01b03808716608052831660a052865160208801516040808a015190517f1788931a083e1bfada6cb062b5426ea97c7866b814b4d1173909e4018f2122f1936200023793339330936200058e565b60405180910390a1604080518082018252601581527f4945787072657373696f6e4465706c6f79657256310000000000000000000000602082015290516365ba36c160e01b8152731820a4b7618bde71dce8cdc73aab6c95905fad24916329965a1d91309184916365ba36c191620002b29160040162000572565b602060405180830381865afa158015620002d0573d6000803e3d6000fd5b505050506040513d601f19601f82011682018060405250810190620002f69190620005d7565b6040516001600160e01b031960e085901b1681526001600160a01b0390921660048301526024820152306044820152606401600060405180830381600087803b1580156200034357600080fd5b505af115801562000358573d6000803e3d6000fd5b5050505050505050505050620005f1565b634e487b7160e01b600052604160045260246000fd5b80516001600160a01b03811681146200039757600080fd5b919050565b60005b83811015620003b95781810151838201526020016200039f565b50506000910152565b600082601f830112620003d457600080fd5b81516001600160401b0380821115620003f157620003f162000369565b604051601f8301601f19908116603f011681019082821181831017156200041c576200041c62000369565b816040528381528660208588010111156200043657600080fd5b620004498460208301602089016200039c565b9695505050505050565b6000602082840312156200046657600080fd5b81516001600160401b03808211156200047e57600080fd5b90830190606082860312156200049357600080fd5b604051606081018181108382111715620004b157620004b162000369565b604052620004bf836200037f565b8152620004cf602084016200037f565b6020820152604083015182811115620004e757600080fd5b620004f587828601620003c2565b60408301525095945050505050565b6000602082840312156200051757600080fd5b81516001600160401b038111156200052e57600080fd5b6200053c84828501620003c2565b949350505050565b600081518084526200055e8160208601602086016200039c565b601f01601f19169290920160200192915050565b60208152600062000587602083018462000544565b9392505050565b6001600160a01b038681168252858116602083015284811660408301528316606082015260a060808201819052600090620005cc9083018462000544565b979650505050505050565b600060208284031215620005ea57600080fd5b5051919050565b60805160a05161458e620006236000396000818160fa0152610355015260008181607e0152610333015261458e6000f3fe608060405234801561001057600080fd5b506004361061004c5760003560e01c806301ffc9a7146100515780633a35cf17146100795780635511cb67146100b8578063975057e7146100f5575b600080fd5b61006461005f366004613d15565b61011c565b60405190151581526020015b60405180910390f35b6100a07f000000000000000000000000000000000000000000000000000000000000000081565b6040516001600160a01b039091168152602001610070565b6100cb6100c6366004613e15565b610153565b604080516001600160a01b0394851681529284166020840152921691810191909152606001610070565b6100a07f000000000000000000000000000000000000000000000000000000000000000081565b60006001600160e01b03198216635511cb6760e01b148061014d57506001600160e01b031982166301ffc9a760e01b145b92915050565b600080600085518451111561018d5783518651604051637d2d70db60e01b8152600481019290925260248201526044015b60405180910390fd5b60006101a1878761019c610386565b6103c8565b604081015160608201519192509060005b875181101561020d5760408401839052606084018290526101fa84826101db6002600019613f8e565b8b85815181106101ed576101ed613fa2565b6020026020010151610465565b508061020581613fb8565b9150506101b2565b50600061022b8460800151856040015161053e90919063ffffffff16565b90507ff66a0c19428b142e06d7aa23d5f18b9b9ff08408fefcdfb8bb27cb34929f7786338b8b8b604051610262949392919061400c565b60405180910390a16000806102b961027b8d8d86610547565b60408051602c8301601f1916810190915261ffff60e81b600190920160e81b919091166b61000080600c6000396000f360a01b17815290600d820190565b915091506102e2818d8d866040518060e0016040528060a281526020016144b760a291396105c8565b60006102ed8361062d565b604080513381526001600160a01b03831660208201529192507fce6e4a4a7b561c65155990775d2faf8a581292f97859ce67e366fd53686b31f1910160405180910390a17f00000000000000000000000000000000000000000000000000000000000000009d7f00000000000000000000000000000000000000000000000000000000000000009d50909b509950505050505050505050565b6040805160008082526020820190925260609190816103b6565b613d0b8152602001906001900390816103a05790505b5090506103c281610675565b91505090565b6104016040518060c001604052806060815260200160008152602001600081526020016000815260200160008152602001606081525090565b6040805160c081018252858152845160208201529081016104256002600019613f8e565b815260200161044161043a6002600019613f8e565b601f190190565b81526020016104536002600019613f8e565b815260200183905290505b9392505050565b6000600260001904856040015110156104915760405163271592cf60e01b815260040160405180910390fd5b845160208581029091010151805181015b808210156104fc57600080600484019350835161ffff8116915061ffff8160101c169250506104f38982898c60a0015186815181106104e3576104e3613fa2565b602002602001015163ffffffff16565b965050506104a2565b6040870151602090860304808511156105325760405163f993c6e760e01b81526004810186905260248101829052604401610184565b50939695505050505050565b60209190030490565b6000806105556020826140cb565b9050610565845160209081020190565b61056f90826140cb565b905060005b85518110156105bf576105a186828151811061059257610592613fa2565b60200260200101515160200190565b6105ab90836140cb565b9150806105b781613fb8565b915050610574565b50949350505050565b818552602085016105d98185610957565b9050606060005b8651811015610623578681815181106105fb576105fb613fa2565b6020026020010151915061060f8285610977565b61061983836109b9565b92506001016105e0565b5050505050505050565b6000806000600d9050835160e81c61ffff168101846000f091506001600160a01b03821661066e5760405163046a55db60e11b815260040160405180910390fd5b5092915050565b6060600060405180610a40016040528061068d605190565b67ffffffffffffffff1667ffffffffffffffff1681526020016109d98152602001610a2d8152602001610a778152602001610a8f8152602001610a9e8152602001610a9e8152602001610aaa8152602001610ac38152602001610b178152602001610b8e8152602001610bab8152602001610c028152602001610c648152602001610ce28152602001610d888152602001610d988152602001610da78152602001610db78152602001610dc68152602001610dd58152602001610de48152602001610df38152602001610db78152602001610e028152602001610e118152602001610a9e8152602001610a9e8152602001610e218152602001610e318152602001610e418152602001610e518152602001610e618152602001610e718152602001610e818152602001610e918152602001610ea18152602001610eb08152602001610ebf8152602001610ece8152602001610edd8152602001610eec8152602001610efb8152602001610f0c8152602001610f298152602001610efb8152602001610f388152602001610f478152602001610f568152602001610f658152602001610f748152602001610f838152602001610f928152602001610fa18152602001610fb08152602001610fbf8152602001610fce8152602001610fdd8152602001610fec8152602001610ffb815260200161100a81526020016110198152602001611028815260200161103781526020016110468152602001611055815260200161106581526020016110758152602001611085815260200161109481526020016110a381526020016110b281526020016110c181526020016110d081526020016110df8152602001610aaa81526020016110ee81526020016110fe815260200161110e815260200161111e815260200161112d81526020016111688152509050600061093982611177565b905061094581856111ad565b805b949350505050565b815260200190565b600061045e8261097184518661094f90919063ffffffff16565b906111e3565b815161ffff9061ffff1990840160028481019086015b828110156109b0578051858116600202830151861690851617815260040161098d565b50505050505050565b600061045e826109d384518661094f90919063ffffffff16565b906111fb565b600060ff600884901c81169084166101008183011115610a16576040516316655de160e11b81526004810183905260248101829052604401610184565b610a23868561121561122d565b9695505050505050565b600060ff600884901c81169084166101008183011115610a6a576040516316655de160e11b81526004810183905260248101829052604401610184565b610a238685611243611269565b6000610947610a86858461127a565b85906008611290565b600061094784836112ce611269565b600061094784836112da565b6000613d0b610aba85848361122d565b95945050505050565b6000600f83811690600885811c91821691600c87901c91828401916010600160f81b03169088901b610f0016178117610afd8988866112e9565b9650610b0a898289610b17565b9998505050505050505050565b60408301516060840151600091600f85811692600487901c90911691600887901c91610b448988876112fd565b60408a0152601f19870160608a0152610b5f89848987610465565b50606089018190526040890151610b78908a9086611290565b6040999099019190915250959695505050505050565b6000826003811115610ba257610ba26140de565b50909392505050565b600060ff8316600f8110610bd55760405163316e6a3760e01b815260048101829052602401610184565b60018101600481901b8517610bf7610bee888388610b17565b88906001611317565b979650505050505050565b6020830151600090601f84811691600586901c90911690600a86901c908110610c4e576020870151604051634485473560e11b8152600481019190915260248101829052604401610184565b610bf7610c5c8887866112fd565b889084611290565b6000600c83901c600f80851690600486901c1681811015610ca25760405163508a8d2f60e01b81526004810183905260248101829052604401610184565b6060870151610fff87169060005b85811015610cd45760608a01829052610cca8a848a610b17565b9750600101610cb0565b509598975050505050505050565b600060018381169084901c81610d4a576040860151602090850304808210610d2757604051630e5b9e0b60e11b81526004810182905260248101839052604401610184565b60408701516060880151610d3f916020850201611324565b606088015250610d7e565b85602001518110610d7e576020860151604051634485473560e11b8152600481019190915260248101829052604401610184565b610a2386856112da565b6000610947848361133a8661136b565b6000610947848361137b6113ef565b6000610947848361140086611476565b60006109478483611494611269565b6000610947848361150361122d565b600061094784836115676113ef565b600061094784836115a0611269565b600061094784836115d061122d565b60006109478483611643611269565b600061094784836116bf866116cc565b600061094784836116d98661136b565b600061094784836116e58661136b565b600061094784836116f18661136b565b600061094784836113248661136b565b600061094784836116fd8661136b565b6000610947848361170c8661136b565b600061094784836117188661136b565b600061094784836117248661136b565b6000610947848361173061122d565b60006109478483611757611269565b60006109478483611770611269565b6000610947848361178b611269565b600061094784836117a461122d565b600061094784836117b161122d565b6000613d0b610aba8584838761136b565b6000610947826117be610f208660016140cb565b87929190611476565b600061094784836117ce611269565b600061094784836117d2611269565b600061094784836117d661122d565b600061094784836117da611269565b600061094784836117de611269565b600061094784836117ea61122d565b600061094784836117f5611269565b6000610947848361180161122d565b6000610947848361180c61122d565b6000610947848361181761122d565b6000610947848361182f61122d565b60006109478483611841611269565b6000610947848361184d61122d565b6000610947848361185861122d565b6000610947848361186361122d565b6000610947848361186e61122d565b60006109478483611879611269565b60006109478483611885611269565b60006109478483611891611269565b6000610947848361189d61122d565b600061094784836118a88661136b565b600061094784836118c58661136b565b600061094784836118f68661136b565b6000610947848361190c61199b565b600061094784836119ac61122d565b600061094784836119ec61122d565b60006109478483611a2c61122d565b60006109478483611aa161122d565b60006109478483611ae161122d565b60006109478483611b216113ef565b6000613d0b610aba858483611b5a565b60006109478483611b6886611b99565b60006109478483611bac86611c20565b60006109478483611c33611269565b600060ff83168082036111535760405163904c1f6d60e01b815260040160405180910390fd5b610aba6111618685846112fd565b86906112da565b60006109478483611c92611269565b805181906051146111a857805160405163c8b5690160e01b8152600481019190915260516024820152604401610184565b919050565b6040518251825160208083028601018311156111c857600080fd5b6020810283016040520183526111de8282611caa565b505050565b60006111ef8284611caa565b8151602002830161045e565b600061120c60208301848451611cbe565b8151830161045e565b60ff80831660020a6000190160089390931c161c1690565b600061094761123c858561127a565b85906112da565b60ff83811660020a6000190192831660089490941c1692831b9190921b19919091161790565b600061094761123c858560026112fd565b601f1901600061128a8383611cfe565b50919050565b6000602082028301925060018211156112bc576112b6601f198401606086015190611324565b60608501525b6112c68484611d49565b509092915050565b600061045e8383611d5e565b602001600061128a8383611d49565b600060208202830192506112c68484611d49565b600081156112c65760208202830392506112c68484611cfe565b6000602082028303610947565b6000818311611333578161045e565b5090919050565b60008160405160200161134d91906140f4565b60408051601f19818403018152919052805160209091012092915050565b6000610aba6111618686856112fd565b604051627eeac760e11b81526001600160a01b038381166004830152602482018390526000919085169062fdd58e906044015b602060405180830381865afa1580156113cb573d6000803e3d6000fd5b505050506040513d601f19601f82011682018060405250810190610947919061412a565b600061094761123c858560036112fd565b6040516313849cfd60e21b81526060906001600160a01b03851690634e1273f4906114319086908690600401614143565b600060405180830381865afa15801561144e573d6000803e3d6000fd5b505050506040513d6000823e601f3d908101601f191682016040526109479190810190614199565b6000610aba61148c8686600160028702016112fd565b869084611290565b6040516370a0823160e01b81526001600160a01b038281166004830152600091908416906370a08231906024015b602060405180830381865afa1580156114df573d6000803e3d6000fd5b505050506040513d601f19601f8201168201806040525081019061045e919061412a565b6000816001600160a01b03166318160ddd6040518163ffffffff1660e01b8152600401602060405180830381865afa158015611543573d6000803e3d6000fd5b505050506040513d601f19601f8201168201806040525081019061014d919061412a565b60405163277166bf60e11b81526001600160a01b0383811660048301526024820183905260009190851690634ee2cd7e906044016113ae565b604051630981b24d60e41b8152600481018290526000906001600160a01b0384169063981b24d0906024016114c2565b6000816001600160a01b0316638da5cb5b6040518163ffffffff1660e01b8152600401602060405180830381865afa158015611610573d6000803e3d6000fd5b505050506040513d601f19601f82011682018060405250810190611634919061421f565b6001600160a01b031692915050565b6040516331a9108f60e11b8152600481018290526000906001600160a01b03841690636352211e90602401602060405180830381865afa15801561168b573d6000803e3d6000fd5b505050506040513d601f19601f820116820180604052508101906116af919061421f565b6001600160a01b03169392505050565b806116c957600080fd5b50565b6000610aba8585846112fd565b600061045e82846140cb565b600061045e8284613f8e565b600061045e828461432c565b6000818310611333578161045e565b600061045e8284614338565b600061045e828461434c565b600061045e8284614363565b600061045e600184901c60018516600281111561174f5761174f6140de565b849190611e9a565b60006109478282611769868883611e9a565b9190611eeb565b60006109478360018616600281111561174f5761174f6140de565b6000610947828261179d868883611e9a565b9190611f01565b600061045e828483611f17565b600061045e828483611f66565b6060600084116112c65781610947565b1490565b1090565b1590565b1190565b600061045e8383611fa8565b600061014d82611fbb565b600061045e8383612003565b600061014d8261201e565b600061014d8261206d565b6000670de0b6b3a7640000820680151502820361014d565b6000670de0b6b3a7640000820661014d565b600061045e83836120c2565b600061014d82612129565b600061014d8261214c565b600061014d8261217d565b600061014d82612e0f565b600061045e8383612f42565b600061045e8383612f51565b600061045e8383612fae565b600061014d8261300e565b60008282018381106118ba5780610947565b600019949350505050565b6000826000036118d75750600061014d565b828202828482816118ea576118ea613f62565b04036118ba5780610947565b600081831161190657600061045e565b50900390565b604051631b2f65c960e31b81526001600160a01b0384811660048301528381166024830152604482018390526000919086169063d97b2e4890606401602060405180830381865afa158015611965573d6000803e3d6000fd5b505050506040513d601f19601f82011682018060405250810190611989919061412a565b6001600160a01b031695945050505050565b600061094761123c858560046112fd565b6000816001600160a01b031663ec14b06e6040518163ffffffff1660e01b8152600401602060405180830381865afa158015611543573d6000803e3d6000fd5b6000816001600160a01b031663cd3293de6040518163ffffffff1660e01b8152600401602060405180830381865afa158015611610573d6000803e3d6000fd5b6000816001600160a01b031663f9020e336040518163ffffffff1660e01b8152600401602060405180830381865afa158015611a6c573d6000803e3d6000fd5b505050506040513d601f19601f82011682018060405250810190611a909190614376565b600381111561014d5761014d6140de565b6000816001600160a01b031663fc0c546a6040518163ffffffff1660e01b8152600401602060405180830381865afa158015611610573d6000803e3d6000fd5b6000816001600160a01b03166347e4bbb96040518163ffffffff1660e01b8152600401602060405180830381865afa158015611543573d6000803e3d6000fd5b6040516336e1553f60e21b81526001600160a01b038381166004830152602482018390526000919085169063db8554fc906044016113ae565b6000610947848460026112fd565b604051632235a18160e21b81526000906001600160a01b038516906388d68604906113ae9086908690600401614397565b6000610aba6111618686600286016112fd565b60405163caa0eb3b60e01b81526000906001600160a01b0386169063caa0eb3b90611bdf908790879087906004016143bb565b602060405180830381865afa158015611bfc573d6000803e3d6000fd5b505050506040513d601f19601f82011682018060405250810190610aba919061412a565b6000610aba6111618686600386016112fd565b60008060015b60088111611c8a576000611c4d8683613064565b90506000611c5b8684613064565b90506000611c6983836118f6565b9050611c798560018603836130ac565b94505060019092019150611c399050565b509392505050565b60006109478385600f16600487901c600f16856130ec565b60006020830190506111de81838551613148565b5b60208110611cde578251825260209283019290910190601f1901611cbf565b80156111de57600019600882021c80835116811985511617835250505050565b81606001518111611d455760608201516040830151602091030460408301516020908303046040516318978cb960e21b815260048101929092526024820152604401610184565b5050565b8160800151811115611d455760809190910152565b6000806000846001600160a01b031663feaf968c6040518163ffffffff1660e01b815260040160a060405180830381865afa158015611da1573d6000803e3d6000fd5b505050506040513d601f19601f82011682018060405250810190611dc591906143fc565b5093505092505060008213611df057604051633351e26f60e01b815260048101839052602401610184565b83611dfb8242614363565b1115611e24576040516304e61d6960e31b81526004810182905260248101859052604401610184565b610aba856001600160a01b031663313ce5676040518163ffffffff1660e01b8152600401602060405180830381865afa158015611e65573d6000803e3d6000fd5b505050506040513d601f19601f82011682018060405250810190611e89919061444c565b60ff166001611e9785613170565b91905b60008083601203611eae578491505061045e565b8360121115611eda57506012839003611ed2611ecb82600a61432c565b86906118c5565b91505061045e565b506011198301611ed28582856131c6565b600061094784670de0b6b3a7640000858561321e565b60006109478484670de0b6b3a76400008561321e565b60008260000b600003611f2b57508261045e565b60008360000b1315611f5357611f4c611f4584600a61446f565b85906118c5565b905061045e565b60ff600084900316611ed28582856131c6565b60008060128403611f7a578491505061045e565b8360121115611f9457836012039050611ed28582856131c6565b506011198301611ed2611ecb82600a61432c565b6000828280821681831860011c01610aba565b60008167081ad01a501bffff19811115611feb57604051636149f6b960e01b815260048101849052602401610184565b5050670de0b6b3a76400008082068015159103020190565b600061045e61201b84670de0b6b3a76400008561326e565b90565b600081680736ea4425c11ac631811061204d57604051630d7b1d6560e11b815260048101849052602401610184565b6714057b7ef767814f810261094761206d670de0b6b3a7640000835b0490565b600081680a688906bd8b000000811061209c5760405163b3b6ba1f60e01b815260048101849052602401610184565b60006120b4670de0b6b3a7640000604084901b613f8e565b905061094761201b82613342565b600082828115806120d1575080155b156120e15760009250505061014d565b818102818382816120f4576120f4613f62565b041461211d5760405163ae7f3b3760e01b81526004810187905260248101869052604401610184565b610a2361201b82613aa3565b600061014d826ec097ce7bc90715b34b9f10000000008161206957612069613f62565b600061014d6714057b7ef767814f670de0b6b3a764000061216f61201b86612e0f565b028161206957612069613f62565b600081670de0b6b3a76400008110156121ac5760405163036d32ef60e41b815260048101849052602401610184565b82600181146128d857600a81146128e957606481146128fa576103e8811461290b57612710811461291c57620186a0811461292d57620f4240811461293e5762989680811461294f576305f5e100811461296057633b9aca008114612971576402540be40081146129825764174876e80081146129935764e8d4a5100081146129a4576509184e72a00081146129b557655af3107a400081146129c65766038d7ea4c6800081146129d757662386f26fc1000081146129e85767016345785d8a000081146129f957670de0b6b3a76400008114612a0a57678ac7230489e800008114612a135768056bc75e2d631000008114612a2357683635c9adc5dea000008114612a335769021e19e0c9bab24000008114612a435769152d02c7e14af68000008114612a535769d3c21bcecceda10000008114612a63576a084595161401484a0000008114612a73576a52b7d2dcc80cd2e40000008114612a83576b033b2e3c9fd0803ce80000008114612a93576b204fce5e3e250261100000008114612aa3576c01431e0fae6d7217caa00000008114612ab3576c0c9f2c9cd04674edea400000008114612ac3576c7e37be2022c0914b26800000008114612ad3576d04ee2d6d415b85acef81000000008114612ae3576d314dc6448d9338c15b0a000000008114612af3576e01ed09bead87c0378d8e64000000008114612b03576e13426172c74d822b878fe8000000008114612b13576ec097ce7bc90715b34b9f10000000008114612b23576f0785ee10d5da46d900f436a0000000008114612b33576f4b3b4ca85a86c47a098a2240000000008114612b44577002f050fe938943acc45f655680000000008114612b5557701d6329f1c35ca4bfabb9f56100000000008114612b6657710125dfa371a19e6f7cb54395ca00000000008114612b7757710b7abc627050305adf14a3d9e400000000008114612b88577172cb5bd86321e38cb6ce6682e800000000008114612b995772047bf19673df52e37f2410011d1000000000008114612baa57722cd76fe086b93ce2f768a00b22a000000000008114612bbb577301c06a5ec5433c60ddaa16406f5a4000000000008114612bcc5773118427b3b4a05bc8a8a4de8459868000000000008114612bdd5773af298d050e4395d69670b12b7f410000000000008114612bee577406d79f82328ea3da61e066ebb2f88a0000000000008114612bff5774446c3b15f9926687d2c40534fdb5640000000000008114612c10577502ac3a4edbbfb8014e3ba83411e915e80000000000008114612c2157751aba4714957d300d0e549208b31adb100000000000008114612c325776010b46c6cdd6e3e0828f4db456ff0c8ea00000000000008114612c4357760a70c3c40a64e6c51999090b65f67d92400000000000008114612c5457766867a5a867f103b2fffa5a71fba0e7b6800000000000008114612c65577704140c78940f6a24fdffc78873d4490d21000000000000008114612c76577728c87cb5c89a2571ebfdcb54864ada834a000000000000008114612c8757780197d4df19d605767337e9f14d3eec8920e4000000000000008114612c9857780fee50b7025c36a0802f236d04753d5b48e8000000000000008114612ca957789f4f2726179a224501d762422c946590d910000000000000008114612cba5779063917877cec0556b21269d695bdcbf7a87aa0000000000000008114612ccb57793e3aeb4ae1383562f4b82261d969f7ac94ca40000000000000008114612cdc577a026e4d30eccc3215dd8f3157d27e23acbdcfe680000000000000008114612ced577a184f03e93ff9f4daa797ed6e38ed64bf6a1f0100000000000000008114612cfe577af316271c7fc3908a8bef464e3945ef7a25360a00000000000000008114612d0f577b097edd871cfda3a5697758bf0e3cbb5ac5741c6400000000000000008114612d20577b5ef4a74721e864761ea977768e5f518bb6891be800000000000000008114612d31577c03b58e88c75313ec9d329eaaa18fb92f75215b171000000000000000008114612d42577c25179157c93ec73e23fa32aa4f9d3bda934d8ee6a000000000000000008114612d53577d0172ebad6ddc73c86d67c5faa71c245689c10795024000000000000000008114612d64577d0e7d34c64a9c85d4460dbbca87196b61618a4bd2168000000000000000008114612d75577d90e40fbeea1d3a4abc8955e946fe31cdcf66f634e10000000000000000008114612d86577e05a8e89d75252446eb5d5d5b1cc5edf20a1a059e10ca0000000000000000008114612d97577e3899162693736ac531a5a58f1fbb4b746504382ca7e40000000000000000008114612da8577546bf5bb0385045767e0f0ef2e7aa1e517e454637d1dd604b1b8114612db9577f161bcca7119915b50764b4abe86529797775a5f17195100000000000000000008114612dca577fdd15fe86affad91249ef0eb713f39ebeaa987b6e6fd2a00000000000000000008114612ddb576000199250612de8565b67f9ccd8a1c507ffff199250612de8565b67ebec21ee1da3ffff199250612de8565b67de0b6b3a763fffff199250612de8565b67d02ab486cedbffff199250612de8565b67c249fdd32777ffff199250612de8565b67b469471f8013ffff199250612de8565b67a688906bd8afffff199250612de8565b6798a7d9b8314bffff199250612de8565b678ac7230489e7ffff199250612de8565b677ce66c50e283ffff199250612de8565b676f05b59d3b1fffff199250612de8565b676124fee993bbffff199250612de8565b6753444835ec57ffff199250612de8565b674563918244f3ffff199250612de8565b673782dace9d8fffff199250612de8565b6729a2241af62bffff199250612de8565b671bc16d674ec7ffff199250612de8565b670de0b6b3a763ffff199250612de8565b60009250612de8565b670de0b6b3a76400009250612de8565b671bc16d674ec800009250612de8565b6729a2241af62c00009250612de8565b673782dace9d9000009250612de8565b674563918244f400009250612de8565b6753444835ec5800009250612de8565b676124fee993bc00009250612de8565b676f05b59d3b2000009250612de8565b677ce66c50e28400009250612de8565b678ac7230489e800009250612de8565b6798a7d9b8314c00009250612de8565b67a688906bd8b000009250612de8565b67b469471f801400009250612de8565b67c249fdd3277800009250612de8565b67d02ab486cedc00009250612de8565b67de0b6b3a764000009250612de8565b67ebec21ee1da400009250612de8565b67f9ccd8a1c50800009250612de8565b680107ad8f556c6c00009250612de8565b6801158e460913d000009250612de8565b6801236efcbcbb3400009250612de8565b6801314fb370629800009250612de8565b68013f306a2409fc00009250612de8565b68014d1120d7b16000009250612de8565b68015af1d78b58c400009250612de8565b680168d28e3f002800009250612de8565b680176b344f2a78c00009250612de8565b68018493fba64ef000009250612de8565b68019274b259f65400009250612de8565b6801a055690d9db800009250612de8565b6801ae361fc1451c00009250612de8565b6801bc16d674ec8000009250612de8565b6801c9f78d2893e400009250612de8565b6801d7d843dc3b4800009250612de8565b6801e5b8fa8fe2ac00009250612de8565b6801f399b1438a1000009250612de8565b6802017a67f7317400009250612de8565b68020f5b1eaad8d800009250612de8565b68021d3bd55e803c00009250612de8565b68022b1c8c1227a000009250612de8565b680238fd42c5cf0400009250612de8565b680246ddf979766800009250612de8565b680254beb02d1dcc00009250612de8565b6802629f66e0c53000009250612de8565b680270801d946c9400009250612de8565b68027e60d44813f800009250612de8565b68028c418afbbb5c00009250612de8565b68029a2241af62c000009250612de8565b6802a802f8630a2400009250612de8565b6802b5e3af16b18800009250612de8565b6802c3c465ca58ec00009250612de8565b6802d1a51c7e005000009250612de8565b6802df85d331a7b400009250612de8565b6802ed6689e54f1800009250612de8565b6802fb474098f67c00009250612de8565b68030927f74c9de000009250612de8565b68031708ae00454400009250612de8565b680324e964b3eca800009250612de8565b680332ca1b67940c000092505b50600019820361128a5761045e672e19dc008126bf2b670de0b6b3a764000061216f61201b875b600081670de0b6b3a7640000811015612e3e5760405163036d32ef60e41b815260048101849052602401610184565b6000612eca670de0b6b3a7640000830460016fffffffffffffffffffffffffffffffff821160071b91821c67ffffffffffffffff811160061b90811c63ffffffff811160051b90811c61ffff811160041b90811c60ff8111600390811b91821c600f811160021b90811c918211871b91821c969096119490961792909217171791909117919091171790565b9050670de0b6b3a7640000810282821c670de0b6b3a763ffff198101612ef35750949350505050565b671bc16d674ec800006706f05b59d3b200005b8015612f3657670de0b6b3a7640000838002049250818310612f2e579283019260019290921c915b60011c612f06565b50919695505050505050565b600061045e61201b8484613c1b565b60008282818303612f7a578015612f69576000612f73565b670de0b6b3a76400005b9250612fa6565b670de0b6b3a76400008103612f9157849250612fa6565b610aba61206d612fa087612e0f565b86612f42565b505092915050565b6000828160018416612fc857670de0b6b3a7640000612fca565b815b9050600184901c93505b831561300857612fe48283613c1b565b91506001841615612ffc57612ff98183613c1b565b90505b600184901c9350612fd4565b80610aba565b6000817812725dd1d243aba0e75fe645cc4873f9e65afe688c928e1f2181111561304e5760405163edc236ad60e01b815260048101849052602401610184565b61045e61201b670de0b6b3a76400008302613aa3565b60008160088111156130885760405162461bcd60e51b81526004016101849061447e565b82600003613099576000915061066e565b5050600019016020021c63ffffffff1690565b60008260088111156130d05760405162461bcd60e51b81526004016101849061447e565b505060209190910290811b63ffffffff90911b19919091161790565b60008260088111156131105760405162461bcd60e51b81526004016101849061447e565b6000855b8581101561313c5763ffffffff6020820290811b199890981685891b17979150600101613114565b50959695505050505050565b8060200283015b8084101561316a57835183526020938401939092019161314f565b50505050565b6000808212156131c25760405162461bcd60e51b815260206004820181905260248201527f53616665436173743a2076616c7565206d75737420626520706f7369746976656044820152606401610184565b5090565b6000806131d484600a61432c565b905060006131e28287613f8e565b905060018460028111156131f8576131f86140de565b14801561320e575061320a828261434c565b8614155b15610aba57610a236001826140cb565b60008061322c868686613ccf565b90506001836002811115613242576132426140de565b14801561320e57506000848061325a5761325a613f62565b8688091115610aba57610a236001826140cb565b60008080600019858709858702925082811083820303915050806000036132a85783828161329e5761329e613f62565b049250505061045e565b8381106132d957604051630c740aef60e31b8152600481018790526024810186905260448101859052606401610184565b60008486880960026001871981018816978890046003810283188082028403028082028403028082028403028082028403028082028403029081029092039091026000889003889004909101858311909403939093029303949094049190911702949350505050565b600160bf1b67ff0000000000000082161561344f576780000000000000008216156133765768016a09e667f3bcc9090260401c5b674000000000000000821615613395576801306fe0a31b7152df0260401c5b6720000000000000008216156133b4576801172b83c7d517adce0260401c5b6710000000000000008216156133d35768010b5586cf9890f62a0260401c5b6708000000000000008216156133f2576801059b0d31585743ae0260401c5b67040000000000000082161561341157680102c9a3e778060ee70260401c5b6702000000000000008216156134305768010163da9fb33356d80260401c5b67010000000000000082161561344f57680100b1afa5abcbed610260401c5b66ff00000000000082161561354e57668000000000000082161561347c5768010058c86da1c09ea20260401c5b664000000000000082161561349a576801002c605e2e8cec500260401c5b66200000000000008216156134b857680100162f3904051fa10260401c5b66100000000000008216156134d6576801000b175effdc76ba0260401c5b66080000000000008216156134f457680100058ba01fb9f96d0260401c5b66040000000000008216156135125768010002c5cc37da94920260401c5b6602000000000000821615613530576801000162e525ee05470260401c5b660100000000000082161561354e5768010000b17255775c040260401c5b65ff00000000008216156136445765800000000000821615613579576801000058b91b5bc9ae0260401c5b6540000000000082161561359657680100002c5c89d5ec6d0260401c5b652000000000008216156135b35768010000162e43f4f8310260401c5b651000000000008216156135d057680100000b1721bcfc9a0260401c5b650800000000008216156135ed5768010000058b90cf1e6e0260401c5b6504000000000082161561360a576801000002c5c863b73f0260401c5b6502000000000082161561362757680100000162e430e5a20260401c5b65010000000000821615613644576801000000b1721835510260401c5b64ff000000008216156137315764800000000082161561366d57680100000058b90c0b490260401c5b6440000000008216156136895768010000002c5c8601cc0260401c5b6420000000008216156136a5576801000000162e42fff00260401c5b6410000000008216156136c15768010000000b17217fbb0260401c5b6408000000008216156136dd576801000000058b90bfce0260401c5b6404000000008216156136f957680100000002c5c85fe30260401c5b6402000000008216156137155768010000000162e42ff10260401c5b64010000000082161561373157680100000000b17217f80260401c5b64ff000000008216156138165763800000008216156137595768010000000058b90bfc0260401c5b6340000000821615613774576801000000002c5c85fe0260401c5b632000000082161561378f57680100000000162e42ff0260401c5b63100000008216156137aa576801000000000b17217f0260401c5b63080000008216156137c557680100000000058b90c00260401c5b63040000008216156137e05768010000000002c5c8600260401c5b63020000008216156137fb576801000000000162e4300260401c5b63010000008216156138165768010000000000b172180260401c5b62ff00008216156138f1576280000082161561383b576801000000000058b90c0260401c5b6240000082161561385557680100000000002c5c860260401c5b6220000082161561386f5768010000000000162e430260401c5b6210000082161561388957680100000000000b17210260401c5b620800008216156138a35768010000000000058b910260401c5b620400008216156138bd576801000000000002c5c80260401c5b620200008216156138d757680100000000000162e40260401c5b620100008216156138f1576801000000000000b1720260401c5b61ff008216156139c35761800082161561391457680100000000000058b90260401c5b61400082161561392d5768010000000000002c5d0260401c5b612000821615613946576801000000000000162e0260401c5b61100082161561395f5768010000000000000b170260401c5b610800821615613978576801000000000000058c0260401c5b61040082161561399157680100000000000002c60260401c5b6102008216156139aa57680100000000000001630260401c5b6101008216156139c357680100000000000000b10260401c5b60ff821615613a8c5760808216156139e457680100000000000000590260401c5b60408216156139fc576801000000000000002c0260401c5b6020821615613a1457680100000000000000160260401c5b6010821615613a2c576801000000000000000b0260401c5b6008821615613a4457680100000000000000060260401c5b6004821615613a5c57680100000000000000030260401c5b6002821615613a7457680100000000000000010260401c5b6001821615613a8c57680100000000000000010260401c5b670de0b6b3a76400000260409190911c60bf031c90565b600081600003613ab557506000919050565b50600181600160801b8110613acf5760409190911b9060801c5b680100000000000000008110613aea5760209190911b9060401c5b6401000000008110613b015760109190911b9060201c5b620100008110613b165760089190911b9060101c5b6101008110613b2a5760049190911b9060081c5b60108110613b3d5760029190911b9060041c5b60048110613b4d57600182901b91505b6001828481613b5e57613b5e613f62565b048301901c91506001828481613b7657613b76613f62565b048301901c91506001828481613b8e57613b8e613f62565b048301901c91506001828481613ba657613ba6613f62565b048301901c91506001828481613bbe57613bbe613f62565b048301901c91506001828481613bd657613bd6613f62565b048301901c91506001828481613bee57613bee613f62565b048301901c91506000828481613c0657613c06613f62565b049050808310613c14578092505b5050919050565b60008080600019848609848602925082811083820303915050670de0b6b3a76400008110613c6657604051635173648d60e01b81526004810186905260248101859052604401610184565b6000670de0b6b3a7640000858709905081600003613c92575050670de0b6b3a76400009004905061014d565b620400008184030492109003600160ee1b02177faccb18165bd6fe31ae1cf318dc5b51eee0e1ba569b88cd74c1773b91fac1066902905092915050565b6000808060001985870985870292508281108382030391505080600003613cff5783828161329e5761329e613f62565b8084116132d957600080fd5b613d136144a0565b565b600060208284031215613d2757600080fd5b81356001600160e01b03198116811461045e57600080fd5b634e487b7160e01b600052604160045260246000fd5b604051601f8201601f1916810167ffffffffffffffff81118282101715613d7e57613d7e613d3f565b604052919050565b600067ffffffffffffffff821115613da057613da0613d3f565b5060051b60200190565b600082601f830112613dbb57600080fd5b81356020613dd0613dcb83613d86565b613d55565b82815260059290921b84018101918181019086841115613def57600080fd5b8286015b84811015613e0a5780358352918301918301613df3565b509695505050505050565b600080600060608486031215613e2a57600080fd5b833567ffffffffffffffff80821115613e4257600080fd5b818601915086601f830112613e5657600080fd5b81356020613e66613dcb83613d86565b82815260059290921b8401810191818101908a841115613e8557600080fd5b8286015b84811015613f1257803586811115613ea15760008081fd5b8701603f81018d13613eb35760008081fd5b84810135604088821115613ec957613ec9613d3f565b613edb601f8301601f19168801613d55565b8281528f82848601011115613ef05760008081fd5b8282850189830137600092810188019290925250845250918301918301613e89565b5097505087013592505080821115613f2957600080fd5b613f3587838801613daa565b93506040860135915080821115613f4b57600080fd5b50613f5886828701613daa565b9150509250925092565b634e487b7160e01b600052601260045260246000fd5b634e487b7160e01b600052601160045260246000fd5b600082613f9d57613f9d613f62565b500490565b634e487b7160e01b600052603260045260246000fd5b600060018201613fca57613fca613f78565b5060010190565b600081518084526020808501945080840160005b8381101561400157815187529582019590820190600101613fe5565b509495945050505050565b60006080820160018060a01b0387168352602060808185015281875180845260a08601915060a08160051b87010193508289016000805b8381101561409f57888703609f1901855282518051808952835b81811015614078578281018901518a82018a0152880161405d565b508881018801849052601f01601f1916909701860196509385019391850191600101614043565b50505050505082810360408401526140b78186613fd1565b90508281036060840152610bf78185613fd1565b8082018082111561014d5761014d613f78565b634e487b7160e01b600052602160045260246000fd5b815160009082906020808601845b8381101561411e57815185529382019390820190600101614102565b50929695505050505050565b60006020828403121561413c57600080fd5b5051919050565b604080825283519082018190526000906020906060840190828701845b828110156141855781516001600160a01b031684529284019290840190600101614160565b50505083810382850152610a238186613fd1565b600060208083850312156141ac57600080fd5b825167ffffffffffffffff8111156141c357600080fd5b8301601f810185136141d457600080fd5b80516141e2613dcb82613d86565b81815260059190911b8201830190838101908783111561420157600080fd5b928401925b82841015610bf757835182529284019290840190614206565b60006020828403121561423157600080fd5b81516001600160a01b038116811461045e57600080fd5b600181815b8085111561428357816000190482111561426957614269613f78565b8085161561427657918102915b93841c939080029061424d565b509250929050565b60008261429a5750600161014d565b816142a75750600061014d565b81600181146142bd57600281146142c7576142e3565b600191505061014d565b60ff8411156142d8576142d8613f78565b50506001821b61014d565b5060208310610133831016604e8410600b8410161715614306575081810a61014d565b6143108383614248565b806000190482111561432457614324613f78565b029392505050565b600061045e838361428b565b60008261434757614347613f62565b500690565b808202811582820484141761014d5761014d613f78565b8181038181111561014d5761014d613f78565b60006020828403121561438857600080fd5b81516004811061045e57600080fd5b6001600160a01b038316815260406020820181905260009061094790830184613fd1565b60018060a01b0384168152826020820152606060408201526000610aba6060830184613fd1565b805169ffffffffffffffffffff811681146111a857600080fd5b600080600080600060a0868803121561441457600080fd5b61441d866143e2565b9450602086015193506040860151925060608601519150614440608087016143e2565b90509295509295909350565b60006020828403121561445e57600080fd5b815160ff8116811461045e57600080fd5b600061045e60ff84168361428b565b60208082526008908201526726a0ac2faa24a2a960c11b604082015260600190565b634e487b7160e01b600052605160045260246000fdfe0ac70ad60ae50b680b760bc80c380cb60d800dd60e020e9b102f106410821091109f10ae10bc10ca10d810e610ae10f411021111111f112d113c114b115a116911781187119611a511b411c311d211e111f011ff1248125a1268129a12a812b612c412d212e012ee12fc130a13181326133413421350135e136c137a1388139613a413b313c213d113df13ed13fb1409141714251433156115e915f8160716151687a264697066735822122005fc8004cc18fb8fb6b9eb7e3de204c7e425c2418148587803f2376f3584ca4664736f6c634300081200330ac70ad60ae50b680b760bc80c380cb60d800dd60e020e9b102f106410821091109f10ae10bc10ca10d810e610ae10f411021111111f112d113c114b115a116911781187119611a511b411c311d211e111f011ff1248125a1268129a12a812b612c412d212e012ee12fc130a13181326133413421350135e136c137a1388139613a413b313c213d113df13ed13fb1409141714251433156115e915f8160716151687",
    "linkReferences": {}
  },
  "methodIdentifiers": {
    "deployExpression(bytes[],uint256[],uint256[])": "5511cb67",
    "interpreter()": "3a35cf17",
    "store()": "975057e7",
    "supportsInterface(bytes4)": "01ffc9a7"
  },
  "id": 121
}