{
  "abi": [
    {
      "inputs": [
        {
          "internalType": "FullyQualifiedNamespace",
          "name": "namespace_",
          "type": "uint256"
        },
        {
          "internalType": "uint256",
          "name": "key_",
          "type": "uint256"
        }
      ],
      "name": "get",
      "outputs": [
        {
          "internalType": "uint256",
          "name": "",
          "type": "uint256"
        }
      ],
      "stateMutability": "view",
      "type": "function"
    },
    {
      "inputs": [
        {
          "internalType": "StateNamespace",
          "name": "namespace_",
          "type": "uint256"
        },
        {
          "internalType": "uint256[]",
          "name": "kvs_",
          "type": "uint256[]"
        }
      ],
      "name": "set",
      "outputs": [],
      "stateMutability": "nonpayable",
      "type": "function"
    },
    {
      "inputs": [
        {
          "internalType": "bytes4",
          "name": "interfaceId_",
          "type": "bytes4"
        }
      ],
      "name": "supportsInterface",
      "outputs": [
        {
          "internalType": "bool",
          "name": "",
          "type": "bool"
        }
      ],
      "stateMutability": "view",
      "type": "function"
    }
  ],
  "bytecode": {
    "object": "0x608060405234801561001057600080fd5b506102d3806100206000396000f3fe608060405234801561001057600080fd5b50600436106100415760003560e01c806301ffc9a714610046578063669e48aa1461006e578063946aadc6146100a5575b600080fd5b6100596100543660046101b5565b6100ba565b60405190151581526020015b60405180910390f35b61009761007c3660046101e6565b60009182526020828152604080842092845291905290205490565b604051908152602001610065565b6100b86100b3366004610208565b6100f1565b005b60006001600160e01b03198216633cbd395b60e21b14806100eb57506001600160e01b031982166301ffc9a760e01b145b92915050565b600061013d846040516bffffffffffffffffffffffff193360601b1660208201526034810182905260009060540160408051601f19818403018152919052805160209091012092915050565b905060005b828110156101ae5783838260010181811061015f5761015f610287565b90506020020135600080848152602001908152602001600020600086868581811061018c5761018c610287565b6020908102929092013583525081019190915260400160002055600201610142565b5050505050565b6000602082840312156101c757600080fd5b81356001600160e01b0319811681146101df57600080fd5b9392505050565b600080604083850312156101f957600080fd5b50508035926020909101359150565b60008060006040848603121561021d57600080fd5b83359250602084013567ffffffffffffffff8082111561023c57600080fd5b818601915086601f83011261025057600080fd5b81358181111561025f57600080fd5b8760208260051b850101111561027457600080fd5b6020830194508093505050509250925092565b634e487b7160e01b600052603260045260246000fdfea26469706673582212205932529ef7369b668f48c9e33d89f184a4d59d54c09a9a34c2e04ba21bc551c064736f6c63430008120033",
    "linkReferences": {}
  },
  "methodIdentifiers": {
    "get(uint256,uint256)": "669e48aa",
    "set(uint256,uint256[])": "946aadc6",
    "supportsInterface(bytes4)": "01ffc9a7"
  },
  "id": 123
}