{
  "abi": [
    {
      "inputs": [
        {
          "internalType": "uint256",
          "name": "dynamicLength",
          "type": "uint256"
        },
        {
          "internalType": "uint256",
          "name": "standardOpsLength",
          "type": "uint256"
        }
      ],
      "name": "BadDynamicLength",
      "type": "error"
    },
    {
      "inputs": [
        {
          "internalType": "uint256",
          "name": "expected",
          "type": "uint256"
        },
        {
          "internalType": "uint256",
          "name": "actual",
          "type": "uint256"
        }
      ],
      "name": "BadExternResultsLength",
      "type": "error"
    },
    {
      "inputs": [
        {
          "internalType": "MemoryKVPtr",
          "name": "ptr",
          "type": "uint256"
        }
      ],
      "name": "InvalidPtr",
      "type": "error"
    },
    {
      "inputs": [
        {
          "internalType": "int256",
          "name": "price",
          "type": "int256"
        }
      ],
      "name": "NotPosIntPrice",
      "type": "error"
    },
    {
      "inputs": [
        {
          "internalType": "uint256",
          "name": "x",
          "type": "uint256"
        },
        {
          "internalType": "uint256",
          "name": "y",
          "type": "uint256"
        }
      ],
      "name": "PRBMath_MulDiv18_Overflow",
      "type": "error"
    },
    {
      "inputs": [
        {
          "internalType": "uint256",
          "name": "x",
          "type": "uint256"
        },
        {
          "internalType": "uint256",
          "name": "y",
          "type": "uint256"
        },
        {
          "internalType": "uint256",
          "name": "denominator",
          "type": "uint256"
        }
      ],
      "name": "PRBMath_MulDiv_Overflow",
      "type": "error"
    },
    {
      "inputs": [
        {
          "internalType": "UD60x18",
          "name": "x",
          "type": "uint256"
        }
      ],
      "name": "PRBMath_UD60x18_Ceil_Overflow",
      "type": "error"
    },
    {
      "inputs": [
        {
          "internalType": "UD60x18",
          "name": "x",
          "type": "uint256"
        }
      ],
      "name": "PRBMath_UD60x18_Exp2_InputTooBig",
      "type": "error"
    },
    {
      "inputs": [
        {
          "internalType": "UD60x18",
          "name": "x",
          "type": "uint256"
        }
      ],
      "name": "PRBMath_UD60x18_Exp_InputTooBig",
      "type": "error"
    },
    {
      "inputs": [
        {
          "internalType": "UD60x18",
          "name": "x",
          "type": "uint256"
        },
        {
          "internalType": "UD60x18",
          "name": "y",
          "type": "uint256"
        }
      ],
      "name": "PRBMath_UD60x18_Gm_Overflow",
      "type": "error"
    },
    {
      "inputs": [
        {
          "internalType": "UD60x18",
          "name": "x",
          "type": "uint256"
        }
      ],
      "name": "PRBMath_UD60x18_Log_InputTooSmall",
      "type": "error"
    },
    {
      "inputs": [
        {
          "internalType": "UD60x18",
          "name": "x",
          "type": "uint256"
        }
      ],
      "name": "PRBMath_UD60x18_Sqrt_Overflow",
      "type": "error"
    },
    {
      "inputs": [],
      "name": "ReadError",
      "type": "error"
    },
    {
      "inputs": [
        {
          "internalType": "uint256",
          "name": "updatedAt",
          "type": "uint256"
        },
        {
          "internalType": "uint256",
          "name": "staleAfter",
          "type": "uint256"
        }
      ],
      "name": "StalePrice",
      "type": "error"
    },
    {
      "inputs": [
        {
          "internalType": "uint256",
          "name": "expectedLength",
          "type": "uint256"
        },
        {
          "internalType": "uint256",
          "name": "actualLength",
          "type": "uint256"
        }
      ],
      "name": "UnexpectedResultLength",
      "type": "error"
    },
    {
      "inputs": [
        {
          "internalType": "contract IInterpreterStoreV1",
          "name": "store_",
          "type": "address"
        },
        {
          "internalType": "StateNamespace",
          "name": "namespace_",
          "type": "uint256"
        },
        {
          "internalType": "EncodedDispatch",
          "name": "dispatch_",
          "type": "uint256"
        },
        {
          "internalType": "uint256[][]",
          "name": "context_",
          "type": "uint256[][]"
        }
      ],
      "name": "eval",
      "outputs": [
        {
          "internalType": "uint256[]",
          "name": "",
          "type": "uint256[]"
        },
        {
          "internalType": "uint256[]",
          "name": "",
          "type": "uint256[]"
        }
      ],
      "stateMutability": "view",
      "type": "function"
    },
    {
      "inputs": [],
      "name": "functionPointers",
      "outputs": [
        {
          "internalType": "bytes",
          "name": "",
          "type": "bytes"
        }
      ],
      "stateMutability": "view",
      "type": "function"
    },
    {
      "inputs": [
        {
          "internalType": "bytes4",
          "name": "interfaceId_",
          "type": "bytes4"
        }
      ],
      "name": "supportsInterface",
      "outputs": [
        {
          "internalType": "bool",
          "name": "",
          "type": "bool"
        }
      ],
      "stateMutability": "view",
      "type": "function"
    }
  ],
  "bytecode": {
    "object": "0x608060405234801561001057600080fd5b50614b76806100206000396000f3fe608060405234801561001057600080fd5b50600436106100415760003560e01c806301ffc9a7146100465780636715f8251461006e578063f933c72f1461008f575b600080fd5b61005961005436600461443b565b6100a4565b60405190151581526020015b60405180910390f35b61008161007c3660046144e5565b6100db565b60405161006592919061465b565b610097610187565b60405161006591906146c6565b60006001600160e01b03198216634f131f8560e11b14806100d557506001600160e01b031982166301ffc9a760e01b145b92915050565b606080602084901c60ff601086901c811690861660006101026100fd856101d7565b610229565b600060408201529050610114896103e4565b60608201526001600160a01b038a16608082015260a081018790528051600090610141908390869061042b565b8251909150602090820304600061016261015b8387610481565b8490610497565b9150508061017385604001516104ab565b985098505050505050505094509492505050565b6040805160008082526020820190925260609190816101b7565b6143eb8152602001906001900390816101a15790505b5090506101d16101cc6101c98361053b565b90565b610854565b91505090565b6060813b60008190036101fd57604051631354fb0f60e11b815260040160405180910390fd5b60408051603e8301601f1916810190915260001990910180825290915080600160208401853c50919050565b6102316143f5565b6102396143f5565b6040805160008082526020820190925290610264565b606081526020019060019003908161024f5790505b5060a08201526000610277845b60200190565b9050600061028f61028a83601f19015190565b830190565b905060208201915060006102a583601f19015190565b905060008167ffffffffffffffff8111156102c2576102c261447a565b6040519080825280602002602001820160405280156102eb578160200160208202803683370190505b5060208082018752858101908701819052945190915061030d90602002850190565b9350600084815b858210156103395761032f61027161032a845190565b840190565b9150600101610314565b8067ffffffffffffffff8111156103525761035261447a565b60405190808252806020026020018201604052801561038557816020015b60608152602001906001900390816103705790505b5060c08901525b858710156103d657868860c0015184815181106103ab576103ab6146d9565b60200260200101819052506103c96102716103c4895190565b890190565b965060019092019161038c565b509598975050505050505050565b6040516bffffffffffffffffffffffff193360601b166020820152603481018290526000906054015b60408051601f19818403018152919052805160209091012092915050565b60c08301516020838102909101015180516000919081015b8082101561047457600491909101805190919061ffff601082901c8116911661046b88828885565b95505050610443565b83925050505b9392505050565b6000818310610490578161047a565b5090919050565b60208102909103601f190180519181529091565b606061ffff8216601083901c60008167ffffffffffffffff8111156104d2576104d261447a565b6040519080825280602002602001820160405280156104fb578160200160208202803683370190505b50905060208101602082510281015b80821015610530578451825260208086015190830152604094850151949091019061050a565b509095945050505050565b6060600060405180610a400160405280610553605190565b67ffffffffffffffff1681526108e460208201526108f360408201526109026060820152610962608082015261097060a08201526109c260c0820152610a1460e0820152610a6f610100820152610b39610120820152610b8f610140820152610bbb610160820152610c0e610180820152610d2f6101a0820152610d646101c0820152610d826101e0820152610d91610200820152610d9f610220820152610dae6102408201819052610dbc610260830152610dca610280830152610dd86102a0830152610de66102c08301526102e0820152610df4610300820152610e02610320820152610e11610340820152610e1f610360820152610e2d610380820152610e3c6103a0820152610e4b6103c0820152610e5a6103e0820152610e69610400820152610e78610420820152610e87610440820152610e96610460820152610ea5610480820152610eb46104a0820152610ec36104c0820152610ed26104e0820152610ee1610500820152610ef0610520820152610eff610540820152610f48610560820152610f5a610580820152610f686105a0820152610f9a6105c0820152610fa86105e0820152610fb6610600820152610fc4610620820152610fd2610640820152610fe0610660820152610fee610680820152610ffc6106a082015261100a6106c08201526110186106e082015261102661070082015261103461072082015261104261074082015261105061076082015261105e61078082015261106c6107a082015261107a6107c08201526110886107e08201526110966108008201526110a46108208201526110b36108408201526110c26108608201526110d16108808201526110df6108a08201526110ed6108c08201526110fb6108e082015261110961090082015261111761092082015261112561094082015261113361096082015261121861098082015261125a6109a08201526112696109c08201526112786109e0820152611286610a008201526112cb610a20909101529050600061083e826112da565b905061084a8185611310565b805b949350505050565b60606000825160020267ffffffffffffffff8111156108755761087561447a565b6040519080825280601f01601f19166020018201604052801561089f576020820181803683370190505b50905061ffff801990506020840160208551028101600284015b818310156108d957805183519085161781526020909201916002016108b9565b509295945050505050565b600061084c826113468561135e565b600061084c82611381856113a7565b6000806000610910846113d9565b909250905063ffffffff61095783828416602085901c8416604086901c8516606087901c8616608088901c871660a089901c881660c08a901c891660e08b901c6113e38b16565b979650505050505050565b600061084c82611419611425565b600061084c8460a00151600885901c8151811061098f5761098f6146d9565b602002602001015160ff8516815181106109ab576109ab6146d9565b60200260200101518361144a90919063ffffffff16565b600061084c8460a0015184815181106109dd576109dd6146d9565b60200260200101516040516020016109f59190614705565b60408051808303601f1901815291905280516020918201208452830190565b6000806000610a22846113d9565b915091506104748660a001518681518110610a3f57610a3f6146d9565b60200260200101518281518110610a5857610a586146d9565b60200260200101518361145290919063ffffffff16565b6000600f83811690600485901c811690600886901c16600c86901c808201855b8960a001518581518110610aa557610aa56146d9565b6020026020010151518110156103d65760005b84811015610b1557610b0b8b60a0015182880181518110610adb57610adb6146d9565b60200260200101518381518110610af457610af46146d9565b60200260200101518a61144a90919063ffffffff16565b9850600101610ab8565b50600886901b600484901b178217610b2e8b828b610b39565b985050600101610a8f565b8251600090600f84811691600486901c90911690600886901c9060208402860388526000610b6889848961042b565b9050610b7b6020850282038a5186611456565b508751975250602002909401949350505050565b600080836003811115610ba457610ba461473b565b9050610bb185848361147e565b5091949350505050565b600060ff831660018101600481901b851783610bd6866113d9565b90965090505b8015610c0257610bed888388610b39565b9550610bf8866113d9565b9096509050610bdc565b50939695505050505050565b602083810151600a84901c918202015160009160a082901c908390606090601f88169085610c3c8984610497565b9095509350610c5985601f19602086028c03015b90815260200190565b60405163b65ad68360e01b815290995060058b901c601f169350600092506001600160a01b038816915063b65ad68390610c999088908790600401614751565b600060405180830381865afa158015610cb6573d6000803e3d6000fd5b505050506040513d6000823e601f3d908101601f19168201604052610cde919081019061476a565b905081815114610d1757805160405163ea4915ed60e01b8152610d0e918491600401918252602082015260400190565b60405180910390fd5b610d218882611582565b9a9950505050505050505050565b6000600c83901c610fff8416825b828110156108d957610d50878387610b39565b945080610d5c81614806565b915050610d3d565b60018281166020908102949094015192901c83029091015181520190565b600061084c8261159a856115ad565b600061084c826115dc611650565b600061084c8261167c856116f2565b600061084c8261176f611425565b600061084c826117de611842565b600061084c82611863611650565b600061084c8261189c611425565b600061084c826118cc611842565b600061084c8261193f611425565b600061084c826119bb856119c8565b43815260006020820161084c565b42815260006020820161084c565b600061084c82611a0185611a0d565b600061084c82611a5485611a0d565b600061084c82611a6085611a0d565b600061084c82611a6c85611a0d565b600061084c8261048185611a0d565b600061084c82611a7b85611a0d565b600061084c82611a8785611a0d565b600061084c82611a9385611a0d565b600061084c82611a9f8561135e565b600061084c82611ac6856113a7565b600061084c82611adf856113a7565b600061084c82611afa856113a7565b600061084c82611b138561135e565b600061084c82611b208561135e565b6000602083028203805b83811015610f39576000610f1b825190565b90508015610f3057825250602001905061047a565b50602001610f09565b50602081015b95945050505050565b600061084c82611b2d600186016116f2565b600061084c82611b3d611425565b6000602083028203805b83811015610f39578051600003610f92575060008152602001905061047a565b602001610f72565b600061084c82611b41611425565b600061084c82611b45611842565b600061084c82611b49611425565b600061084c82611b4d611425565b600061084c82611b59611842565b600061084c82611b64611425565b600061084c82611b70611842565b600061084c82611b7b611842565b600061084c82611b86611842565b600061084c82611b9e611842565b600061084c82611bb0611425565b600061084c82611bbc611842565b600061084c82611bc7611842565b600061084c82611bd2611842565b600061084c82611bdd611842565b600061084c82611be8611425565b600061084c82611bf4611425565b600061084c82611c00611425565b600061084c82611c0c611842565b600061084c82611c1785611a0d565b600061084c82611c3485611a0d565b600061084c82611c6585611a0d565b600061084c82611c7b611d0a565b600061084c82611d4b611842565b600061084c82611d8b611842565b600061084c82611dcb611842565b600061084c82611e40611842565b600061084c82611e80611842565b600061084c82611ec0611650565b60008061113f836113d9565b604087015191945091506000906111569083611ef9565b9050600081600003611200576080870151606088015160405163334f245560e11b81526001600160a01b039092169163669e48aa916111a2918790600401918252602082015260400190565b602060405180830381865afa1580156111bf573d6000803e3d6000fd5b505050506040513d601f19601f820116820180604052508101906111e3919061481f565b60408801519091506111f6908483611f22565b604088015261120c565b61120982611f7b565b90505b80855260208501610957565b6000806000611226846113d9565b9094509050611234846113d9565b60408801519195509250611249908383611f22565b604087015250829150509392505050565b600061084c82611fa985611fda565b600061084c8261202a8561209e565b600061084c826120f1611425565b600060ff8316600884901c600316600a85901c83806112a58786610497565b915091506112be6112b884868585612150565b82610c50565b9998505050505050505050565b600061084c82612245856113a7565b8051819060511461130b57805160405163c8b5690160e01b8152600481019190915260516024820152604401610d0e565b919050565b60405182518251602080830286010183111561132b57600080fd5b602081028301604052018352611341828261225d565b505050565b60ff80831660020a6000190160089390931c161c1690565b601f1983018051600091611376848363ffffffff8816565b905250929392505050565b60ff83811660020a6000190192831660089490941c1692831b9190921b19919091161790565b603f1983018051601f19909401805190946000929091906113cd85848463ffffffff8a16565b90525093949350505050565b601f190180519091565b968852602088019590955260408701939093526060860191909152608085015260a084015260c083015260e08201526101000190565b600061047a8383612271565b603f1982018051601f1990930180519093600092909190611376838363ffffffff8816565b815260200190565b9052565b8060200283015b8084101561147857835183526020938401939092019161145d565b50505050565b600060038260038111156114945761149461473b565b036114dd5760005b8460c00151518110156114d7576114cf8560c0015182815181106114c2576114c26146d9565b60200260200101516123b1565b60010161149c565b5061157a565b60008260038111156114f1576114f161473b565b036115025783516114d790846123f4565b60018260038111156115165761151661473b565b0361153a576115356115306101c98660200151601f190190565b612411565b61157a565b60005b8460a0015151811015611578576115708560a001518281518110611563576115636146d9565b6020026020010151612411565b60010161153d565b505b509092915050565b600061158e828461225d565b8151602002830161047a565b60008160405160200161040d9190614705565b600080806115bb8685610497565b9150915060006115ce828763ffffffff16565b905061095781610c50858582565b604051627eeac760e11b81526001600160a01b038381166004830152602482018390526000919085169062fdd58e906044015b602060405180830381865afa15801561162c573d6000803e3d6000fd5b505050506040513d601f19601f8201168201806040525081019061084c919061481f565b605f1982018051603f1984018051601f199095015190946000939091906113cd84848463ffffffff8a16565b6040516313849cfd60e21b81526060906001600160a01b03851690634e1273f4906116ad9086908690600401614838565b600060405180830381865afa1580156116ca573d6000803e3d6000fd5b505050506040513d6000823e601f3d908101601f1916820160405261084c919081019061476a565b6000602082028403816117058285612491565b90506000806117148487610497565b9150915060006117298383868b63ffffffff16565b90508681511461175957805160405163118b036560e11b8152610d0e918991600401918252602082015260400190565b81611764828261225d565b602088028101610d21565b6040516370a0823160e01b81526001600160a01b038281166004830152600091908416906370a08231906024015b602060405180830381865afa1580156117ba573d6000803e3d6000fd5b505050506040513d601f19601f8201168201806040525081019061047a919061481f565b6000816001600160a01b03166318160ddd6040518163ffffffff1660e01b8152600401602060405180830381865afa15801561181e573d6000803e3d6000fd5b505050506040513d601f19601f820116820180604052508101906100d5919061481f565b601f19820180516000916118598263ffffffff8616565b9052509192915050565b60405163277166bf60e11b81526001600160a01b0383811660048301526024820183905260009190851690634ee2cd7e9060440161160f565b604051630981b24d60e41b8152600481018290526000906001600160a01b0384169063981b24d09060240161179d565b6000816001600160a01b0316638da5cb5b6040518163ffffffff1660e01b8152600401602060405180830381865afa15801561190c573d6000803e3d6000fd5b505050506040513d601f19601f82011682018060405250810190611930919061488e565b6001600160a01b031692915050565b6040516331a9108f60e11b8152600481018290526000906001600160a01b03841690636352211e90602401602060405180830381865afa158015611987573d6000803e3d6000fd5b505050506040513d601f19601f820116820180604052508101906119ab919061488e565b6001600160a01b03169392505050565b806119c557600080fd5b50565b600060208202840381815b868310156119f757825191506020830192506119f2828763ffffffff16565b6119d3565b9695505050505050565b600061047a82846148ab565b60208181028403805160009282019083825b88841015611a465783519150611a3983838a63ffffffff16565b9250602084019350611a1f565b919093529695505050505050565b600061047a82846148be565b600061047a82846149b6565b6000818311610490578161047a565b600061047a82846149c2565b600061047a82846149d6565b600061047a82846149ed565b600061047a600184901c600185166002811115611abe57611abe61473b565b8491906124e9565b600061084c8282611ad88688836124e9565b919061253a565b600061084c83600186166002811115611abe57611abe61473b565b600061084c8282611b0c8688836124e9565b9190612550565b600061047a828483612566565b600061047a8284836125b5565b60606000841161157a578161084c565b1490565b1090565b1590565b1190565b600061047a83836125f7565b60006100d58261260a565b600061047a8383612652565b60006100d58261266a565b60006100d5826126b9565b6000670de0b6b3a764000082068015150282036100d5565b6000670de0b6b3a764000082066100d5565b600061047a838361270e565b60006100d582612775565b60006100d582612798565b60006100d5826127c9565b60006100d582613468565b600061047a838361359b565b600061047a83836135aa565b600061047a8383613607565b60006100d582613667565b6000828201838110611c29578061084c565b600019949350505050565b600082600003611c46575060006100d5565b82820282848281611c5957611c596146ef565b0403611c29578061084c565b6000818311611c7557600061047a565b50900390565b604051631b2f65c960e31b81526001600160a01b0384811660048301528381166024830152604482018390526000919086169063d97b2e4890606401602060405180830381865afa158015611cd4573d6000803e3d6000fd5b505050506040513d601f19601f82011682018060405250810190611cf8919061481f565b6001600160a01b031695945050505050565b607f1982018051605f1984018051603f19860151601f1990960151919560009491929091611d3e8585858563ffffffff8c16565b9052509495945050505050565b6000816001600160a01b031663ec14b06e6040518163ffffffff1660e01b8152600401602060405180830381865afa15801561181e573d6000803e3d6000fd5b6000816001600160a01b031663cd3293de6040518163ffffffff1660e01b8152600401602060405180830381865afa15801561190c573d6000803e3d6000fd5b6000816001600160a01b031663f9020e336040518163ffffffff1660e01b8152600401602060405180830381865afa158015611e0b573d6000803e3d6000fd5b505050506040513d601f19601f82011682018060405250810190611e2f9190614a00565b60038111156100d5576100d561473b565b6000816001600160a01b031663fc0c546a6040518163ffffffff1660e01b8152600401602060405180830381865afa15801561190c573d6000803e3d6000fd5b6000816001600160a01b03166347e4bbb96040518163ffffffff1660e01b8152600401602060405180830381865afa15801561181e573d6000803e3d6000fd5b6040516336e1553f60e21b81526001600160a01b038381166004830152602482018390526000919085169063db8554fc9060440161160f565b61ffff828116905b8115611f1b5781518314611f1b5760408201519150611f01565b5092915050565b600080611f2f8585611ef9565b905061ffff8115611f4557836020830152611f71565b60405191506060820160405284825283602083015280861660408301528160028760101c0160101b1795505b5093949350505050565b600081600003611fa1576040516314ae691160e11b815260048101839052602401610d0e565b506020015190565b604051632235a18160e21b81526000906001600160a01b038516906388d686049061160f9086908690600401614a21565b60008080611fe88685610497565b915091506000611ff58290565b9050600080612003836113d9565b9150915061201d6120198287878c63ffffffff16565b8352565b5090979650505050505050565b60405163caa0eb3b60e01b81526000906001600160a01b0386169063caa0eb3b9061205d90879087908790600401614a45565b602060405180830381865afa15801561207a573d6000803e3d6000fd5b505050506040513d601f19601f82011682018060405250810190610f3f919061481f565b600080806120ac8685610497565b915091506000806120c26120bd8490565b6113d9565b9150915060006120d483601f19015190565b905061201d6120e9828488888d63ffffffff16565b601f19850152565b60008060015b6008811161214857600061210b86836136bd565b9050600061211986846136bd565b905060006121278383611c65565b9050612137856001860383613705565b945050600190920191506120f79050565b509392505050565b805160009081908190819060015b6008811161223757600092508289612179575060001961217d565b5060005b60005b83811015612213576121ab89828151811061219d5761219d6146d9565b6020026020010151846136bd565b95508986116121fc578a6121ca576121c38683610481565b91506121f3565b60018b036121dc576121c38683611a6c565b60028b1480156121ea575084155b156121f3578591505b6001945061220b565b8b61220b576000199150612213565b600101612180565b508361221e57506000195b61222c866001840383613705565b95505060010161215e565b509298975050505050505050565b600061084c8385600f16600487901c600f1685613745565b600060208301905061134181838551611456565b6000806000846001600160a01b031663feaf968c6040518163ffffffff1660e01b815260040160a060405180830381865afa1580156122b4573d6000803e3d6000fd5b505050506040513d601f19601f820116820180604052508101906122d89190614a86565b509350509250506000821361230357604051633351e26f60e01b815260048101839052602401610d0e565b8361230e82426149ed565b1115612337576040516304e61d6960e31b81526004810182905260248101859052604401610d0e565b610f3f856001600160a01b031663313ce5676040518163ffffffff1660e01b8152600401602060405180830381865afa158015612378573d6000803e3d6000fd5b505050506040513d601f19601f8201168201806040525081019061239c9190614ad6565b60ff1660016123aa856137a1565b91906124e9565b6119c5816040516024016123c591906146c6565b60408051601f198184030181529190526020810180516001600160e01b03166305f3bfab60e11b1790526137f7565b600080602084840304905061157a61153060208302850383612491565b612435604051806040016040528060038152602001623f3f3f60e91b815250613818565b60005b815181101561246c5761246481838381518110612457576124576146d9565b602002602001015161385b565b600101612438565b506119c5604051806040016040528060038152602001623f3f3f60e91b815250613818565b606060008267ffffffffffffffff8111156124ae576124ae61447a565b6040519080825280602002602001820160405280156124d7578160200160208202803683370190505b50905060208101612148858286611456565b600080836012036124fd578491505061047a565b83601211156125295750601283900361252161251a82600a6149b6565b8690611c34565b91505061047a565b5060111983016125218582856138a6565b600061084c84670de0b6b3a764000085856138fe565b600061084c8484670de0b6b3a7640000856138fe565b60008260000b60000361257a57508261047a565b60008360000b13156125a25761259b61259484600a614af9565b8590611c34565b905061047a565b60ff6000849003166125218582856138a6565b600080601284036125c9578491505061047a565b83601211156125e3578360120390506125218582856138a6565b50601119830161252161251a82600a6149b6565b6000828280821681831860011c01610f3f565b60008167081ad01a501bffff1981111561263a57604051636149f6b960e01b815260048101849052602401610d0e565b5050670de0b6b3a76400008082068015159103020190565b600061047a6101c984670de0b6b3a76400008561394e565b600081680736ea4425c11ac631811061269957604051630d7b1d6560e11b815260048101849052602401610d0e565b6714057b7ef767814f810261084c6126b9670de0b6b3a7640000835b0490565b600081680a688906bd8b00000081106126e85760405163b3b6ba1f60e01b815260048101849052602401610d0e565b6000612700670de0b6b3a7640000604084901b6148be565b905061084c6101c982613a22565b6000828281158061271d575080155b1561272d576000925050506100d5565b81810281838281612740576127406146ef565b04146127695760405163ae7f3b3760e01b81526004810187905260248101869052604401610d0e565b6119f76101c982614183565b60006100d5826ec097ce7bc90715b34b9f1000000000816126b5576126b56146ef565b60006100d56714057b7ef767814f670de0b6b3a76400006127bb6101c986613468565b02816126b5576126b56146ef565b600081670de0b6b3a76400008110156127f85760405163036d32ef60e41b815260048101849052602401610d0e565b8260018114612f2457600a8114612f355760648114612f46576103e88114612f57576127108114612f6857620186a08114612f7957620f42408114612f8a57629896808114612f9b576305f5e1008114612fac57633b9aca008114612fbd576402540be4008114612fce5764174876e8008114612fdf5764e8d4a510008114612ff0576509184e72a000811461300157655af3107a400081146130125766038d7ea4c68000811461302357662386f26fc1000081146130345767016345785d8a0000811461304557670de0b6b3a7640000811461305657678ac7230489e80000811461305f5768056bc75e2d63100000811461306f57683635c9adc5dea00000811461307f5769021e19e0c9bab2400000811461308f5769152d02c7e14af6800000811461309f5769d3c21bcecceda100000081146130af576a084595161401484a00000081146130bf576a52b7d2dcc80cd2e400000081146130cf576b033b2e3c9fd0803ce800000081146130df576b204fce5e3e2502611000000081146130ef576c01431e0fae6d7217caa000000081146130ff576c0c9f2c9cd04674edea40000000811461310f576c7e37be2022c0914b2680000000811461311f576d04ee2d6d415b85acef8100000000811461312f576d314dc6448d9338c15b0a00000000811461313f576e01ed09bead87c0378d8e6400000000811461314f576e13426172c74d822b878fe800000000811461315f576ec097ce7bc90715b34b9f1000000000811461316f576f0785ee10d5da46d900f436a000000000811461317f576f4b3b4ca85a86c47a098a2240000000008114613190577002f050fe938943acc45f6556800000000081146131a157701d6329f1c35ca4bfabb9f561000000000081146131b257710125dfa371a19e6f7cb54395ca000000000081146131c357710b7abc627050305adf14a3d9e4000000000081146131d4577172cb5bd86321e38cb6ce6682e8000000000081146131e55772047bf19673df52e37f2410011d10000000000081146131f657722cd76fe086b93ce2f768a00b22a000000000008114613207577301c06a5ec5433c60ddaa16406f5a40000000000081146132185773118427b3b4a05bc8a8a4de84598680000000000081146132295773af298d050e4395d69670b12b7f41000000000000811461323a577406d79f82328ea3da61e066ebb2f88a000000000000811461324b5774446c3b15f9926687d2c40534fdb564000000000000811461325c577502ac3a4edbbfb8014e3ba83411e915e8000000000000811461326d57751aba4714957d300d0e549208b31adb10000000000000811461327e5776010b46c6cdd6e3e0828f4db456ff0c8ea0000000000000811461328f57760a70c3c40a64e6c51999090b65f67d924000000000000081146132a057766867a5a867f103b2fffa5a71fba0e7b68000000000000081146132b1577704140c78940f6a24fdffc78873d4490d210000000000000081146132c2577728c87cb5c89a2571ebfdcb54864ada834a0000000000000081146132d357780197d4df19d605767337e9f14d3eec8920e40000000000000081146132e457780fee50b7025c36a0802f236d04753d5b48e80000000000000081146132f557789f4f2726179a224501d762422c946590d9100000000000000081146133065779063917877cec0556b21269d695bdcbf7a87aa000000000000000811461331757793e3aeb4ae1383562f4b82261d969f7ac94ca40000000000000008114613328577a026e4d30eccc3215dd8f3157d27e23acbdcfe680000000000000008114613339577a184f03e93ff9f4daa797ed6e38ed64bf6a1f010000000000000000811461334a577af316271c7fc3908a8bef464e3945ef7a25360a0000000000000000811461335b577b097edd871cfda3a5697758bf0e3cbb5ac5741c640000000000000000811461336c577b5ef4a74721e864761ea977768e5f518bb6891be80000000000000000811461337d577c03b58e88c75313ec9d329eaaa18fb92f75215b17100000000000000000811461338e577c25179157c93ec73e23fa32aa4f9d3bda934d8ee6a00000000000000000811461339f577d0172ebad6ddc73c86d67c5faa71c245689c107950240000000000000000081146133b0577d0e7d34c64a9c85d4460dbbca87196b61618a4bd21680000000000000000081146133c1577d90e40fbeea1d3a4abc8955e946fe31cdcf66f634e100000000000000000081146133d2577e05a8e89d75252446eb5d5d5b1cc5edf20a1a059e10ca00000000000000000081146133e3577e3899162693736ac531a5a58f1fbb4b746504382ca7e400000000000000000081146133f4577546bf5bb0385045767e0f0ef2e7aa1e517e454637d1dd604b1b8114613405577f161bcca7119915b50764b4abe86529797775a5f17195100000000000000000008114613416577fdd15fe86affad91249ef0eb713f39ebeaa987b6e6fd2a00000000000000000008114613427576000199250613434565b67f9ccd8a1c507ffff199250613434565b67ebec21ee1da3ffff199250613434565b67de0b6b3a763fffff199250613434565b67d02ab486cedbffff199250613434565b67c249fdd32777ffff199250613434565b67b469471f8013ffff199250613434565b67a688906bd8afffff199250613434565b6798a7d9b8314bffff199250613434565b678ac7230489e7ffff199250613434565b677ce66c50e283ffff199250613434565b676f05b59d3b1fffff199250613434565b676124fee993bbffff199250613434565b6753444835ec57ffff199250613434565b674563918244f3ffff199250613434565b673782dace9d8fffff199250613434565b6729a2241af62bffff199250613434565b671bc16d674ec7ffff199250613434565b670de0b6b3a763ffff199250613434565b60009250613434565b670de0b6b3a76400009250613434565b671bc16d674ec800009250613434565b6729a2241af62c00009250613434565b673782dace9d9000009250613434565b674563918244f400009250613434565b6753444835ec5800009250613434565b676124fee993bc00009250613434565b676f05b59d3b2000009250613434565b677ce66c50e28400009250613434565b678ac7230489e800009250613434565b6798a7d9b8314c00009250613434565b67a688906bd8b000009250613434565b67b469471f801400009250613434565b67c249fdd3277800009250613434565b67d02ab486cedc00009250613434565b67de0b6b3a764000009250613434565b67ebec21ee1da400009250613434565b67f9ccd8a1c50800009250613434565b680107ad8f556c6c00009250613434565b6801158e460913d000009250613434565b6801236efcbcbb3400009250613434565b6801314fb370629800009250613434565b68013f306a2409fc00009250613434565b68014d1120d7b16000009250613434565b68015af1d78b58c400009250613434565b680168d28e3f002800009250613434565b680176b344f2a78c00009250613434565b68018493fba64ef000009250613434565b68019274b259f65400009250613434565b6801a055690d9db800009250613434565b6801ae361fc1451c00009250613434565b6801bc16d674ec8000009250613434565b6801c9f78d2893e400009250613434565b6801d7d843dc3b4800009250613434565b6801e5b8fa8fe2ac00009250613434565b6801f399b1438a1000009250613434565b6802017a67f7317400009250613434565b68020f5b1eaad8d800009250613434565b68021d3bd55e803c00009250613434565b68022b1c8c1227a000009250613434565b680238fd42c5cf0400009250613434565b680246ddf979766800009250613434565b680254beb02d1dcc00009250613434565b6802629f66e0c53000009250613434565b680270801d946c9400009250613434565b68027e60d44813f800009250613434565b68028c418afbbb5c00009250613434565b68029a2241af62c000009250613434565b6802a802f8630a2400009250613434565b6802b5e3af16b18800009250613434565b6802c3c465ca58ec00009250613434565b6802d1a51c7e005000009250613434565b6802df85d331a7b400009250613434565b6802ed6689e54f1800009250613434565b6802fb474098f67c00009250613434565b68030927f74c9de000009250613434565b68031708ae00454400009250613434565b680324e964b3eca800009250613434565b680332ca1b67940c000092505b5060001982036134625761345f672e19dc008126bf2b670de0b6b3a76400006127bb6101c987613468565b91505b50919050565b600081670de0b6b3a76400008110156134975760405163036d32ef60e41b815260048101849052602401610d0e565b6000613523670de0b6b3a7640000830460016fffffffffffffffffffffffffffffffff821160071b91821c67ffffffffffffffff811160061b90811c63ffffffff811160051b90811c61ffff811160041b90811c60ff8111600390811b91821c600f811160021b90811c918211871b91821c969096119490961792909217171791909117919091171790565b9050670de0b6b3a7640000810282821c670de0b6b3a763ffff19810161354c5750949350505050565b671bc16d674ec800006706f05b59d3b200005b801561358f57670de0b6b3a7640000838002049250818310613587579283019260019290921c915b60011c61355f565b50919695505050505050565b600061047a6101c984846142fb565b600082828183036135d35780156135c25760006135cc565b670de0b6b3a76400005b92506135ff565b670de0b6b3a764000081036135ea578492506135ff565b610f3f6126b96135f987613468565b8661359b565b505092915050565b600082816001841661362157670de0b6b3a7640000613623565b815b9050600184901c93505b83156136615761363d82836142fb565b915060018416156136555761365281836142fb565b90505b600184901c935061362d565b80610f3f565b6000817812725dd1d243aba0e75fe645cc4873f9e65afe688c928e1f218111156136a75760405163edc236ad60e01b815260048101849052602401610d0e565b61345f6101c9670de0b6b3a76400008302614183565b60008160088111156136e15760405162461bcd60e51b8152600401610d0e90614b08565b826000036136f25760009150611f1b565b5050600019016020021c63ffffffff1690565b60008260088111156137295760405162461bcd60e51b8152600401610d0e90614b08565b505060209190910290811b63ffffffff90911b19919091161790565b60008260088111156137695760405162461bcd60e51b8152600401610d0e90614b08565b6000855b858110156137955763ffffffff6020820290811b199890981685891b1797915060010161376d565b50959695505050505050565b6000808212156137f35760405162461bcd60e51b815260206004820181905260248201527f53616665436173743a2076616c7565206d75737420626520706f7369746976656044820152606401610d0e565b5090565b80516a636f6e736f6c652e6c6f67602083016000808483855afa5050505050565b6119c58160405160240161382c91906146c6565b60408051601f198184030181529190526020810180516001600160e01b031663104c13eb60e21b1790526137f7565b60405160248101839052604481018290526138a29060640160408051601f198184030181529190526020810180516001600160e01b0316637b3338ad60e11b1790526137f7565b5050565b6000806138b484600a6149b6565b905060006138c282876148be565b905060018460028111156138d8576138d861473b565b1480156138ee57506138ea82826149d6565b8614155b15610f3f576119f76001826148ab565b60008061390c8686866143af565b905060018360028111156139225761392261473b565b1480156138ee57506000848061393a5761393a6146ef565b8688091115610f3f576119f76001826148ab565b60008080600019858709858702925082811083820303915050806000036139885783828161397e5761397e6146ef565b049250505061047a565b8381106139b957604051630c740aef60e31b8152600481018790526024810186905260448101859052606401610d0e565b60008486880960026001871981018816978890046003810283188082028403028082028403028082028403028082028403028082028403029081029092039091026000889003889004909101858311909403939093029303949094049190911702949350505050565b600160bf1b67ff00000000000000821615613b2f57678000000000000000821615613a565768016a09e667f3bcc9090260401c5b674000000000000000821615613a75576801306fe0a31b7152df0260401c5b672000000000000000821615613a94576801172b83c7d517adce0260401c5b671000000000000000821615613ab35768010b5586cf9890f62a0260401c5b670800000000000000821615613ad2576801059b0d31585743ae0260401c5b670400000000000000821615613af157680102c9a3e778060ee70260401c5b670200000000000000821615613b105768010163da9fb33356d80260401c5b670100000000000000821615613b2f57680100b1afa5abcbed610260401c5b66ff000000000000821615613c2e576680000000000000821615613b5c5768010058c86da1c09ea20260401c5b6640000000000000821615613b7a576801002c605e2e8cec500260401c5b6620000000000000821615613b9857680100162f3904051fa10260401c5b6610000000000000821615613bb6576801000b175effdc76ba0260401c5b6608000000000000821615613bd457680100058ba01fb9f96d0260401c5b6604000000000000821615613bf25768010002c5cc37da94920260401c5b6602000000000000821615613c10576801000162e525ee05470260401c5b6601000000000000821615613c2e5768010000b17255775c040260401c5b65ff0000000000821615613d245765800000000000821615613c59576801000058b91b5bc9ae0260401c5b65400000000000821615613c7657680100002c5c89d5ec6d0260401c5b65200000000000821615613c935768010000162e43f4f8310260401c5b65100000000000821615613cb057680100000b1721bcfc9a0260401c5b65080000000000821615613ccd5768010000058b90cf1e6e0260401c5b65040000000000821615613cea576801000002c5c863b73f0260401c5b65020000000000821615613d0757680100000162e430e5a20260401c5b65010000000000821615613d24576801000000b1721835510260401c5b64ff00000000821615613e1157648000000000821615613d4d57680100000058b90c0b490260401c5b644000000000821615613d695768010000002c5c8601cc0260401c5b642000000000821615613d85576801000000162e42fff00260401c5b641000000000821615613da15768010000000b17217fbb0260401c5b640800000000821615613dbd576801000000058b90bfce0260401c5b640400000000821615613dd957680100000002c5c85fe30260401c5b640200000000821615613df55768010000000162e42ff10260401c5b640100000000821615613e1157680100000000b17217f80260401c5b64ff00000000821615613ef6576380000000821615613e395768010000000058b90bfc0260401c5b6340000000821615613e54576801000000002c5c85fe0260401c5b6320000000821615613e6f57680100000000162e42ff0260401c5b6310000000821615613e8a576801000000000b17217f0260401c5b6308000000821615613ea557680100000000058b90c00260401c5b6304000000821615613ec05768010000000002c5c8600260401c5b6302000000821615613edb576801000000000162e4300260401c5b6301000000821615613ef65768010000000000b172180260401c5b62ff0000821615613fd15762800000821615613f1b576801000000000058b90c0260401c5b62400000821615613f3557680100000000002c5c860260401c5b62200000821615613f4f5768010000000000162e430260401c5b62100000821615613f6957680100000000000b17210260401c5b62080000821615613f835768010000000000058b910260401c5b62040000821615613f9d576801000000000002c5c80260401c5b62020000821615613fb757680100000000000162e40260401c5b62010000821615613fd1576801000000000000b1720260401c5b61ff008216156140a357618000821615613ff457680100000000000058b90260401c5b61400082161561400d5768010000000000002c5d0260401c5b612000821615614026576801000000000000162e0260401c5b61100082161561403f5768010000000000000b170260401c5b610800821615614058576801000000000000058c0260401c5b61040082161561407157680100000000000002c60260401c5b61020082161561408a57680100000000000001630260401c5b6101008216156140a357680100000000000000b10260401c5b60ff82161561416c5760808216156140c457680100000000000000590260401c5b60408216156140dc576801000000000000002c0260401c5b60208216156140f457680100000000000000160260401c5b601082161561410c576801000000000000000b0260401c5b600882161561412457680100000000000000060260401c5b600482161561413c57680100000000000000030260401c5b600282161561415457680100000000000000010260401c5b600182161561416c57680100000000000000010260401c5b670de0b6b3a76400000260409190911c60bf031c90565b60008160000361419557506000919050565b50600181600160801b81106141af5760409190911b9060801c5b6801000000000000000081106141ca5760209190911b9060401c5b64010000000081106141e15760109190911b9060201c5b6201000081106141f65760089190911b9060101c5b610100811061420a5760049190911b9060081c5b6010811061421d5760029190911b9060041c5b6004811061422d57600182901b91505b600182848161423e5761423e6146ef565b048301901c91506001828481614256576142566146ef565b048301901c9150600182848161426e5761426e6146ef565b048301901c91506001828481614286576142866146ef565b048301901c9150600182848161429e5761429e6146ef565b048301901c915060018284816142b6576142b66146ef565b048301901c915060018284816142ce576142ce6146ef565b048301901c915060008284816142e6576142e66146ef565b0490508083106142f4578092505b5050919050565b60008080600019848609848602925082811083820303915050670de0b6b3a7640000811061434657604051635173648d60e01b81526004810186905260248101859052604401610d0e565b6000670de0b6b3a7640000858709905081600003614372575050670de0b6b3a7640000900490506100d5565b620400008184030492109003600160ee1b02177faccb18165bd6fe31ae1cf318dc5b51eee0e1ba569b88cd74c1773b91fac1066902905092915050565b60008080600019858709858702925082811083820303915050806000036143df5783828161397e5761397e6146ef565b8084116139b957600080fd5b6143f3614b2a565b565b6040518060e001604052806000815260200160008152602001600081526020016000815260200160006001600160a01b0316815260200160608152602001606081525090565b60006020828403121561444d57600080fd5b81356001600160e01b03198116811461047a57600080fd5b6001600160a01b03811681146119c557600080fd5b634e487b7160e01b600052604160045260246000fd5b604051601f8201601f1916810167ffffffffffffffff811182821017156144b9576144b961447a565b604052919050565b600067ffffffffffffffff8211156144db576144db61447a565b5060051b60200190565b600080600080608085870312156144fb57600080fd5b6145058535614465565b843593506020850135925060408501359150606085013567ffffffffffffffff8082111561453257600080fd5b818701915087601f83011261454657600080fd5b61455861455383356144c1565b614490565b82358082526020808301929160051b8501018a81111561457757600080fd5b602085015b8181101561460e57848135111561459257600080fd5b803586018c603f8201126145a557600080fd5b60208101356145b6614553826144c1565b81815260059190911b82016040019060208101908f8311156145d757600080fd5b6040840193505b828410156145f95783358252602093840193909101906145de565b8752505060209485019491909101905061457c565b50508094505050505092959194509250565b600081518084526020808501945080840160005b8381101561465057815187529582019590820190600101614634565b509495945050505050565b60408152600061466e6040830185614620565b8281036020840152610f3f8185614620565b6000815180845260005b818110156146a65760208185018101518683018201520161468a565b506000602082860101526020601f19601f83011685010191505092915050565b60208152600061047a6020830184614680565b634e487b7160e01b600052603260045260246000fd5b634e487b7160e01b600052601260045260246000fd5b815160009082906020808601845b8381101561472f57815185529382019390820190600101614713565b50929695505050505050565b634e487b7160e01b600052602160045260246000fd5b82815260406020820152600061084c6040830184614620565b6000602080838503121561477d57600080fd5b825167ffffffffffffffff81111561479457600080fd5b8301601f810185136147a557600080fd5b80516147b3614553826144c1565b81815260059190911b820183019083810190878311156147d257600080fd5b928401925b82841015610957578351825292840192908401906147d7565b634e487b7160e01b600052601160045260246000fd5b600060018201614818576148186147f0565b5060010190565b60006020828403121561483157600080fd5b5051919050565b604080825283519082018190526000906020906060840190828701845b8281101561487a5781516001600160a01b031684529284019290840190600101614855565b505050838103828501526119f78186614620565b6000602082840312156148a057600080fd5b815161047a81614465565b808201808211156100d5576100d56147f0565b6000826148cd576148cd6146ef565b500490565b600181815b8085111561490d5781600019048211156148f3576148f36147f0565b8085161561490057918102915b93841c93908002906148d7565b509250929050565b600082614924575060016100d5565b81614931575060006100d5565b816001811461494757600281146149515761496d565b60019150506100d5565b60ff841115614962576149626147f0565b50506001821b6100d5565b5060208310610133831016604e8410600b8410161715614990575081810a6100d5565b61499a83836148d2565b80600019048211156149ae576149ae6147f0565b029392505050565b600061047a8383614915565b6000826149d1576149d16146ef565b500690565b80820281158282048414176100d5576100d56147f0565b818103818111156100d5576100d56147f0565b600060208284031215614a1257600080fd5b81516004811061047a57600080fd5b6001600160a01b038316815260406020820181905260009061084c90830184614620565b60018060a01b0384168152826020820152606060408201526000610f3f6060830184614620565b805169ffffffffffffffffffff8116811461130b57600080fd5b600080600080600060a08688031215614a9e57600080fd5b614aa786614a6c565b9450602086015193506040860151925060608601519150614aca60808701614a6c565b90509295509295909350565b600060208284031215614ae857600080fd5b815160ff8116811461047a57600080fd5b600061047a60ff841683614915565b60208082526008908201526726a0ac2faa24a2a960c11b604082015260600190565b634e487b7160e01b600052605160045260246000fdfea2646970667358221220f88fca329a50110af76555aab77910726029f57e1b699b3c3fd2066667731ba464736f6c63430008120033",
    "linkReferences": {}
  },
  "methodIdentifiers": {
    "eval(address,uint256,uint256,uint256[][])": "6715f825",
    "functionPointers()": "f933c72f",
    "supportsInterface(bytes4)": "01ffc9a7"
  },
  "id": 120
}